S01000004361736F766E696B2E73726563D6
S11300000C9434000C9446000C9446000C94460066
S11300100C9446000C9446000C9446000C94460044
S11300200C9446000C9446000C9446000C94480032
S11300300C9446000C9446000C9446000C94460024
S11300400C9446000C9446000C9446000C94460014
S11300500C9446000C9446000C9446000C94460004
S11300600C9446000C94460011241FBECFEFD8E038
S1130070DEBFCDBF21E0A0E0B1E001C01D92A630FB
S1130080B207E1F70E94A7000C943F010C94000012
S11300901F920F920FB60F9211248F939F9380910A
S11300A00401909105010196909305018093040148
S11300B09F918F910F900FBE0F901F9018951092E3
S11300C08000E1E8F0E080818C60808382E294EF3C
S11300D0909389008093880082E080936F00089554
S11300E01092C50087E68093C400E1ECF0E08081C3
S11300F088608083E2ECF0E08081846080830895EE
S11301009C010A974CF4E0ECF0E0808185FFFDCF80
S1130110205D2093C6000895E0ECF0E0808185FF27
S1130120FDCFC9016AE070E00E941701605D609331
S1130130C600E0ECF0E0808185FFFDCFC9016AE0F4
S113014070E00E941701805D8093C6000895259A8F
S11301500E945F000E9470007894C0ECD0E006EC2E
S113016010E00F2EFAE3FF2EF02D0F2EFAE0EF2E03
S1130170F02D8091040190910501CC976CF01092C0
S113018005011092040180910201909103010196EE
S113019090930301809302018091020190910301E5
S11301A0CC976CF01092030110920201809100012F
S11301B09091010101969093010180930001809137
S11301C0000190910101489724F0109201011092CE
S11301D0000180910001909101010E9480008881BA
S11301E085FFFDCFF801F082809102019091030117
S11301F00E948000888185FFFDCFF801F082809104
S11302000401909105010E948000888185FFFDCF43
S1130210888185FFFDCFF801E082FFEF20E782E0CF
S1130220F15020408040E1F700C00000A2CF97FBCE
S1130230072E16F4009407D077FD09D00E942B01F5
S113024007FC05D03EF4909581959F4F08957095D5
S113025061957F4F0895AA1BBB1B51E107C0AA1FDC
S1130260BB1FA617B70710F0A61BB70B881F991F53
S11302705A95A9F780959095BC01CD010895F894FD
S1050280FFCFAA
S9030000FC
