:100000000C9434000C9446000C9446000C9446006A
:100010000C9446000C9446000C9446000C94460048
:100020000C9446000C9446000C9446000C94460038
:100030000C9446000C9446000C9446000C94460028
:100040000C9446000C9446000C9446000C94460018
:100050000C9446000C9479000C9446000C944600D5
:100060000C9446000C94460011241FBECFEFD8E03C
:10007000DEBFCDBF21E0A0E0B1E001C01D92AC36F3
:10008000B207E1F70E94E9000C9418010C940000FB
:1000900010926400ECE7F0E08081806C80838FEF49
:1000A00080937A0010927B00089584B1866084B9B1
:1000B00084E690E0909387008093860082E390E04E
:1000C000909389008093880090938B0080938A009E
:1000D000E0E8F0E08081806A8083808182608083B4
:1000E000E1E8F0E0808188618083808181608083A5
:1000F00008951F920F920FB60F9211245F936F9382
:100100007F938F939F93AF93BF938091780090E0FC
:1001100090936B0180936A018091790090E09093B5
:100120000301809302018091020190910301892BC8
:1001300049F480916A0190916B0190930101809341
:1001400000012FC08091020190910301019751F4A9
:1001500080916A0190916B01939590930101809336
:1001600000011FC08091020190910301029751F498
:1001700080916A0190916B019E5F90930101809341
:1001800000010FC08091020190910301039749F48F
:1001900080916A0190916B019D5F90930101809322
:1001A0000001809100019091010165E070E00E94E2
:1001B000F0007093890060938800BF91AF919F9188
:1001C0008F917F916F915F910F900FBE0F901F9055
:1001D0001895F8940E9448000E9455007894FFCF2B
:1001E00097FB072E16F4009407D077FD09D00E94E4
:1001F000040107FC05D03EF4909581959F4F08952A
:10020000709561957F4F0895AA1BBB1B51E107C0F4
:10021000AA1FBB1FA617B70710F0A61BB70B881F96
:10022000991F5A95A9F780959095BC01CD01089525
:04023000F894FFCF70
:00000001FF
