S015000074616A6D6572207072656B69642E73726563ED
S11300000C9434000C943E000C943E000C943E007E
S11300100C943E000C943E000C943E000C943E0064
S11300200C943E000C943E000C943E000C943E0054
S11300300C943E000C943E000C9440000C943E0042
S11300400C943E000C943E000C943E000C943E0034
S11300500C943E000C943E000C943E000C943E0024
S11300600C943E000C943E0011241FBECFEFD8E048
S1130070DEBFCDBF0E9452000C9463000C940000BC
S11300801F920F920FB60F9211248F939F9395B1E5
S113009080E2892785B99F918F910F900FBE0F90B1
S11300A01F901895F894259A88EC87BD84B58264CE
S11300B084BD85B5816085BDEEE6F0E08081826017
S10D00C080837894FFCFF894FFCFFB
S9030000FC
