S012000050574D2074696D6572312E73726563AC
S11300000C9434000C9446000C9446000C94460066
S11300100C9446000C9446000C9446000C94460044
S11300200C9446000C9446000C9446000C94460034
S11300300C9446000C9446000C9446000C94460024
S11300400C9446000C9446000C9446000C94460014
S11300500C9446000C9455000C9446000C944600F5
S11300600C9446000C94460011241FBECFEFD8E038
S1130070DEBFCDBF21E0A0E0B1E001C01D92A830F9
S1130080B207E1F70E94F3000C944D020C940000B7
S113009010926400ECE7F0E08081806480838FEE4E
S11300A080937A0010927B0008951F920F920FB6EE
S11300B00F9211242F933F934F935F936F937F93EA
S11300C08F939F93AF93BF93EF93FF9380917800A7
S11300D090E090930701809306018091790090E06D
S11300E09093030180930201809102019091030196
S11300F0892B49F4809106019091070190930101A5
S1130100809300012FC08091020190910301019717
S113011051F4809106019091070193959093010108
S1130120809300011FC08091020190910301029706
S113013051F480910601909107019E5F9093010113
S1130140809300010FC080910201909103010397F5
S113015049F480910601909107019D5F90930101FC
S1130160809300016091000170910101072E000C41
S1130170880B990B0E94C10120E030E040E450E478
S11301800E9417010E948901709305016093040184
S11301908091040190910501E8E8F0E09183808367
S11301A080819181892B29F410928B0010928A000E
S11301B009C08091880090918900C29690938B0029
S11301C080938A00FF91EF91BF91AF919F918F919E
S11301D07F916F915F914F913F912F910F900FBE3F
S11301E00F901F90189584B1866084B98EE591E0D4
S11301F09093870080938600E8E8F0E088E290E03E
S1130200918380838081918190938B0080938A0075
S113021080EB80938000E1E8F0E08081806180835E
S11302208081816080830E9448007894FFCF0E947F
S11302302B010C9413020E940C0258F00E94050238
S113024040F029F45F3F29F00C94FC0151110C9407
S113025047020C9402020E94240268F39923B1F32A
S1130260552391F3951B550BBB27AA2762177307D8
S1130270840738F09F5F5F4F220F331F441FAA1F6C
S1130280A9F335D00E2E3AF0E0E832D09150504028
S1130290E695001CCAF72BD0FE2F29D0660F771FD6
S11302A0881FBB1F261737074807AB07B0E809F0BC
S11302B0BB0B802DBF01FF2793585F4F3AF09E3F41
S11302C0510578F00C94FC010C9447025F3FE4F371
S11302D0983ED4F3869577956795B795F7959F5F84
S11302E0C9F7880F911D9695879597F90895E1E0D0
S11302F0660F771F881FBB1F621773078407BA072F
S113030020F0621B730B840BBA0BEE1F88F7E09589
S113031008950E9490016894B1110C9447020895C5
S11303200E942C0288F09F5798F0B92F9927B75153
S1130330B0F0E1F0660F771F881F991F1AF0BA9585
S1130340C9F714C0B13091F00E944602B1E008959B
S11303500C944602672F782F8827B85F39F0B93F8D
S1130360CCF3869577956795B395D9F73EF4909538
S11303708095709561957F4F8F4F9F4F0895E894B6
S113038009C097FB3EF490958095709561957F4FD9
S11303908F4F9F4F9923A9F0F92F96E9BB27939587
S11303A0F695879577956795B795F111F8CFFAF497
S11303B0BB0F11F460FF1BC06F5F7F4F8F4F9F4FC8
S11303C016C0882311F096E911C0772321F09EE826
S11303D0872F762F05C0662371F096E8862F70E08C
S11303E060E02AF09A95660F771F881FDAF7880F66
S11303F09695879597F9089597F99F6780E870E037
S113040060E008959FEF80EC089500240A94161686
S1130410170618060906089500240A9412161306EE
S1130420140605060895092E0394000C11F488237C
S113043052F0BB0F40F4BF2B11F460FF04C06F5F98
S11304407F4F8F4F9F4F089557FD9058440F551F6E
S113045059F05F3F71F04795880F97FB991F61F042
S11304609F3F79F087950895121613061406551FB9
S1130470F2CF4695F1DF08C0161617061806991F25
S1130480F1CF86957105610508940895E894BB271A
S111049066277727CB0197F90895F894FFCFDC
S9030000FC
