:100000000C9434000C9446000C9446000C9446006A
:100010000C9446000C9446000C9446000C94460048
:100020000C9446000C9415010C9446000C94460068
:100030000C9446000C9446000C9446000C94460028
:100040000C9446000C9446000C9446000C94460018
:100050000C9446000C9475000C9446000C944600D9
:100060000C9446000C94460011241FBECFEFD8E03C
:10007000DEBFCDBF21E0A0E0B1E001C01D92A830FD
:10008000B207E1F70E9429010C94E3020C940000EE
:1000900084B18C6084B9089588E18093C10086E0C2
:1000A0008093C2001092C50087E68093C400089533
:1000B00010926400ECE7F0E08081806480838FEF31
:1000C00080937A0010927B000895E0EBF0E080814D
:1000D0008168808382E08093B1001092B300E0E7F2
:1000E000F0E080818160808308951F920F920FB6A7
:1000F0000F9211242F933F934F935F936F937F93AE
:100100008F939F93AF93BF93EF93FF93809178006A
:1001100090E090930701809306018091790090E030
:100120009093030180930201809102019091030159
:10013000892B49F480910601909107019093010168
:10014000809300012FC080910201909103010197DB
:1001500051F48091060190910701939590930101CC
:10016000809300011FC080910201909103010297CA
:1001700051F480910601909107019E5F90930101D7
:10018000809300010FC080910201909103010397B9
:1001900049F480910601909107019D5F90930101C0
:1001A000809300016091000170910101072E000C05
:1001B000880B990B0E94EA0120E030E040E85EE302
:1001C0000E9476020E94B2017093010160930001C7
:1001D0006091000170910101072E000C880B990BB2
:1001E0000E94EA0120E030E04FE753E40E94400122
:1001F00020E030E048EC52E40E9476020E94B20116
:100200007093050160930401FF91EF91BF91AF914D
:100210009F918F917F916F915F914F913F912F911E
:100220000F900FBE0F901F9018951F920F920FB650
:100230000F9211248F939F9380910001909101015F
:100240008093B3009F918F910F900FBE0F901F90DE
:100250001895F8940E9448000E9458000E944C0093
:100260000E9465007894E0ECF0E0A6ECB0E08081BC
:1002700085FFFDCF80910401909105018C93F7CF0C
:100280000E9454010C943C020E94350258F00E94D6
:100290002E0240F029F45F3F29F00C942502511101
:1002A0000C9470020C942B020E944D0268F3992367
:1002B000B1F3552391F3951B550BBB27AA27621762
:1002C0007307840738F09F5F5F4F220F331F441F6F
:1002D000AA1FA9F335D00E2E3AF0E0E832D09150A3
:1002E0005040E695001CCAF72BD0FE2F29D0660F90
:1002F000771F881FBB1F261737074807AB07B0E8D3
:1003000009F0BB0B802DBF01FF2793585F4F3AF0D8
:100310009E3F510578F00C9425020C9470025F3FCB
:10032000E4F3983ED4F3869577956795B795F7955E
:100330009F5FC9F7880F911D9695879597F9089546
:10034000E1E0660F771F881FBB1F621773078407E2
:10035000BA0720F0621B730B840BBA0BEE1F88F7F1
:10036000E09508950E94B9016894B1110C9470024F
:1003700008950E94550288F09F5798F0B92F992749
:10038000B751B0F0E1F0660F771F881F991F1AF080
:10039000BA95C9F714C0B13091F00E946F02B1E074
:1003A00008950C946F02672F782F8827B85F39F073
:1003B000B93FCCF3869577956795B395D9F73EF419
:1003C00090958095709561957F4F8F4F9F4F0895C1
:1003D000E89409C097FB3EF49095809570956195DF
:1003E0007F4F8F4F9F4F9923A9F0F92F96E9BB2795
:1003F0009395F695879577956795B795F111F8CF11
:10040000FAF4BB0F11F460FF1BC06F5F7F4F8F4F7B
:100410009F4F16C0882311F096E911C0772321F071
:100420009EE8872F762F05C0662371F096E8862F09
:1004300070E060E02AF09A95660F771F881FDAF760
:10044000880F9695879597F9089597F99F6780E8A3
:1004500070E060E008959FEF80EC089500240A9416
:100460001616170618060906089500240A9412168F
:100470001306140605060895092E0394000C11F4C2
:10048000882352F0BB0F40F4BF2B11F460FF04C06F
:100490006F5F7F4F8F4F9F4F089557FD9058440FC8
:1004A000551F59F05F3F71F04795880F97FB991FD3
:1004B00061F09F3F79F08795089512161306140690
:1004C000551FF2CF4695F1DF08C01616170618061D
:1004D000991FF1CF86957105610508940895E894F8
:1004E000BB2766277727CB0197F908950E948902D9
:1004F0000C943C020E942E0238F00E94350220F03B
:10050000952311F00C9425020C942B0211240C94C9
:1005100070020E944D0270F3959FC1F3950F50E059
:10052000551F629FF001729FBB27F00DB11D639FA5
:10053000AA27F00DB11DAA1F649F6627B00DA11D4B
:10054000661F829F2227B00DA11D621F739FB00DF1
:10055000A11D621F839FA00D611D221F749F332761
:10056000A00D611D231F849F600D211D822F762FFA
:100570006A2F11249F5750409AF0F1F088234AF0D7
:10058000EE0FFF1FBB1F661F771F881F9150504043
:10059000A9F79E3F510580F00C9425020C9470023F
:1005A0005F3FE4F3983ED4F3869577956795B795CA
:1005B000F795E7959F5FC1F7FE2B880F911D9695E4
:0A05C000879597F90895F894FFCF8E
:00000001FF
