:1000000096C00000B0C00000AEC00000ACC0000050
:10001000AAC00000A8C00000A6C00000A4C0000044
:10002000A2C00000A0C000009EC0000065C6000085
:100030009AC0000098C0000096C0000094C0000064
:1000400092C0000090C000008EC000008CC0000074
:100050008AC0000088C0000086C0000084C0000084
:1000600082C0000080C000007EC000007CC0000094
:100070007AC0000026034C005500460041002000D5
:100080004B006500790062006F006100720064003F
:100090002000440065006D006F000000180344005C
:1000A000650061006E002000430061006D00650086
:1000B000720061000000040309040902220001012A
:1000C00000C03209040000010301010009211101EF
:1000D00000012240000705810308000512011001FC
:1000E00000000008EB0342200100010200010501AD
:1000F0000906A101050719E029E715002501750189
:1001000095088102950175088101050819012905E5
:10011000950575019102950175039101150026FF62
:10012000000507190029FF950675088100C01124F4
:100130001FBECFEFD2E0DEBFCDBF11E0A0E0B1E047
:10014000E8E9F1E102C005900D92A031B107D9F7BD
:1001500021E0A0E1B1E001C01D92A532B207E1F7B4
:100160006BD00C94CA084CCF292F3327233031058C
:10017000C9F038F42130310559F02230310569F0E9
:1001800035C02132310541F12232310551F12EC005
:1001900082E190E02CED30E032C082E290E02AEB88
:1001A00030E02DC099278130910551F018F0029769
:1001B00069F021C0E6EBF0E0849190E09F011FC060
:1001C000ECE9F0E0849190E09F0119C0E4E7F0E0F1
:1001D000849190E09F0113C089E090E02CEC30E026
:1001E0000EC080E490E02EEE30E009C080E090E0A8
:1001F00020E030E004C080E090E020E030E0FA0150
:1002000031832083089584B7877F84BF0FB6F89425
:10021000A8958091600088618093600010926000D2
:100220000FBE90E080E80FB6F89480936100909341
:1002300061000FBE51C50895E6DF789480E091E03B
:1002400089D171D7FBCF0895089580E091E06ED1F8
:10025000E2EEF0E0808184608083089580E091E0A8
:100260001CC0089580910E0190910F01009729F014
:10027000019790930F0180930E0108950F931F93A0
:1002800089E1F901828388E090E0F801918380831D
:1002900080E01F910F91089508953F924F925F92D1
:1002A0006F927F928F929F92AF92BF92CF92DF9286
:1002B000EF92FF920F931F93CF93DF9300D01F9283
:1002C000CDB7DEB76C01EDB6FEB68091E80083FFD6
:1002D00013C1F601808190E020912101309122012B
:1002E0002817390709F008C180911E01833009F4ED
:1002F000A0C030F4813071F0823009F4E2C0FCC05B
:100300008A3009F4C2C08B3009F4ABC0893009F0DF
:10031000F3C051C080911D01813A09F0EDC0ADB626
:10032000BEB61A821982EDE1F1E0828113818B83DE
:10033000F6018085482F50E08DB79EB7841B950B42
:100340000FB6F8949EBF0FBE8DBFEDB7FEB73196C6
:100350004F0160E070E0CF0116D74FEF410F8E01E3
:100360000F5F1F4F9401BE016D5F7F4FC60186DF97
:10037000F60186819781009721F0408550E0B40115
:10038000F9D61092E900E8EEF0E08081877F808363
:100390008B8181118093F10069817A81C401F4D14C
:1003A000E8EEF0E080818B7780830FB6F894BEBED4
:1003B0000FBEADBEA1C080911D01813209F09CC06D
:1003C0006DB67EB6EDE1F1E0068117815280438083
:1003D0008DB79EB7801B910B0FB6F8949EBF0FBED2
:1003E0008DBFEDB7FEB731964F010F2EF8EEAF2E51
:1003F000B12CF02DF5018081877F8083B801C40185
:100400003CD2F50180818E77808321E0511001C0BC
:1004100020E030E0021B130B280D391D4FEF440D77
:10042000652DC60139DF0FB6F8947EBE0FBE6DBED6
:1004300063C080911D01813A09F05EC0E8EEF0E0F2
:100440008081877F8083808180FFFDCFF601818559
:100450008093F100E8EEF0E080818E778083A4D372
:100460004BC080911D01813209F046C0E8EEF0E0FA
:100470008081877F808398D390911F0181E09111C3
:1004800001C080E0F601818737C080911D01813273
:1004900099F5E8EEF0E08081877F808385D38091B5
:1004A0001F019091200188270024880F991F001CAC
:1004B000880F991F001C892F902DF601958784873E
:1004C0001BC080911D01813AB9F4E8EEF0E0808113
:1004D000877F8083808180FFFDCFF60184859585AD
:1004E00096958795969587958093F100E8EEF0E0D4
:1004F00080818E77808358D30FB6F894FEBE0FBEEE
:10050000EDBE0F900F900F90DF91CF911F910F9143
:10051000FF90EF90DF90CF90BF90AF909F908F9023
:100520007F906F905F904F903F900895FC013996B7
:1005300027E0DF011D922A95E9F721E0FC012187E0
:1005400024EF31E03587248723E0248361E001969E
:10055000DCC208955F926F927F928F929F92AF92CA
:10056000BF92CF92DF92EF92FF920F931F93CF93A0
:10057000DF9300D01F92CDB7DEB77C01ADB6BEB61B
:1005800080911C01843009F08AC08091E400909130
:10059000E500F701228533852817390709F47FC064
:1005A00081818F708093E9008091E80085FF77C09A
:1005B0008DB69EB6408550E08DB79EB7841B950BD7
:1005C0000FB6F8949EBF0FBE8DBFEDB7FEB7319644
:1005D0006F011B821A82198260E070E0CF01D3D5CF
:1005E0008E010F5F1F4F960140E0BE016D5F7F4F90
:1005F000C70144DE582EF70184859585892B41F08B
:1006000081E026853785232B09F080E0782E01C014
:10061000712CF701068117810115110589F04981B7
:100620005A81B801C60199D566246394892B09F4CF
:10063000612CF701408550E0B601C8019BD501C08F
:10064000612C89819A81892BF1F0511004C06110CD
:1006500002C070FE18C0F70184859585978786874C
:1006600081818F708093E9008B8181118093F100EB
:1006700069817A8140E050E0C60129D0E8EEF0E0DF
:1006800080818E7780838091E4009091E500F7016E
:10069000938782870FB6F8949EBE0FBE8DBE0FB6AD
:1006A000F894BEBE0FBEADBE0F900F900F90DF91BD
:1006B000CF911F910F91FF90EF90DF90CF90BF905F
:1006C000AF909F908F907F906F905F9008958F92E2
:1006D0009F92AF92BF92CF92DF92EF92FF920F93D1
:1006E0001F93CF93DF938C01EB015A0181D28111CB
:1006F0003EC0A114B10439F0F50180819181C81B7D
:10070000D90B080F191F209789F1E12CF12C0F2E1E
:10071000F8EE8F2E912CF02D0F2EF1EFCF2ED12C45
:10072000F02DF401808185FD14C080818E77808357
:10073000FAD4A114B10449F0F50180819181E80E49
:10074000F91EF182E08285E012C052D2882351F076
:100750000EC0F80181918F01F60180832197FFEF90
:10076000EF1AFF0A2097E9F680E001C080E0DF91F0
:10077000CF911F910F91FF90EF90DF90CF90BF909E
:10078000AF909F908F900895EF92FF921F93CF9319
:10079000DF9320912301309124012617370758F069
:1007A0006115710539F4E8EEF0E020812E772083A1
:1007B0009B0101C09B01A82FB92F40E0E8EEF0E0BB
:1007C00062EF70E00F2EF1EFEF2EF12CF02D51E0E3
:1007D00010E02BC080911C018823F1F18530F1F1EC
:1007E000808183FD3DC0808182FD2FC0808180FF9C
:1007F0001CC0EB01888190E02115310579F088302B
:10080000910560F44D91E70148832150310901962B
:100810002115310519F088309105A1F7452F08976A
:1008200009F0412F80818E7780832115310591F663
:100830004111D0CF0AC080911C01882399F08530E6
:1008400099F0808183FF03C011C0E8EEF0E0808161
:1008500082FFF1CF80E00BC082E009C083E007C0D7
:1008600081E005C082E003C083E001C081E0DF9148
:10087000CF911F91FF90EF900895CF93DF93611573
:10088000710531F5E8EEF0E080818B7780833CC024
:1008900080911C01882309F43EC0853009F43DC0D5
:1008A000808183FD3CC0808182FFF2CF44C0E9019A
:1008B00088818D936150710921F0EA01888181114D
:1008C000F6CF80818B7780836115710549F41CC058
:1008D000A82FB92FE8EEF0E042EF50E021EF30E032
:1008E00080911C018823E9F08530E9F0808183FD47
:1008F0001CC0808182FD1FC0CBCF80911C0188234A
:10090000B1F0853019F415C0E8EEF0E0808180FF89
:10091000F4CF80E015C082E013C083E011C081E015
:100920000FC082E00DC083E00BC081E009C082E00F
:1009300007C083E005C0EA0188818111B8CFC1CF2B
:10094000DF91CF910895EF92FF921F93CF93DF93A2
:1009500020912301309124012617370758F06115A3
:10096000710539F4E8EEF0E020812E7720839B01B9
:1009700001C09B01E82FF92F60E0A8EEB0E042EF44
:1009800050E00F2EF1EFEF2EF12CF02D71E010E082
:100990002EC080911C01882309F440C0853009F4E1
:1009A0003FC08C9183FD3EC08C9182FD30C08C9104
:1009B00080FF1DC0EA01888190E02115310581F09A
:1009C0008830910568F46491E7016883319621507D
:1009D000310901962115310519F08830910599F7F3
:1009E000672F089709F0612F8C918E778C932115D2
:1009F000310579F66111CDCF0AC080911C018823A1
:100A000099F0853099F0808183FF03C011C0E8EE32
:100A1000F0E0808182FFF1CF80E00BC082E009C06E
:100A200083E007C081E005C082E003C083E001C02D
:100A300081E0DF91CF911F91FF90EF9008958F9209
:100A40009F92BF92CF92DF92EF92FF920F931F93EC
:100A5000CF93DF93853070F126C0292F2F70E701E7
:100A60002883891731F0E80178812081E4015881D9
:100A700003C0242F762F5B2D21FF12C03C913E7FB7
:100A80003C9330813D7F30833C9131603C93E80161
:100A900078832083E4015883E6012881222344F4EB
:100AA0009F5F9530D1F68F708093E90081E021C07F
:100AB00080E01FC0982F9F709093E900982F242FFB
:100AC000762F50E0ABEEB0E0EDEEF0E00CEE10E093
:100AD0000F2EF0EF8F2E912CF02D0F2EFEEECF2E3D
:100AE000D12CF02D0F2EF9EEEF2EF12CF02DB12C94
:100AF000C3CFDF91CF911F910F91FF90EF90DF90C7
:100B0000CF90BF909F908F900895EF92FF920F9398
:100B10001F93CF93DF936623E9F1062FC82FD92FB8
:100B200010E00F2EF6E0FF2EF02D6894EE24E1F891
:100B30005881552349F19C81E981FA816B81852F88
:100B40008F70853048F5923010F44E2D01C04F2D36
:100B5000E930F10550F028E030E090E09F5F220F8F
:100B6000331F2E173F07D0F301C090E09295907F7E
:100B7000492B6295660F660F607C551F5527551FE0
:100B8000652B5DDF882349F01F5F25960113D0CFC9
:100B900081E003C081E001C080E0DF91CF911F912F
:100BA0000F91FF90EF90089580911D01882344F0EC
:100BB000E8EEF0E014C080911C01811103C008959B
:100BC000E8EEF0E0808182FFF6CFE8EEF0E0808191
:100BD0008B778083089580911C01882341F0808168
:100BE00080FFF9CFE8EEF0E080818E778083089572
:100BF0000F931F93CF93DF932091E4003091E50092
:100C000065E6ACEEB0E0E8EEF0E00BEE10E044EEAE
:100C100050E001C09C019C91892F817090FD1DC006
:100C200020C080911C01882381F0853081F0E8018B
:100C3000888185FD0EC0EA018881998128173907CE
:100C400051F3615039F784E00FC082E00DC083E0BA
:100C50000BC081E009C080E007C0808180FFE1CF48
:100C6000FACF908192FFDDCFDF91CF911F910F914D
:100C700008953CD03ED0E8EDF0E080818F7780830E
:100C800080818068808380818F7D808384E089BDBE
:100C900086E089BD09B400FEFDCF10921C011092C0
:100CA000180110921A011092190142E060E080E0F0
:100CB000C6DEE1EEF0E080818E7F8083E2EEF0E040
:100CC000808181608083808188608083E0EEF0E0B5
:100CD00080818E7F80830895E3E6F0E080818E7FBF
:100CE000808381E080931B01C4CF08951092E200BD
:100CF00008951092E10008951F920F920FB60F927F
:100D000011242F933F934F935F936F937F938F9310
:100D10009F93AF93BF93EF93FF938091E10082FF86
:100D20000AC08091E20082FF06C0E1EEF0E080811F
:100D30008B7F808397DA8091E10080FF15C08091DE
:100D4000E20080FF11C0E2EEF0E080818E7F8083C0
:100D5000808180618083E8EDF0E080818062808323
:100D600019BC10921C0170DA8091E10084FF2FC041
:100D70008091E20084FF2BC084E089BD86E089BDBC
:100D800009B400FEFDCFE8EDF0E080818F7D808327
:100D9000E1EEF0E080818F7E8083E2EEF0E0808102
:100DA0008F7E808380818160808380911801882379
:100DB00021F084E080931C0109C08091E300882326
:100DC00014F081E001C083E080931C013CDA809143
:100DD000E10083FF1EC08091E20083FF1AC0E1EEB4
:100DE000F0E08081877F808382E080931C011092F5
:100DF000180180818E7F8083E2EEF0E080818E7F1B
:100E0000808380818061808342E060E080E017DE43
:100E100089D1FF91EF91BF91AF919F918F917F9178
:100E20006F915F914F913F912F910F900FBE0F9057
:100E30001F9018950F931F93CF93DF93CDB7DEB715
:100E4000AA970FB6F894DEBF0FBECDBFEDE1F1E07B
:100E500025E231E0A1EFB0E08C9181932E173F079E
:100E6000D9F7FCD98091E80083FF37C1EDE1F1E0CB
:100E700090818181853009F47FC030F48130C9F1DF
:100E800068F08330B1F129C1883009F4F1C08930AC
:100E900009F4FEC0863009F020C191C0903821F0DD
:100EA000923809F01AC108C08091190190911A0175
:100EB000992389F082600FC0809121018F70853065
:100EC00008F00BC1E9EEF0E080838091EB0085FB38
:100ED000882780F91082E8EEF0E09081977F908378
:100EE000A1EFB0E08C931C9280818E7780835CDED2
:100EF000F4C0992309F400C1923009F0EEC001C199
:100F000091E0833009F090E090931A012CC0809119
:100F100021018F709FEF980F943008F0DEC080930E
:100F2000E9009091EB0090FF1EC090911E0193305C
:100F300031F4EBEEF0E080818062808314C0EBEE50
:100F4000F0E090819061908321E030E0A90102C03F
:100F5000440F551F8A95E2F7AAEEB0E04C931C921D
:100F60008081886080831092E900E8EEF0E0808163
:100F7000877F808319DEB1C09111AFC010911F012E
:100F80001F77E3EEF0E080818078812B8083E8EEAC
:100F9000F0E08081877F808307DEE8EEF0E08081EB
:100FA00080FFFDCFE3EEF0E0808180688083111147
:100FB00002C082E001C083E080931C018EC0905883
:100FC000923008F08AC080911F01909120018C3DE1
:100FD00053E0950799F583E08A838AE289835FB7B6
:100FE000F894DE01139620E03EE041E2E32FF0E0CA
:100FF00040935700849120FF03C082958F703F5F1C
:101000008F708A3018F090E0C79602C090E0C096CA
:101010008D939D932F5F243149F75FBF08EE10E059
:10102000F8018081877F80836AE270E0CE010196BB
:10103000ABDBF80180818B7780834FC06091210109
:1010400070912201AE014F5F5F4F8ED8BC01892B9A
:1010500009F443C008EE10E0F8019081977F908377
:1010600089819A8170DCF80180818B77808335C01B
:10107000903899F5E8EEF0E08081877F8083809159
:1010800018018093F10080818E7780838DDD25C0EB
:10109000911123C080911F019091200199270297FF
:1010A000E4F4E8EEF0E08081877F808380911F0187
:1010B0008093180179DD80911801882321F084E064
:1010C00080931C0109C08091E300882314F081E023
:1010D00001C084E080931C01B8D88091E80083FFB0
:1010E00016C0E8EEF0E08081877F8083EBEEF0E0D1
:1010F0008081806280830BC090911F01913069F7DD
:10110000FFCE80911F01882309F401CF2CCFAA962E
:101110000FB6F894DEBF0FBECDBFDF91CF911F9108
:101120000F9108950895CF9380911C01882399F021
:10113000C091E900CF708091EC00982F917080FDF4
:1011400090E8C92B1092E9008091E80083FD72DEDF
:10115000CF70C093E900CF910895FB01DC0104C07A
:101160008D910190801921F441505040C8F7881B9F
:10117000990B0895FB01DC0102C001900D924150D2
:101180005040D8F70895DC0101C06D9341505040A4
:08119000E0F70895F894FFCF89
:1011980000810800000110010800000000000000A4
:00000001FF
