:100000000C9434000C9451000C9451000C94510049
:100010000C94E0080C9451000C9451000C94510085
:100020000C9451000C9451000C9451000C9451000C
:100030000C9451000C9451000C945A0A0C945100E9
:100040000C9451000C9451000C94AA0A0C94510089
:100050000C949E0A0C9461000C9451000C94510075
:100060000C9451000C94510011241FBECFEFD8E026
:10007000DEBFCDBF11E0A0E0B1E0E6E9FCE102C0E7
:1000800005900D92A639B107D9F722E0A6E9B1E0B3
:1000900001C01D92A331B207E1F70E9454080C94ED
:1000A000490E0C940000579A1092640080EC8093E3
:1000B0007C008EEE80937A0010927B001092960165
:1000C00008951F920F920FB60F9211248F939F9352
:1000D000EF93FF9380919601811109C08091780080
:1000E0009091790090939A01809399010CC080912E
:1000F0009601813041F4809178009091790090933D
:10010000980180939701EAE7F0E080818F77808300
:10011000809196018F5F8093960180919601823045
:1001200010F01092960180919601882319F0813089
:1001300039F00EC0ECE7F0E080818C7F808308C04E
:10014000ECE7F0E080818D7F808380818160808317
:10015000EAE7F0E08081806C8083FF91EF919F91CE
:100160008F910F900FBE0F901F901895F999FECFA9
:1001700092BD81BDF89A80B50895F999FECF92BDE0
:1001800081BD60BDF894FA9AF99A78940895109216
:10019000B90088E48093B8000895CF93DF93ECEB27
:1001A000F0E024EAA9EBB0E0CBEBD0E034E844E99E
:1001B000208390819923ECF79C91987F983011F0DF
:1001C0009031B1F78883308390819923ECF79C912B
:1001D000987F903211F0983529F44083908194FDF6
:1001E000FDCFE6CFDF91CF91089584E98093BC00E5
:1001F000ECEBF0E0808184FDFDCF08958093BB009F
:1002000084E88093BC00ECEBF0E080818823ECF77D
:100210009091B900987F81E0983209F480E00895C8
:1002200084E88093BC00ECEBF0E080818823ECF75D
:100230008091BB000895CF93C82F862F0E94CD00D8
:100240008C2F0E94FE000E94F500CF9108950F931D
:100250001F93CF93DF93FC01062F172FEA01211183
:1002600028C0808199EE980F963018F08F5F8083B8
:1002700001C0108280811F928F938CE591E09F9343
:100280008F931F930F930E945F0B888161E08150D1
:100290000E94FF02802F912F0E94080361E0888155
:1002A0000E94FF020F900F900F900F900F900F90F1
:1002B00028C0213031F5808181508A3F10F480833D
:1002C00002C087E1808380811F928F938CE591E04B
:1002D0009F938F931F930F930E945F0B888161E020
:1002E00081500E94FF02802F912F0E94080361E03D
:1002F00088810E94FF020F900F900F900F900F9037
:100300000F90DF91CF911F910F9108950F931F933D
:10031000CF93DF93FC01062F172FEA01211128C08C
:10032000808195EC980F953018F08F5F808301C025
:10033000108280811F928F938CE591E09F938F9321
:100340001F930F930E945F0B888161E081500E9490
:10035000FF02802F912F0E94080361E088810E9494
:10036000FF020F900F900F900F900F900F9028C0EA
:10037000213031F5808181508A3F10F4808302C0A2
:100380008BE3808380811F928F938CE591E09F9314
:100390008F931F930F930E945F0B888161E08150C0
:1003A0000E94FF02802F912F0E94080361E0888144
:1003B0000E94FF020F900F900F900F900F900F90E0
:1003C000DF91CF911F910F9108950F931F93CF93BA
:1003D000DF93FC01062F172FEA01211128C080812D
:1003E00095EC980F953018F08F5F808301C01082D4
:1003F00080811F928F938CE591E09F938F931F9341
:100400000F930E945F0B888161E081500E94FF0280
:10041000802F912F0E94080361E088810E94FF02D3
:100420000F900F900F900F900F900F9028C02130D9
:1004300031F5808181508A3F10F4808302C08BE3C4
:10044000808380811F928F938CE591E09F938F939F
:100450001F930F930E945F0B888161E081500E947F
:10046000FF02802F912F0E94080361E088810E9483
:10047000FF020F900F900F900F900F900F90DF9151
:10048000CF911F910F910895CF93C82F8091AC0108
:1004900084608093AC016EE40E941B0187EC90E0C5
:1004A0000197F1F700C00000C295C07F8091AC01B8
:1004B0006EE48C2B0E941B018091AC018B7F80939A
:1004C000AC016EE40E941B0187EC90E00197F1F70C
:1004D00000C00000CF910895CF93DF93C82FD82F8D
:1004E000D295DF70611109C08091AC018E7F80933D
:1004F000AC016EE40E941B0108C08091AC018160D8
:100500008093AC016EE40E941B018D2F0E94440277
:100510008C2F0E944402DF91CF910895CF93C82F72
:100520008091AC0181608093AC016EE40E941B015C
:100530008C2F82958F700E9444028C2F0E9444025F
:10054000CF9108951092AC010E94C7008FE59AEEFA
:100550000197F1F700C0000083E00E9444028FE79A
:100560009EE30197F1F700C0000083E00E9444027F
:100570008FE891E00197F1F700C0000083E00E944E
:1005800044028FE99FE00197F1F700C0000082E08C
:100590000E9444028FE99FE00197F1F700C000003C
:1005A00060E088E20E946C028FE99FE00197F1F71A
:1005B00000C0000060E08CE00E946C028FE99FE0C8
:1005C0000197F1F700C0000060E086E00E946C0235
:1005D0008FE99FE00197F1F700C000008091AC0126
:1005E00088608093AC016EE40E941B018091AC0195
:1005F0008D7F8093AC016EE40E941B01089590E40E
:10060000699F800D112460E080680E946C0208954B
:100610000F931F93CF93FC018081882359F08F01A2
:10062000C0E00E948E02CF5FF801EC0FF11D8081C7
:100630008111F7CFCF911F910F910895882329F051
:1006400060E08FE00E946C02089560E08CE00E9400
:100650006C020895FA01DC0112962C91129754E66F
:1006600011968C9190E0529F800D911D1124DB0119
:1006700012962C91129711966C9170E0529F600D1A
:10068000711D11244281218130E0549F200D311DC4
:1006900011248617970768F02817390720F02833A8
:1006A000B9E03B0778F081E02617370770F080E06B
:1006B00008952817390740F081E02617370728F0FA
:1006C00080E0089581E0089580E008950F93CF932E
:1006D000DF9380919C01833009F412C130F48823A8
:1006E00059F0823009F479C0DBC4843009F414C2B3
:1006F000853009F474C3D4C480919F01882309F420
:1007000060C010929F0100E028E032E040E052E03B
:1007100061E072E082E092E00E94E009E0E0F2E055
:1007200080811F928F9381811F928F9382811F926C
:100730008F9388E391E09F938F93C8ECD1E0DF9390
:10074000CF930E945F0B60E080E00E94FF0287E48D
:1007500091E00E940803CE010E94080387E491E023
:100760000E94080361E080E00E94FF0289E491E0BA
:100770000E940803E7EFF1E081811F928F9382814D
:100780001F928F93E5EEF1E081811F928F9382811A
:100790001F928F938CE491E09F938F93DF93CF937D
:1007A0000E945F0BCE010E94080389E491E00E9441
:1007B00008038DB79EB746960FB6F8949EBF0FBE3E
:1007C0008DBF65E0809135010E942909882309F4D5
:1007D00067C482E080939C0163C4C0919B010C2E8E
:1007E000000CDD0B60E080E00E94FF0281E691E0FA
:1007F0000E94080360E081E00E94FF0280919B015B
:1008000021E18202C001112480509F4F0E94080301
:1008100061E081E00E94FF02C230D10511F4CFEF08
:10082000DFEF219621E12C9FC0012D9F900D112417
:1008300080509F4F0E94080363E0809135010E9421
:100840002909882359F080919B018F5F83301CF424
:1008500080939B0125C410929B0122C462E0809189
:1008600035010E942909882359F080919B0181500C
:100870001AF080939B0114C482E080939B0110C402
:1008800080919B0181110DC065E0809135010E942E
:100890002909882331F010929B0183E080939C0109
:1008A000FFC380919B01813069F465E0809135013F
:1008B0000E942909882331F010929B0184E08093E3
:1008C0009C01EEC380919B01823069F465E08091C8
:1008D00035010E942909882331F010929B0185E09F
:1008E00080939C01DDC364E0809135010E94290959
:1008F000882309F4D5C310929B0110929C01D0C3A8
:1009000080913401882309F44BC01092340189E0AE
:10091000E0E0F2E0AFEBB1E001900D928A95E1F7F3
:10092000EFEBF1E080811F928F9381811F928F9373
:1009300082811F928F9388E391E09F938F9388EC3D
:1009400091E09F938F930E945F0B85E080939B01C2
:1009500060E080E00E94FF0283E691E00E940803CD
:1009600061E080E00E94FF0287E491E00E940803BA
:1009700088EC91E00E94080387E491E00E9408035C
:1009800061E080919B010E94FF0281E00E941E03B2
:100990008DB79EB70A960FB6F8949EBF0FBE8DBF57
:1009A00061E0809135010E942909882389F08091B6
:1009B0009B018D5F8C301CF480939B0103C08BE006
:1009C00080939B0161E080919B010E94FF0268C3BC
:1009D00060E0809135010E942909882389F0809187
:1009E0009B01835085301CF080939B0103C085E000
:1009F00080939B0161E080919B010E94FF0250C3A4
:100A000062E0809135010E942909882339F18091A3
:100A10009B01853051F420E04BE951E068EC71E036
:100A200081EC91E00E9427013BC3883051F420E023
:100A30004BE951E068EC71E080EC91E00E948601A6
:100A40002FC38B3009F02CC320E04BE951E068EC58
:100A500071E08FEB91E00E94E50122C363E0809199
:100A600035010E942909882339F180919B01853045
:100A700051F421E04BE951E068EC71E081EC91E048
:100A80000E9427010DC3883051F421E04BE951E069
:100A900068EC71E080EC91E00E94860101C38B302C
:100AA00009F0FEC221E04BE951E068EC71E08FEB08
:100AB00091E00E94E501F4C265E0809135010E9459
:100AC00029098823A9F0EFEBF1E000E020E0408164
:100AD000618182810E941E0A81E08093340110921C
:100AE0009B0180E00E941E0382E080939C01D8C29B
:100AF00064E0809135010E942909882309F4D0C25D
:100B000081E08093340110929B0180E00E941E03DB
:100B100082E080939C01C4C280913301882309F450
:100B200059C01092330189E0E5EEF1E0AEEEB1E09C
:100B300001900D928A95E1F789E0E7EFF1E0ACEDE5
:100B4000B1E001900D928A95E1F783E080939B01DB
:100B500060E080E00E94FF0284E791E00E940803C9
:100B6000ECEDF1E081811F928F9382811F928F9330
:100B7000EEEEF1E081811F928F9382811F928F931D
:100B80008CE491E09F938F9388EC91E09F938F93F7
:100B90000E945F0B61E080E00E94FF0289E491E027
:100BA0000E94080388EC91E00E94080389E491E028
:100BB0000E94080361E080919B010E94FF0281E096
:100BC0000E941E038DB79EB70C960FB6F8949EBF79
:100BD0000FBE8DBF61E0809135010E9429098823F5
:100BE000C9F080919B019CEF980F933020F48AE02C
:100BF00080939B0109C08D5F8E301CF480939B0114
:100C000003C08DE080939B0161E080919B010E9475
:100C1000FF0246C260E0809135010E9429098823C5
:100C2000C9F080919B0196EF980F933020F486E0F5
:100C300080939B0109C0835083301CF080939B01FB
:100C400003C083E080939B0161E080919B010E943F
:100C5000FF0226C262E0809135010E9429098823A3
:100C600099F180919B01833051F420E04BE951E0F0
:100C700068EC71E080EF91E00E94270111C286309C
:100C800051F420E04BE951E068EC71E08FEE91E027
:100C90000E94860105C28A3051F420E04BE951E000
:100CA00068EC71E08EED91E00E942701F9C18D3072
:100CB00009F0F6C120E04BE951E068EC71E08DED00
:100CC00091E00E948601ECC163E0809135010E94B1
:100CD0002909882399F180919B01833051F421E007
:100CE0004BE951E068EC71E080EF91E00E94270150
:100CF000D7C1863051F421E04BE951E068EC71E056
:100D00008FEE91E00E948601CBC18A3051F421E040
:100D10004BE951E068EC71E08EED91E00E94270113
:100D2000BFC18D3009F0BCC121E04BE951E068EC56
:100D300071E08DED91E00E948601B2C165E0809185
:100D400035010E9429098823B1F189E0EEEEF1E036
:100D5000A5EEB1E001900D928A95E1F789E0ECED06
:100D6000F1E0A7EFB1E001900D928A95E1F7C5EEB1
:100D7000D1E06A8180E090E00E94BD00698181E05D
:100D800090E00E94BD00C7EFD1E06A8182E090E070
:100D90000E94BD00698183E090E00E94BD0081E077
:100DA0008093330110929B0180E00E941E0382E039
:100DB00080939C0175C164E0809135010E942909EE
:100DC000882309F46DC181E08093330110929B0167
:100DD00080E00E941E0382E080939C0161C18091AB
:100DE0003301882309F459C01092330189E0E6EBFE
:100DF000F1E0AEEEB1E001900D928A95E1F789E065
:100E0000EDEAF1E0ACEDB1E001900D928A95E1F7E9
:100E100083E080939B0160E080E00E94FF0285E810
:100E200091E00E940803ECEDF1E081811F928F9325
:100E300082811F928F93EEEEF1E081811F928F935A
:100E400082811F928F938CE491E09F938F9388EC23
:100E500091E09F938F930E945F0B61E080E00E947E
:100E6000FF0289E491E00E94080388EC91E00E946F
:100E7000080389E491E00E94080361E080919B01EE
:100E80000E94FF0281E00E941E038DB79EB70C9660
:100E90000FB6F8949EBF0FBE8DBF61E08091350103
:100EA0000E9429098823C9F080919B019CEF980F2B
:100EB000933020F48AE080939B0109C08D5F8E30CF
:100EC0001CF480939B0103C08DE080939B0161E043
:100ED00080919B010E94FF02E3C060E08091350198
:100EE0000E9429098823C9F080919B0196EF980FF1
:100EF000933020F486E080939B0109C083508330B7
:100F00001CF080939B0103C083E080939B0161E010
:100F100080919B010E94FF02C3C062E08091350175
:100F20000E942909882399F180919B01833051F413
:100F300020E04BE951E068EC71E080EF91E00E9425
:100F40002701AEC0863051F420E04BE951E068EC57
:100F500071E08FEE91E00E948601A2C08A3051F4C8
:100F600020E04BE951E068EC71E08EED91E00E94E9
:100F7000270196C08D3009F093C020E04BE951E085
:100F800068EC71E08DED91E00E94860189C063E01C
:100F9000809135010E942909882399F180919B0154
:100FA000833051F421E04BE951E068EC71E080EFCF
:100FB00091E00E94270174C0863051F421E04BE992
:100FC00051E068EC71E08FEE91E00E94860168C00C
:100FD0008A3051F421E04BE951E068EC71E08EED8C
:100FE00091E00E9427015CC08D3009F059C021E0DA
:100FF0004BE951E068EC71E08DED91E00E948601D3
:101000004FC065E0809135010E9429098823B1F124
:1010100089E0EEEEF1E0A6EBB1E001900D928A9549
:10102000E1F789E0ECEDF1E0ADEAB1E001900D927D
:101030008A95E1F7C6EBD1E06A8184E090E00E94F6
:10104000BD00698185E090E00E94BD00CDEAD1E05D
:101050006A8186E090E00E94BD00698187E090E0AF
:101060000E94BD0081E08093330110929B0180E0DB
:101070000E941E0382E080939C0112C064E0809174
:1010800035010E942909882359F081E080933301BA
:1010900010929B0180E00E941E0382E080939C01DD
:1010A000DF91CF910F9108950E94510A0E94C700CD
:1010B0000E94A2020E94530060E271EA87E090E081
:1010C0000E94D50A0E94D7090E94D4080E94F30802
:1010D000259A249A789480E090E00E94B600C5EEAC
:1010E000D1E08A8381E090E00E94B600898382E0AB
:1010F00090E00E94B600C7EFD1E08A8383E090E0E1
:101100000E94B600898384E090E00E94B600C6EB9E
:10111000D1E08A8385E090E00E94B600898386E072
:1011200090E00E94B600CDEAD1E08A8387E090E0AB
:101130000E94B600898389E0E5EEF1E0AEEEB1E011
:1011400001900D928A95E1F789E0E7EFF1E0ACEDCF
:10115000B1E001900D928A95E1F70E940009809319
:10116000350180919E018823E1F010929E0100E0FC
:1011700028E032E040E052E061E072E082E092E09C
:101180000E94E00940E052E067EF71E085EE91E0F7
:101190000E942A0380939D01882311F02D9A01C09B
:1011A0002D980E946603D9CFE8E6F0E08081826046
:1011B0008083ECE6F0E08081886080833B9808952E
:1011C0001F920F920FB60F9211248F93339B05C07D
:1011D00081E080939F0180939E018F910F900FBEBD
:1011E0000F901F9018958AB18F708AB984B18C7F47
:1011F00084B98BB1806F8BB985B1836085B908954F
:101200008091A701882369F01092A70193B129B1B9
:1012100030E1939FC0011124922F92959F70892BEA
:1012200001C08FEF9091A801992381F01092A8013D
:1012300093B149B150E1959F90011124942F92955B
:101240009F70292B821302C0809337018091370150
:101250000895282F30E020953095E62FA901062E1D
:1012600002C0559547950A94E2F740FF17C0909148
:10127000A101911113C091E09093A1016093A0018D
:10128000809541E050E0062E02C0440F551F0A949D
:10129000E2F7842309F045C081E008959091A00110
:1012A000E92F809541E050E0092E02C0440F551F00
:1012B0000A94E2F7842319F18EEF890F823008F542
:1012C000691321C080E001C081E090913601913026
:1012D00031F4109236011092A3011092A2012091D4
:1012E000A2013091A3012039314000F19091A90170
:1012F0009923E1F01092A90191E08927089580E0F7
:1013000003C080E001C080E002C035952795EA95D2
:10131000E2F720FD0BC01092A10191E090933601FD
:1013200008956250623080F281E0EECF0895982FE8
:1013300092959F70990F292F220F220F920F8F7075
:10134000890F08959DEC899F912D1124969596956E
:10135000969520E1929FA0011124990F292F220F29
:10136000220F920F891B8F70842B0895CF93C82F63
:1013700080ED0E94CD008C2F0E94FE0081ED0E9426
:10138000CD000E941001CF910895CF93DF93D82F05
:10139000C62F80ED0E94CD008D2F0E94FE008C2F65
:1013A0000E94FE000E94F500DF91CF91089560E059
:1013B0008EE00E94C50960E08FE00E94C509089593
:1013C000AF92BF92CF92DF92EF92FF920F93CF93A3
:1013D000DF93EC017B016A01590180E00E94B609AC
:1013E0000E949709F601808381E00E94B6090E945D
:1013F0009709F7018083013081F482E00E94B609E9
:1014000085FB882780F9F501808382E00E94B60978
:101410008F710E949709888307C082E00E94B609F5
:101420008F730E9497098883DF91CF910F91FF906E
:10143000EF90DF90CF90BF90AF9008950F931F93E0
:10144000CF93DF93D82FC62F842F122F0E94A2098B
:10145000682F80E00E94C5098C2F0E94A209682F86
:1014600081E00E94C509013079F4113011F0C0E427
:1014700001C0C0E68D2F0E94A2098F71682F6C2BCE
:1014800082E00E94C50908C08D2F0E94A209682F22
:101490006F7382E00E94C509DF91CF911F910F9178
:1014A000089582E084BD93E095BD99EF97BD809348
:1014B0006E0008951F920F920FB60F9211248F9312
:1014C0009F9381E08093AA018091A6018F5F809312
:1014D000A6018091A4018F5F8093A4018091A50152
:1014E0008F5F8093A5018091A2019091A301019645
:1014F0009093A3018093A2018091A601843629F4E0
:101500001092A60181E08093A9018091A40183300B
:1015100029F41092A40181E08093A7018091A50194
:10152000863029F41092A50181E08093A8019F9153
:101530008F910F900FBE0F901F9018951F920F92D2
:101540000FB60F92112410920A020F900FBE0F9047
:101550001F9018951F920F920FB60F9211248F9320
:10156000EF93FF938091C600809309028091AB01B5
:10157000883098F4E091AB01F0E080910902E55FDA
:10158000FD4F80838091AB018F5F8093AB01E09131
:10159000AB01F0E0E55FFD4F1082FF91EF918F917D
:1015A0000F900FBE0F901F90189522E02093C0005F
:1015B00028ED2093C10026E02093C20061152CE2A3
:1015C000720721E08207910509F451C0C8F4603424
:1015D00028E3720781059105A9F130F4603875425E
:1015E0008105910541F164C061152BE47207810505
:1015F000910579F1611576498105910589F158C008
:10160000603221EA720727E082079105F1F130F498
:101610006039704D8340910589F14AC0603422E4FD
:1016200072072FE082079105B9F1603874488E4146
:101630009105C9F13DC08FEC90E09093C500809377
:10164000C40008958AE890E09093C5008093C40098
:10165000089587E690E09093C5008093C4000895B4
:1016600083E390E09093C5008093C400089589E1DE
:1016700090E09093C5008093C400089587E090E0C7
:101680009093C5008093C400089583E090E0909308
:10169000C5008093C400089581E090E09093C50058
:1016A0008093C40008951092C5001092C40008955C
:1016B0008FEC90E09093C5008093C4000895AEE055
:1016C000B0E0E5E6FBE00C94200E0D891E8986E073
:1016D0008C831A8309838FEF9FE79E838D83AE01EE
:1016E000475E5F4F6F89788DCE0101960E94810B16
:1016F000EF81F885E00FF11F10822E96E4E00C9444
:101700003C0EABE0B0E0E7E8FBE00C94120E6C019D
:101710007B018A01FC0117821682838181FFCCC183
:10172000CE0101963C01F6019381F70193FD85916D
:1017300093FF81917F01882309F4BAC1853239F47E
:1017400093FD859193FF81917F01853229F4B60144
:1017500090E00E94780DE7CF912C212C312CFFE1F5
:10176000F315D8F08B3279F038F4803279F0833287
:10177000A1F4232D20611DC08D3261F0803369F406
:10178000232D216016C0832D8260382EE32DE46066
:101790003E2E2AC0F32DF8601DC037FC2DC020ED71
:1017A000280F2A3040F08E32B9F436FC81C1232D47
:1017B0002064322E19C036FE06C08AE0989E200DA5
:1017C0001124922E11C0EAE02E9E200D1124222E0B
:1017D000F32DF0623F2E08C08C3621F4832D8068F3
:1017E000382E02C0883641F4F70193FD859193FFAE
:1017F00081917F018111B3CF982F9F7D95549330B4
:1018000028F40C5F1F4F9FE399830DC0833631F09E
:10181000833771F0833509F059C021C0F801808108
:1018200089830E5F1F4F88248394912C530113C02A
:101830002801F2E04F0E511CF801A080B18036FE65
:1018400003C0692D70E002C06FEF7FEFC5010E94F9
:101850006D0D4C018201F32DFF773F2E16C028013C
:1018600022E0420E511CF801A080B18036FE03C078
:10187000692D70E002C06FEF7FEFC5010E94620D1D
:101880004C01F32DF0683F2E820133FC1BC0822DEA
:1018900090E088169906B0F4B60180E290E00E94CC
:1018A000780D2A94F4CFF50137FC859137FE8191AC
:1018B0005F01B60190E00E94780D21102A9421E08A
:1018C000821A91088114910471F7E8C0843611F0EE
:1018D000893641F5F80137FE07C060817181828148
:1018E00093810C5F1F4F08C060817181072E000C2F
:1018F000880B990B0E5F1F4FF32DFF763F2E97FF3E
:1019000009C090958095709561957F4F8F4F9F4F3F
:10191000F0683F2E2AE030E0A3010E94B40D882E2B
:10192000861845C0853731F4232D2F7EB22E2AE04C
:1019300030E025C0932D997FB92E8F36C1F018F471
:10194000883579F0B5C0803719F0883721F0B0C0FC
:10195000E92FE061BE2EB4FE0DC0FB2DF460BF2E5A
:1019600009C034FE0AC0292F2660B22E06C028E026
:1019700030E005C020E130E002C020E132E0F801B3
:10198000B7FE07C060817181828193810C5F1F4F18
:1019900006C06081718180E090E00E5F1F4FA3015F
:1019A0000E94B40D882E8618FB2DFF773F2E36FE41
:1019B0000DC0232D2E7FA22E891458F434FE0BC0A7
:1019C00032FC09C0832D8E7EA82E05C0B82CA32C16
:1019D00003C0B82C01C0B92CA4FE0FC0FE01E80D55
:1019E000F11D8081803321F49A2D997EA92E09C0A2
:1019F000A2FE06C0B394B39404C08A2D867809F081
:101A0000B394A3FC11C0A0FE06C0B21488F4280C45
:101A1000922C9B180EC0B21460F4B60180E290E0E4
:101A20000E94780DB394F7CFB21418F42B1802C0AB
:101A3000982C212CA4FE10C0B60180E390E00E94F7
:101A4000780DA2FE17C0A1FC03C088E790E002C099
:101A500088E590E0B6010CC08A2D867859F0A1FE89
:101A600002C08BE201C080E2A7FC8DE2B60190E0EB
:101A70000E94780D891438F4B60180E390E00E944A
:101A8000780D9A94F7CF8A94F301E80DF11D8081C7
:101A9000B60190E00E94780D8110F5CF222009F464
:101AA00042CEB60180E290E00E94780D2A94F6CFF3
:101AB000F6018681978102C08FEF9FEF2B96E2E1BE
:101AC0000C942E0EFC010590615070400110D8F767
:101AD000809590958E0F9F1F0895FC016150704076
:101AE00001900110D8F7809590958E0F9F1F089553
:101AF0000F931F93CF93DF93FB01238121FD03C03D
:101B00008FEF9FEF2CC022FF16C0468157812481A2
:101B100035814217530744F4A081B1819D012F5FA5
:101B20003F4F318320838C93268137812F5F3F4F36
:101B30003783268314C08B01EC01FB010084F185FF
:101B4000E02D0995892BE1F6D80116968D919C918F
:101B50001797019617969C938E931697CE01DF9157
:101B6000CF911F910F910895FA01AA27283051F1C2
:101B7000203181F1E8946F936E7F6E5F7F4F8F4FBE
:101B80009F4FAF4FB1E03ED0B4E03CD0670F781F1D
:101B9000891F9A1FA11D680F791F8A1F911DA11D02
:101BA0006A0F711D811D911DA11D20D009F468943B
:101BB0003F912AE0269F11243019305D3193DEF6E3
:101BC000CF010895462F4770405D4193B3E00FD099
:101BD000C9F7F6CF462F4F70405D4A3318F0495D84
:101BE00031FD4052419302D0A9F7EACFB4E0A69567
:101BF0009795879577956795BA95C9F70097610589
:101C0000710508959B01AC010A2E069457954795DE
:101C100037952795BA95C9F7620F731F841F951FD3
:101C2000A01D08952F923F924F925F926F927F92E4
:101C30008F929F92AF92BF92CF92DF92EF92FF92DC
:101C40000F931F93CF93DF93CDB7DEB7CA1BDB0B88
:101C50000FB6F894DEBF0FBECDBF09942A8839882D
:101C600048885F846E847D848C849B84AA84B98434
:101C7000C884DF80EE80FD800C811B81AA81B98140
:101C8000CE0FD11D0FB6F894DEBF0FBECDBFED0154
:061C90000895F894FFCF57
:101C9600504F4445534920534154202020202000D2
:101CA60000504F4445534920504552494F44202047
:101CB60000004A45444E4F4B5241544E4F2020207F
:101CC6002000000101FF01FF253032643A25303241
:101CD600643A25303264002020202000253032640A
:101CE6003A253032642D2D253032643A253032645F
:101CF600003E00504F4445534156414E4A452053FD
:101D06004154410020205550414C492D2D55474105
:101D1600534920200020204A45444E4F4B524154FF
:061D26004E4F3A202000A0
:00000001FF
