S01E000074696D65725F6B77685F6D657461725F626F696C65722E73726563E8
S11300000C9434000C9451000C9451000C94510045
S11300100C94F8020C9451000C9451000C9451006F
S11300200C9451000C9451000C9451000C94510008
S11300300C9451000C9451000C94CC030C9451007A
S11300400C9451000C9451000C94FF030C94510037
S11300500C94F3030C9461000C9451000C94510023
S11300600C9451000C94510011241FBECFEFD8E022
S1130070DEBFCDBF11E0A0E0B1E0E2E7FEE002C0E8
S113008005900D92A432B107D9F721E0A4E2B1E0C2
S113009001C01D92A034B207E1F70E947C020C94C7
S11300A037070C940000579A1092640080EC8093F8
S11300B07C008EEE80937A0010927B0010922401D3
S11300C008951F920F920FB60F9211248F939F934E
S11300D0EF93FF935F9A80912401811109C080916D
S11300E078009091790090932801809327010CC0A7
S11300F080912401813041F48091780090917900BD
S11301009093260180932501EAE7F0E080818F77C0
S11301108083809124018F5F809324018091240146
S1130120823010F01092240180912401882319F068
S1130130813039F00EC0ECE7F0E080818C7F808361
S113014008C0ECE7F0E080818D7F8083808181604E
S11301508083EAE7F0E08081806C80835F98FF9180
S1130160EF919F918F910F900FBE0F901F90189554
S11301701092B90088E48093B8000895CF93DF9378
S1130180ECEBF0E024EAA9EBB0E0CBEBD0E034E810
S113019044E9208390819923ECF79C91987F9830CF
S11301A011F09031B1F78883308390819923ECF773
S11301B09C91987F903211F0983529F44083908176
S11301C094FDFDCFE6CFDF91CF91089584E980932C
S11301D0BC00ECEBF0E0808184FDFDCF08958093BA
S11301E0BB0084E88093BC00ECEBF0E080818823C2
S11301F0ECF79091B900987F81E0983209F480E09F
S1130200089584E88093BC00ECEBF0E080818823BF
S1130210ECF78091BB000895CF93C82F862F0E94DE
S1130220BE008C2F0E94EF000E94E600CF9108953B
S1130230CF93C82F809133018460809333016EE49F
S11302400E940C0187EC90E00197F1F700C00000D8
S1130250C295C07F809133016EE48C2B0E940C0107
S1130260809133018B7F809333016EE40E940C01F3
S113027087EC90E00197F1F700C00000CF9108955A
S1130280CF93DF93C82FD82FD295DF70611109C0A7
S1130290809133018E7F809333016EE40E940C01C0
S11302A008C0809133018160809333016EE40E9421
S11302B00C018D2F0E9418018C2F0E941801DF91D0
S11302C0CF910895CF93C82F80913301816080939B
S11302D033016EE40E940C018C2F82958F700E9472
S11302E018018C2F0E941801CF91089510923301A8
S11302F00E94B8008FE59AEE0197F1F700C0000064
S113030083E00E9418018FE79EE30197F1F700C094
S1130310000083E00E9418018FE891E00197F1F753
S113032000C0000083E00E9418018FE99FE001975C
S1130330F1F700C0000082E00E9418018FE99FE0FD
S11303400197F1F700C0000060E088E20E944001DC
S11303508FE99FE00197F1F700C0000060E08CE0B6
S11303600E9440018FE99FE00197F1F700C000006F
S113037060E086E00E9440018FE99FE00197F1F779
S113038000C00000809133018860809333016EE4E3
S11303900E940C01809133018D7F809333016EE4C0
S11303A00E940C01089560E081E00E9440018FE604
S11303B097E10197F1F700C0000008950F931F9390
S11303C0CF93FC018081882359F08F01C0E00E9403
S11303D06201CF5FF801EC0FF11D80818111F7CF2D
S11303E0CF911F910F9108950F931F93CF93DF9394
S11303F0CDB7DEB7E2970FB6F894DEBF0FBECDBF20
S1130400FB01DC0112962C91129774E611968C91E3
S113041090E0729F800D911D112490932E01809382
S11304202D016281218130E0769F200D311D112440
S113043030932C0120932B01FA016281418150E019
S1130440769F400D511D112450932A014093290198
S11304505F934F933F932F939F938F9380E091E00B
S11304609F938F938E010F5F1F4F1F930F930E94D3
S11304704D04C8010E943A0483E191E00E943A04C9
S113048080912D0190912E0120912B0130912C010E
S11304900FB6F894DEBF0FBECDBF8217930788F066
S11304A04091290150912A014817590720F04833F7
S11304B089E0580798F081E04217530790F080E0F4
S11304C010C04091290150912A014817590740F062
S11304D081E04217530728F080E003C081E001C0A7
S11304E080E0E2960FB6F894DEBF0FBECDBFDF9179
S11304F0CF911F910F910895CF93DF93CDB7DEB7BE
S1130500AF970FB6F894DEBF0FBECDBF87E18C87DF
S11305109AE39B878D8B8BE38C8B0E94C3030E9491
S1130520B8000E9476010E9453000E942A040E948F
S113053049030E94EC02259A249A789400E020E072
S113054047E369E387E10E9490030F2EF5E1CF2E84
S1130550F1E0DF2EF02D7E012CE1E20EF11C809102
S11305602F018823E1F310922F0100E09E01275F01
S11305703F4FAE014F5F5F4FBE016E5F7F4FCE01B5
S113058003960E94520389811F928F938A811F923E
S11305908F938B811F928F93DF92CF92FF92EF9272
S11305A00E944D040E94D301C7010E94DE01AE01E6
S11305B04F5F5F4FBE016D5E7F4FCE010A960E9472
S11305C0F4010FB6F894DEBF0FBECDBF882311F03F
S11305D02D9AC5CF2D98C3CFE8E6F0E080818260E4
S11305E08083ECE6F0E08081886080833B98089506
S11305F01F920F920FB60F9211248F93339B03C057
S113060081E080932F018F910F900FBE0F901F9068
S11306101895982F92959F70990F292F220F220FCA
S1130620920F8F70890F08959DEC899F912D11244D
S113063096959695969520E1929FA0011124990F85
S1130640292F220F220F920F891B8F70842B08955C
S1130650CF93C82F80ED0E94BE008C2F0E94EF0024
S113066081ED0E94BE000E940101CF910895CF93B5
S1130670DF93D82FC62F80ED0E94BE008D2F0E94DD
S1130680EF008C2F0E94EF000E94E600DF91CF91D3
S1130690089560E08EE00E94370360E08FE00E94DE
S11306A037030895AF92BF92CF92DF92EF92FF92F9
S11306B00F93CF93DF93EC017B016A01590180E032
S11306C00E9428030E940903F601808381E00E94AE
S11306D028030E940903F7018083013081F482E03A
S11306E00E94280385FB882780F9F501808382E036
S11306F00E9428038F710E940903888307C082E047
S11307000E9428038F730E9409038883DF91CF918D
S11307100F91FF90EF90DF90CF90BF90AF9008952E
S11307200F931F93CF93DF93D82FC62F842F122FAD
S11307300E941403682F80E00E9437038C2F0E94CC
S11307401403682F81E00E943703013079F41130DB
S113075011F0C0E401C0C0E68D2F0E9414038F7114
S1130760682F6C2B82E00E94370308C08D2F0E94F3
S11307701403682F6F7382E00E943703DF91CF91D7
S11307801F910F91089582E084BD93E095BD99EF88
S113079097BD80936E0008951F920F920FB60F922B
S11307A011248F939F9381E08093310180913401D0
S11307B09091350101969093350180933401809195
S11307C03401909135010A9739F410923501109251
S11307D0340181E0809330019F918F910F900FBE7F
S11307E00F901F9018951F920F920FB60F9211241D
S11307F0109237010F900FBE0F901F9018951F9203
S11308000F920FB60F9211248F93EF93FF93809161
S1130810C6008093360180913201883098F4E091CB
S11308203201F0E080913601E85CFE4F80838091D4
S113083032018F5F80933201E0913201F0E0E85C95
S1130840FE4F1082FF91EF918F910F900FBE0F908A
S11308501F90189582E08093C00088ED8093C100BA
S113086086E08093C2008FEC90E09093C500809363
S1130870C4000895FC019081992371F03196A6EC8F
S1130880B0E081E09C9380933701909137019111FE
S1130890FCCF91919111F6CF0895AEE0B0E0E3E57D
S11308A0F4E00C940E070D891E8986E08C831A836C
S11308B009838FEF9FE79E838D83AE01475E5F4F71
S11308C06F89788DCE0101960E946F04EF81F885BF
S11308D0E00FF11F10822E96E4E00C942A07ABE09F
S11308E0B0E0E5E7F4E00C9400076C017B018A01B9
S11308F0FC0117821682838181FFCCC1CE0101964F
S11309003C01F6019381F70193FD859193FF819159
S11309107F01882309F4BAC1853239F493FD8591A6
S113092093FF81917F01853229F4B60190E00E9402
S11309306606E7CF912C212C312CFFE1F315D8F07A
S11309408B3279F038F4803279F08332A1F4232D9C
S113095020611DC08D3261F0803369F4232D216044
S113096016C0832D8260382EE32DE4603E2E2AC00B
S1130970F32DF8601DC037FC2DC020ED280F2A3060
S113098040F08E32B9F436FC81C1232D2064322E1E
S113099019C036FE06C08AE0989E200D1124922EBE
S11309A011C0EAE02E9E200D1124222EF32DF062B8
S11309B03F2E08C08C3621F4832D8068382E02C067
S11309C0883641F4F70193FD859193FF81917F016E
S11309D08111B3CF982F9F7D9554933028F40C5FE9
S11309E01F4F9FE399830DC0833631F0833771F035
S11309F0833509F059C021C0F801808189830E5FD5
S1130A001F4F88248394912C530113C02801F2E0D2
S1130A104F0E511CF801A080B18036FE03C0692D31
S1130A2070E002C06FEF7FEFC5010E945B064C01CE
S1130A308201F32DFF773F2E16C0280122E0420EDB
S1130A40511CF801A080B18036FE03C0692D70E00E
S1130A5002C06FEF7FEFC5010E9450064C01F32DD9
S1130A60F0683F2E820133FC1BC0822D90E0881673
S1130A709906B0F4B60180E290E00E9466062A94DA
S1130A80F4CFF50137FC859137FE81915F01B60102
S1130A9090E00E94660621102A9421E0821A9108AF
S1130AA08114910471F7E8C0843611F0893641F558
S1130AB0F80137FE07C060817181828193810C5FE8
S1130AC01F4F08C060817181072E000C880B990BA1
S1130AD00E5F1F4FF32DFF763F2E97FF09C09095B1
S1130AE08095709561957F4F8F4F9F4FF0683F2E93
S1130AF02AE030E0A3010E94A206882E861845C091
S1130B00853731F4232D2F7EB22E2AE030E025C024
S1130B10932D997FB92E8F36C1F018F4883579F06A
S1130B20B5C0803719F0883721F0B0C0E92FE061F3
S1130B30BE2EB4FE0DC0FB2DF460BF2E09C034FEE2
S1130B400AC0292F2660B22E06C028E030E005C076
S1130B5020E130E002C020E132E0F801B7FE07C036
S1130B6060817181828193810C5F1F4F06C0608117
S1130B70718180E090E00E5F1F4FA3010E94A206E6
S1130B80882E8618FB2DFF773F2E36FE0DC0232DB1
S1130B902E7FA22E891458F434FE0BC032FC09C0F7
S1130BA0832D8E7EA82E05C0B82CA32C03C0B82C90
S1130BB001C0B92CA4FE0FC0FE01E80DF11D808117
S1130BC0803321F49A2D997EA92E09C0A2FE06C075
S1130BD0B394B39404C08A2D867809F0B394A3FC2B
S1130BE011C0A0FE06C0B21488F4280C922C9B18E5
S1130BF00EC0B21460F4B60180E290E00E94660672
S1130C00B394F7CFB21418F42B1802C0982C212CEB
S1130C10A4FE10C0B60180E390E00E946606A2FE26
S1130C2017C0A1FC03C088E790E002C088E590E00B
S1130C30B6010CC08A2D867859F0A1FE02C08BE261
S1130C4001C080E2A7FC8DE2B60190E00E94660636
S1130C50891438F4B60180E390E00E9466069A9401
S1130C60F7CF8A94F301E80DF11D8081B60190E07D
S1130C700E9466068110F5CF222009F442CEB60107
S1130C8080E290E00E9466062A94F6CFF6018681FF
S1130C90978102C08FEF9FEF2B96E2E10C941C0723
S1130CA0FC010590615070400110D8F78095909533
S1130CB08E0F9F1F0895FC01615070400190011038
S1130CC0D8F7809590958E0F9F1F08950F931F93CB
S1130CD0CF93DF93FB01238121FD03C08FEF9FEFAF
S1130CE02CC022FF16C046815781248135814217CA
S1130CF0530744F4A081B1819D012F5F3F4F31839D
S1130D0020838C93268137812F5F3F4F378326833F
S1130D1014C08B01EC01FB010084F185E02D0995E1
S1130D20892BE1F6D80116968D919C91179701961F
S1130D3017969C938E931697CE01DF91CF911F91B6
S1130D400F910895FA01AA27283051F1203181F139
S1130D50E8946F936E7F6E5F7F4F8F4F9F4FAF4FBF
S1130D60B1E03ED0B4E03CD0670F781F891F9A1FD2
S1130D70A11D680F791F8A1F911DA11D6A0F711D86
S1130D80811D911DA11D20D009F468943F912AE092
S1130D90269F11243019305D3193DEF6CF0108957A
S1130DA0462F4770405D4193B3E00FD0C9F7F6CFAB
S1130DB0462F4F70405D4A3318F0495D31FD405273
S1130DC0419302D0A9F7EACFB4E0A6959795879509
S1130DD077956795BA95C9F70097610571050895E8
S1130DE09B01AC010A2E0694579547953795279594
S1130DF0BA95C9F7620F731F841F951FA01D08952C
S1130E002F923F924F925F926F927F928F929F9216
S1130E10AF92BF92CF92DF92EF92FF920F931F9304
S1130E20CF93DF93CDB7DEB7CA1BDB0B0FB6F894B5
S1130E30DEBF0FBECDBF09942A88398848885F84F5
S1130E406E847D848C849B84AA84B984C884DF8066
S1130E50EE80FD800C811B81AA81B981CE0FD11D4A
S1130E600FB6F894DEBF0FBECDBFED010895F89420
S1050E70FFCFAE
S1130E724F4E3A2564204F46463A25642054723A2E
S1130E822564000A00253032643A253032643A255A
S1070E923032640092
S9030000FC
