S01E000074696D65725F6B77685F6D657461725F626F696C65722E73726563E8
S11300000C9434000C9451000C9451000C94510045
S11300100C94F8060C9451000C9451000C9451006B
S11300200C9451000C9451000C9451000C94510008
S11300300C9451000C9451000C942C080C94510015
S11300400C9451000C9451000C9473080C945100BE
S11300500C9467080C9461000C9451000C945100AA
S11300600C9451000C94510011241FBECFEFD8E022
S1130070DEBFCDBF11E0A0E0B1E0EEE4F8E102C0E4
S113008005900D92AE36B107D9F721E0AEE6B1E0A6
S113009001C01D92A53CB207E1F70E9479060C94B9
S11300A0250C0C940000579A1092640080EC809305
S11300B07C008EEE80937A0010927B0010926E0189
S11300C008951F920F920FB60F9211248F939F934E
S11300D0EF93FF9380916E01811109C080917800A4
S11300E09091790090937201809371010CC080917A
S11300F06E01813041F48091780090917900909361
S1130100700180936F01EAE7F0E080818F7780834C
S113011080916E018F5F80936E0180916E018230B9
S113012010F010926E0180916E01882319F08130D5
S113013039F00EC0ECE7F0E080818C7F808308C04A
S1130140ECE7F0E080818D7F808380818160808313
S1130150EAE7F0E08081806C8083FF91EF919F91CA
S11301608F910F900FBE0F901F9018951092B900A9
S113017088E48093B8000895CF93DF93ECEBF0E02C
S113018024EAA9EBB0E0CBEBD0E034E844E92083E7
S113019090819923ECF79C91987F983011F09031DD
S11301A0B1F78883308390819923ECF79C91987FF1
S11301B0903211F0983529F44083908194FDFDCF5D
S11301C0E6CFDF91CF91089584E98093BC00ECEBF6
S11301D0F0E0808184FDFDCF08958093BB0084E826
S11301E08093BC00ECEBF0E080818823ECF79091E5
S11301F0B900987F81E0983209F480E0089584E89A
S11302008093BC00ECEBF0E080818823ECF78091D4
S1130210BB000895CF93C82F862F0E94BC008C2F5B
S11302200E94ED000E94E400CF9108950F931F9364
S1130230CF93DF93FC01062F172FEA01211128C069
S1130240808199EE980F963018F08F5F808301C0FB
S1130250108280811F928F9383E291E09F938F930A
S11302601F930F930E943B09888161E081500E9493
S1130270EE02802F912F0E94F70261E088810E9494
S1130280EE020F900F900F900F900F900F9028C0D8
S1130290213031F5808181508A3F10F4808302C07F
S11302A087E1808380811F928F9383E291E09F9303
S11302B08F931F930F930E943B09888161E08150C3
S11302C00E94EE02802F912F0E94F70261E0888144
S11302D00E94EE020F900F900F900F900F900F90CE
S11302E0DF91CF911F910F9108950F931F93CF9397
S11302F0DF93FC01062F172FEA01211128C080810A
S113030095EC980F953018F08F5F808301C01082B0
S113031080811F928F9383E291E09F938F931F9329
S11303200F930E943B09888161E081500E94EE0294
S1130330802F912F0E94F70261E088810E94EE02D3
S11303400F900F900F900F900F900F9028C02130B6
S113035031F5808181508A3F10F4808302C08BE3A1
S1130360808380811F928F9383E291E09F938F9388
S11303701F930F930E943B09888161E081500E9482
S1130380EE02802F912F0E94F70261E088810E9483
S1130390EE020F900F900F900F900F900F90DF913F
S11303A0CF911F910F9108950F931F93CF93DF93D4
S11303B0FC01062F172FEA01211128C0808195EC3A
S11303C0980F953018F08F5F808301C01082808170
S11303D01F928F9383E291E09F938F931F930F93C8
S11303E00E943B09888161E081500E94EE02802FC7
S11303F0912F0E94F70261E088810E94EE020F9023
S11304000F900F900F900F900F9028C0213031F56E
S1130410808181508A3F10F4808302C08BE3808303
S113042080811F928F9383E291E09F938F931F9318
S11304300F930E943B09888161E081500E94EE0283
S1130440802F912F0E94F70261E088810E94EE02C2
S11304500F900F900F900F900F900F90DF91CF910E
S11304601F910F910895CF93C82F809182018460CA
S1130470809382016EE40E940A0187EC90E0019768
S1130480F1F700C00000C295C07F809182016EE444
S11304908C2B0E940A01809182018B7F80938201C0
S11304A06EE40E940A0187EC90E00197F1F700C026
S11304B00000CF910895CF93DF93C82FD82FD29502
S11304C0DF70611109C0809182018E7F8093820167
S11304D06EE40E940A0108C08091820181608093C9
S11304E082016EE40E940A018D2F0E9433028C2F38
S11304F00E943302DF91CF910895CF93C82F80914A
S113050082018160809382016EE40E940A018C2F33
S113051082958F700E9433028C2F0E943302CF91F8
S11305200895109282010E94B6008FE59AEE019719
S1130530F1F700C0000083E00E9433028FE79EE3DE
S11305400197F1F700C0000083E00E9433028FE8B6
S113055091E00197F1F700C0000083E00E943302AC
S11305608FE99FE00197F1F700C0000082E00E944C
S113057033028FE99FE00197F1F700C0000060E0CB
S113058088E20E945B028FE99FE00197F1F700C0C7
S1130590000060E08CE00E945B028FE99FE001971D
S11305A0F1F700C0000060E086E00E945B028FE982
S11305B09FE00197F1F700C00000809182018860FC
S11305C0809382016EE40E940A01809182018D7FF2
S11305D0809382016EE40E940A01089590E4699F69
S11305E0800D112460E080680E945B0208950F93DF
S11305F01F93CF93FC018081882359F08F01C0E0C1
S11306000E947D02CF5FF801EC0FF11D8081811102
S1130610F7CFCF911F910F910895882329F060E0BF
S11306208FE00E945B02089560E08CE00E945B0210
S11306300895FA01DC0112962C91129754E6119652
S11306408C9190E0529F800D911D1124DB01129634
S11306502C91129711966C9170E0529F600D711D50
S113066011244281218130E0549F200D311D112439
S11306708617970768F02817390720F02833B9E060
S11306803B0778F081E02617370770F080E0089583
S11306902817390740F081E02617370728F080E053
S11306A0089581E0089580E008950F93CF93DF9338
S11306B080917401823009F47CC018F4882341F0DD
S11306C014C3833009F4EDC0843009F4F6C10DC3BA
S11306D080917701882309F460C01092770100E0CB
S11306E02AEB31E042EB51E063EB71E084EB91E003
S11306F00E94AF07E2EBF1E080811F928F9381812A
S11307001F928F9382811F928F9384E091E09F9335
S11307108F93C3E8D1E0DF93CF930E943B0960E05D
S113072080E00E94EE0285E391E00E94F702CE0190
S11307300E94F70285E391E00E94F70261E080E005
S11307400E94EE0287E391E00E94F702E9EAF1E0F9
S113075081811F928F9382811F928F93E0EAF1E04F
S113076081811F928F9382811F928F9383E191E005
S11307709F938F93DF93CF930E943B09CE010E94F6
S1130780F70287E391E00E94F7028DB79EB7469681
S11307900FB6F8949EBF0FBE8DBF65E08091020135
S11307A00E944107882309F4A0C282E08093740167
S11307B09CC26091730180E00E94EE0288E291E0A5
S11307C00E94F70261E080917301811160E080E092
S11307D00E94EE0288E391E00E94F70260E081E06B
S11307E00E94EE028AE291E00E94F70261E081E059
S11307F00E94EE028AE391E00E94F70263E0809196
S113080002010E944107882361F0809173018F5F88
S113081082301CF48093730168C281E08093730179
S113082064C262E0809102010E944107882351F072
S11308308091730181501AF08093730156C2109213
S1130840730153C28091730181110DC065E08091E1
S113085002010E944107882331F01092730183E062
S11308608093740142C280917301813069F465E020
S1130870809102010E944107882331F01092730194
S113088084E08093740131C264E0809102010E948B
S11308904107882309F429C210927301109274014C
S11308A024C280910101882309F44BC010920101F4
S11308B089E0E2EBF1E0A7E9B1E001900D928A95BD
S11308C0E1F7E7E9F1E080811F928F9381811F9224
S11308D08F9382811F928F9384E091E09F938F93F3
S11308E083E891E09F938F930E943B0985E0809376
S11308F0730160E080E00E94EE028AE491E00E94CD
S1130900F70261E080E00E94EE0285E391E00E943C
S1130910F70283E891E00E94F70285E391E00E94E8
S1130920F70261E0809173010E94EE0281E00E946F
S11309300D038DB79EB70A960FB6F8949EBF0FBEEF
S11309408DBF61E0809102010E944107882389F0F4
S1130950809173018D5F8C301CF48093730103C00C
S11309608BE08093730161E0809173010E94EE0239
S1130970BCC160E0809102010E944107882389F094
S113098080917301835085301CF08093730103C000
S113099085E08093730161E0809173010E94EE020F
S11309A0A4C162E0809102010E944107882339F1C9
S11309B080917301853051F420E043E751E063E80E
S11309C071E089E991E00E9416018FC1883051F4E9
S11309D020E043E751E063E871E088E991E00E9498
S11309E0750183C18B3009F080C120E043E751E0F9
S11309F063E871E087E991E00E94D40176C163E085
S1130A00809102010E944107882339F1809173018A
S1130A10853051F421E043E751E063E871E089E96E
S1130A2091E00E94160161C1883051F421E043E74E
S1130A3051E063E871E088E991E00E94750155C1D5
S1130A408B3009F052C121E043E751E063E871E0E3
S1130A5087E991E00E94D40148C165E080910201D8
S1130A600E9441078823A9F0E7E9F1E000E020E0D3
S1130A704081618182810E94ED0781E080930101C0
S1130A801092730180E00E940D0382E08093740150
S1130A902CC164E0809102010E944107882309F47B
S1130AA024C181E0809301011092730180E00E94CF
S1130AB00D0382E08093740118C1809100018823A2
S1130AC009F447C01092000183E08093730160E051
S1130AD080E00E94EE028BE591E00E94F702E9EAD1
S1130AE0F1E081811F928F9382811F928F93E0EABC
S1130AF0F1E081811F928F9382811F928F9383E112
S1130B0091E09F938F9383E891E09F938F930E944A
S1130B103B0961E080E00E94EE0287E391E00E94DD
S1130B20F70283E891E00E94F70287E391E00E94D4
S1130B30F70261E0809173010E94EE0281E00E945D
S1130B400D038DB79EB70C960FB6F8949EBF0FBEDB
S1130B508DBF61E0809102010E9441078823C9F0A2
S1130B60809173019CEF980F933020F48AE0809376
S1130B70730109C08D5F8E301CF48093730103C030
S1130B808DE08093730161E0809173010E94EE0215
S1130B90ACC060E0809102010E9441078823C9F043
S1130BA08091730196EF980F933020F486E0809340
S1130BB0730109C0835083301CF08093730103C018
S1130BC083E08093730161E0809173010E94EE02DF
S1130BD08CC062E0809102010E944107882399F150
S1130BE080917301833051F420E043E751E063E8DE
S1130BF071E082EA91E00E94160177C0863051F4D8
S1130C0020E043E751E063E871E081EA91E00E946B
S1130C1075016BC08A3051F420E043E751E063E88A
S1130C2071E08BEA91E00E9416015FC08D3009F0FB
S1130C305CC020E043E751E063E871E08AEA91E0B8
S1130C400E94750152C063E0809102010E94410735
S1130C50882391F180917301833051F421E043E7BB
S1130C6051E063E871E082EA91E00E9416013DC020
S1130C70863051F421E043E751E063E871E081EA12
S1130C8091E00E94750131C08A3051F421E043E7BC
S1130C9051E063E871E08BEA91E00E94160125C0FF
S1130CA08D3019F521E043E751E063E871E08AEA09
S1130CB091E00E94750119C064E0809102010E94D4
S1130CC04107811107C065E0809102010E9441073C
S1130CD0882359F081E0809300011092730180E031
S1130CE00E940D0382E080937401DF91CF910F91F4
S1130CF00895E0EAF1E087E182838EE18183E9EA05
S1130D00F1E085E0828388E281830E9420080E94CA
S1130D10B6000E9491020E94530060E271EA87E0EB
S1130D2090E00E949E080E94A6070E94EC060E9482
S1130D300B07259A249A78940F2EF4E0EF2EF1E015
S1130D40FF2EF02DC3E8D1E00E9418078093020122
S1130D50809176018823E9F11092760100E02AEB74
S1130D6031E042EB51E063EB71E084EB91E00E94EF
S1130D70AF07E2EBF1E080811F928F9381811F9294
S1130D808F9382811F928F93FF92EF92DF93CF9381
S1130D900E943B09CE010E9428098CE691E00E9442
S1130DA0280942EB51E069EA71E080EA91E00E948F
S1130DB01903809375012DB73EB7265F3F4F0FB6D9
S1130DC0F8943EBF0FBE2DBF882311F02D9A01C0A9
S1130DD02D980E945503B8CFE8E6F0E08081826048
S1130DE08083ECE6F0E08081886080833B980895FE
S1130DF01F920F920FB60F9211248F93339B05C04D
S1130E0081E080937701809376018F910F900FBEDC
S1130E100F901F9018958AB18F708AB984B18C7F16
S1130E2084B98BB1806F8BB985B1836085B908951E
S1130E3080917D01882369F010927D0193B129B1DD
S1130E4030E1939FC0011124922F92959F70892BBA
S1130E5001C08FEF90917E01992381F010927E0161
S1130E6093B149B150E1959F90011124942F92952B
S1130E709F70292B821302C0809303018091030188
S1130E80089590E0809590959C01062E02C03595BA
S1130E9027950A94E2F720FF0AC0209179012111D5
S1130EA006C081E0809379016093780108950090F1
S1130EB0780102C0959587950A94E2F780FD04C0F5
S1130EC01092790180E0089580E00895982F92951A
S1130ED09F70990F292F220F220F920F8F70890F65
S1130EE008959DEC899F912D11249695969596953C
S1130EF020E1929FA0011124990F292F220F220F84
S1130F00920F891B8F70842B0895CF93C82F80ED87
S1130F100E94BC008C2F0E94ED0081ED0E94BC0059
S1130F200E94FF00CF910895CF93DF93D82FC62F4F
S1130F3080ED0E94BC008D2F0E94ED008C2F0E943A
S1130F40ED000E94E400DF91CF91089560E08EE00F
S1130F500E94940760E08FE00E9494070895AF9286
S1130F60BF92CF92DF92EF92FF920F93CF93DF93D2
S1130F70EC017B016A01590180E00E9485070E940F
S1130F806607F601808381E00E9485070E94660758
S1130F90F7018083013081F482E00E94850785FB9C
S1130FA0882780F9F501808382E00E9485078F718C
S1130FB00E946607888307C082E00E9485078F73BA
S1130FC00E9466078883DF91CF910F91FF90EF9085
S1130FD0DF90CF90BF90AF9008950F931F93CF935E
S1130FE0DF93D82FC62F842F122F0E947107682FEA
S1130FF080E00E9494078C2F0E947107682F81E083
S11310000E949407013079F4113011F0C0E401C05A
S1131010C0E68D2F0E9471078F71682F6C2B82E0C0
S11310200E94940708C08D2F0E947107682F6F7368
S113103082E00E949407DF91CF911F910F91089550
S113104082E084BD93E095BD99EF97BD80936E00D7
S11310508AB18C608AB908951F920F920FB60F92CD
S113106011248F9381E08093800180917C018F5FB4
S113107080937C0180917A018F5F80937A018091C3
S11310807B018F5F80937B0180917C018F3F29F4EA
S113109010927C0181E080937F0180917A018330FA
S11310A031F410927A0181E080937D014A9A809113
S11310B07B01863031F410927B0181E080937E01C4
S11310C04B9A8F910F900FBE0F901F9018951F92FF
S11310D00F920FB60F9211241092BC010F900FBE05
S11310E00F901F9018951F920F920FB60F92112414
S11310F08F93EF93FF938091C6008093BB018091FF
S11311008101883098F4E0918101F0E08091BB0185
S1131110E354FE4F8083809181018F5F809381012E
S1131120E0918101F0E0E354FE4F1082FF91EF91D2
S11311308F910F900FBE0F901F90189522E020936F
S1131140C00028ED2093C10026E02093C200611561
S11311502CE2720721E08207910509F451C0C8F41A
S1131160603428E3720781059105A9F130F46038F1
S113117075428105910541F164C061152BE4720744
S11311808105910579F1611576498105910589F10A
S113119058C0603221EA720727E082079105F1F115
S11311A030F46039704D8340910589F14AC0603450
S11311B022E472072FE082079105B9F16038744880
S11311C08E419105C9F13DC08FEC90E09093C5002C
S11311D08093C40008958AE890E09093C5008093BA
S11311E0C400089587E690E09093C5008093C400FE
S11311F0089583E390E09093C5008093C40008951C
S113120089E190E09093C5008093C400089587E03D
S113121090E09093C5008093C400089583E090E02B
S11312209093C5008093C400089581E090E090936A
S1131230C5008093C40008951092C5001092C400A4
S113124008958FEC90E09093C5008093C4000895B6
S1131250FC019081992371F03196A6ECB0E081E015
S11312609C938093BC019091BC019111FCCF91910E
S11312709111F6CF0895AEE0B0E0E1E4F9E00C940A
S1131280FC0B0D891E8986E08C831A8309838FEFFA
S11312909FE79E838D83AE01475E5F4F6F89788D94
S11312A0CE0101960E945D09EF81F885E00FF11FE0
S11312B010822E96E4E00C94180CABE0B0E0E3E668
S11312C0F9E00C94EE0B6C017B018A01FC0117829E
S11312D01682838181FFCCC1CE0101963C01F601C7
S11312E09381F70193FD859193FF81917F01882379
S11312F009F4BAC1853239F493FD859193FF819144
S11313007F01853229F4B60190E00E94540BE7CFA7
S1131310912C212C312CFFE1F315D8F08B3279F08C
S113132038F4803279F08332A1F4232D20611DC07A
S11313308D3261F0803369F4232D216016C0832D32
S11313408260382EE32DE4603E2E2AC0F32DF8602F
S11313501DC037FC2DC020ED280F2A3040F08E32FE
S1131360B9F436FC81C1232D2064322E19C036FE17
S113137006C08AE0989E200D1124922E11C0EAE046
S11313802E9E200D1124222EF32DF0623F2E08C034
S11313908C3621F4832D8068382E02C0883641F4BF
S11313A0F70193FD859193FF81917F018111B3CF63
S11313B0982F9F7D9554933028F40C5F1F4F9FE323
S11313C099830DC0833631F0833771F0833509F08A
S11313D059C021C0F801808189830E5F1F4F882482
S11313E08394912C530113C02801F2E04F0E511C39
S11313F0F801A080B18036FE03C0692D70E002C000
S11314006FEF7FEFC5010E94490B4C018201F32D60
S1131410FF773F2E16C0280122E0420E511CF8012E
S1131420A080B18036FE03C0692D70E002C06FEF6A
S11314307FEFC5010E943E0B4C01F32DF0683F2E57
S1131440820133FC1BC0822D90E088169906B0F40B
S1131450B60180E290E00E94540B2A94F4CFF50187
S113146037FC859137FE81915F01B60190E00E94BF
S1131470540B21102A9421E0821A910881149104BA
S113148071F7E8C0843611F0893641F5F80137FE6A
S113149007C060817181828193810C5F1F4F08C0F6
S11314A060817181072E000C880B990B0E5F1F4F12
S11314B0F32DFF763F2E97FF09C090958095709588
S11314C061957F4F8F4F9F4FF0683F2E2AE030E0A9
S11314D0A3010E94900B882E861845C0853731F4ED
S11314E0232D2F7EB22E2AE030E025C0932D997F44
S11314F0B92E8F36C1F018F4883579F0B5C080372D
S113150019F0883721F0B0C0E92FE061BE2EB4FE97
S11315100DC0FB2DF460BF2E09C034FE0AC0292F74
S11315202660B22E06C028E030E005C020E130E09D
S113153002C020E132E0F801B7FE07C0608171818A
S1131540828193810C5F1F4F06C06081718180E0AE
S113155090E00E5F1F4FA3010E94900B882E861807
S1131560FB2DFF773F2E36FE0DC0232D2E7FA22E9E
S1131570891458F434FE0BC032FC09C0832D8E7ECE
S1131580A82E05C0B82CA32C03C0B82C01C0B92CBC
S1131590A4FE0FC0FE01E80DF11D8081803321F40B
S11315A09A2D997EA92E09C0A2FE06C0B394B394C5
S11315B004C08A2D867809F0B394A3FC11C0A0FE60
S11315C006C0B21488F4280C922C9B180EC0B214D6
S11315D060F4B60180E290E00E94540BB394F7CF1C
S11315E0B21418F42B1802C0982C212CA4FE10C09D
S11315F0B60180E390E00E94540BA2FE17C0A1FC48
S113160003C088E790E002C088E590E0B6010CC012
S11316108A2D867859F0A1FE02C08BE201C080E2D7
S1131620A7FC8DE2B60190E00E94540B891438F4B3
S1131630B60180E390E00E94540B9A94F7CF8A9409
S1131640F301E80DF11D8081B60190E00E94540B76
S11316508110F5CF222009F442CEB60180E290E059
S11316600E94540B2A94F6CFF6018681978102C01A
S11316708FEF9FEF2B96E2E10C940A0CFC0105908E
S1131680615070400110D8F7809590958E0F9F1F80
S11316900895FC016150704001900110D8F78095C5
S11316A090958E0F9F1F08950F931F93CF93DF93F1
S11316B0FB01238121FD03C08FEF9FEF2CC022FF8C
S11316C016C046815781248135814217530744F45B
S11316D0A081B1819D012F5F3F4F318320838C9383
S11316E0268137812F5F3F4F3783268314C08B01B8
S11316F0EC01FB010084F185E02D0995892BE1F6CD
S1131700D80116968D919C911797019617969C93E4
S11317108E931697CE01DF91CF911F910F9108956B
S1131720FA01AA27283051F1203181F1E8946F930E
S11317306E7F6E5F7F4F8F4F9F4FAF4FB1E03ED0B4
S1131740B4E03CD0670F781F891F9A1FA11D680F52
S1131750791F8A1F911DA11D6A0F711D811D911D85
S1131760A11D20D009F468943F912AE0269F1124FA
S11317703019305D3193DEF6CF010895462F47705E
S1131780405D4193B3E00FD0C9F7F6CF462F4F70B9
S1131790405D4A3318F0495D31FD4052419302D017
S11317A0A9F7EACFB4E0A6959795879577956795BD
S11317B0BA95C9F700976105710508959B01AC01BD
S11317C00A2E06945795479537952795BA95C9F7E4
S11317D0620F731F841F951FA01D08952F923F92BF
S11317E04F925F926F927F928F929F92AF92BF922D
S11317F0CF92DF92EF92FF920F931F93CF93DF93D9
S1131800CDB7DEB7CA1BDB0B0FB6F894DEBF0FBE35
S1131810CDBF09942A88398848885F846E847D8482
S11318208C849B84AA84B984C884DF80EE80FD8084
S11318300C811B81AA81B981CE0FD11D0FB6F894FA
S1111840DEBF0FBECDBFED010895F894FFCFBB
S113184E0101FFFF253032643A253032643A2530E7
S113185E326400253032643A253032642D2D253021
S113186E32643A25303264003E00504F44455349A9
S113187E20534154202020202000504F44455349EA
S113188E20504552494F44202000504F4445534167
S113189E56414E4A45205341544100202055504153
S11118AE4C492D2D55474153492020000A0076
S9030000FC
