:100000000C94B1000C94CE000C94CE000C94CE0055
:100010000C94740B0C94CE000C94CE000C94CE0077
:100020000C94CE000C94CE000C94CE000C94CE0018
:100030000C94CE000C94CE000C94EE0C0C94CE00DC
:100040000C94CE000C94CE000C94470D0C94CE0072
:100050000C943B0D0C94DD000C94CE000C94CE005F
:100060000C94CE000C94CE0000407A10F35A00A0FD
:10007000724E18090010A5D4E80000E87648170071
:1000800000E40B54020000CA9A3B000000E1F505B1
:10009000000080969800000040420F000000A086FB
:1000A00001000000102700000000E803000000002D
:1000B0006400000000000A000000000001000000D1
:1000C00000002C76D888DC674F0823DFC1DFAE59EB
:1000D000E1B1B796E5E3E453C63AE651997696E87E
:1000E000E6C28426EB898C9B62ED407C6FFCEFBC02
:1000F0009C9F40F2BAA56FA5F490055A2AF75C932D
:100100006B6CF9676DC11BFCE0E40D47FEF520E662
:10011000B500D0ED902E0300943577050080841E45
:10012000080000204E0A000000C80C333333330FA0
:10013000986E12831141EF8D2114893BE65516CF3D
:10014000FEE6DB18D1844B381BF77C1D901DA4BB49
:10015000E424203284725E228100C9F124ECA1E5FE
:100160003D2711241FBECFEFD8E0DEBFCDBF11E089
:10017000A0E0B1E0ECEAFAE202C005900D92A03BEB
:10018000B107D9F722E0A0EBB1E001C01D92A03485
:10019000B207E1F70E94200A0C9454150C94000059
:1001A0001092640080EC80937C008EEE80937A0045
:1001B00010927B001092B10108951F920F920FB61A
:1001C0000F9211248F9381E08093B0018F910F9053
:1001D0000FBE0F901F9018958F929F92AF92BF9273
:1001E000CF92DF92EF92FF928091B001882309F4C1
:1001F00085C01092B0018091B101811109C0809138
:100200007800909179009093C3018093C2010AC055
:10021000813041F480917800909179009093C101F0
:100220008093C0016091C2017091C30180E090E0B1
:100230000E941D0F2AE939E949E650E40E947C0E2C
:100240000E94EE0E6B017C017093BF016093BE01B2
:100250006091C0017091C10180E090E00E941D0F8B
:1002600024E13EEA43E252E40E947C0E4B015C0131
:100270006093BA017093BB018093BC019093BD0160
:10028000B60180E090E00E941D0FA50194010E943C
:10029000AB0F20E030E04AE754E40E947C0E60930C
:1002A000B6017093B7018093B8019093B901EAE762
:1002B000F0E080818F7780838091B1018F5F8093A0
:1002C000B101823018F01092B10105C0882319F0F5
:1002D000813039F00EC0ECE7F0E080818C7F8083C4
:1002E00008C0ECE7F0E080818D7F808380818160B1
:1002F0008083EAE7F0E08081806C8083FF90EF905C
:10030000DF90CF90BF90AF909F908F900895F99914
:10031000FECF92BD81BDF89A80B50895F999FECFC0
:1003200092BD81BD60BDF894FA9AF99A78940895C7
:100330001092B90088E48093B8000895CF93DF93BA
:10034000ECEBF0E024EAA9EBB0E0CBEBD0E034E852
:1003500044E9208390819923ECF79C91987F983011
:1003600011F09031B1F78883308390819923ECF7B5
:100370009C91987F903211F0983529F440839081B8
:1003800094FDFDCFE6CFDF91CF91089584E980936E
:10039000BC00ECEBF0E0808184FDFDCF08958093FC
:1003A000BB0084E88093BC00ECEBF0E08081882304
:1003B000ECF79091B900987F81E0983209F480E0E1
:1003C000089584E88093BC00ECEBF0E08081882302
:1003D000ECF78091BB000895CF93C82F862F0E9421
:1003E0009E018C2F0E94CF010E94C601CF910895DB
:1003F0000F931F93CF93DF93FC01062F172FEA0172
:10040000211128C0808199EE980F963018F08F5FE7
:10041000808301C0108280811F928F938AE291E0D5
:100420009F938F931F930F930E943810888161E0F0
:1004300081500E94DB03802F912F0E94E40361E032
:1004400088810E94DB030F900F900F900F900F9008
:100450000F9028C0213031F5808181508A3F10F4FF
:10046000808302C087E1808380811F928F938AE21C
:1004700091E09F938F931F930F930E943810888170
:1004800061E081500E94DB03802F912F0E94E403E2
:1004900061E088810E94DB030F900F900F900F9016
:1004A0000F900F90DF91CF911F910F9108950F93AF
:1004B0001F93CF93DF93FC01062F172FEA01211121
:1004C00028C0808195EC980F953018F08F5F80835D
:1004D00001C0108280811F928F938AE291E09F93E6
:1004E0008F931F930F930E943810888161E0815091
:1004F0000E94DB03802F912F0E94E40361E088813A
:100500000E94DB030F900F900F900F900F900F90B1
:1005100028C0213031F5808181508A3F10F48083DA
:1005200002C08BE3808380811F928F938AE291E0E7
:100530009F938F931F930F930E943810888161E0DF
:1005400081500E94DB03802F912F0E94E40361E021
:1005500088810E94DB030F900F900F900F900F90F7
:100560000F90DF91CF911F910F9108950F931F93DB
:10057000CF93DF93FC01062F172FEA01211128C02A
:10058000808195EC980F953018F08F5F808301C0C3
:10059000108280811F928F938AE291E09F938F93C4
:1005A0001F930F930E943810888161E081500E9450
:1005B000DB03802F912F0E94E40361E088810E9479
:1005C000DB030F900F900F900F900F900F9028C0AB
:1005D000213031F5808181508A3F10F4808302C040
:1005E0008BE3808380811F928F938AE291E09F93B7
:1005F0008F931F930F930E943810888161E0815080
:100600000E94DB03802F912F0E94E40361E0888128
:100610000E94DB030F900F900F900F900F900F90A0
:10062000DF91CF911F910F910895CF93C82F8091A3
:10063000D90184608093D9016EE40E94EC0187ECBB
:1006400090E00197F1F700C00000C295C07F809153
:10065000D9016EE48C2B0E94EC018091D9018B7F33
:100660008093D9016EE40E94EC0187EC90E0019741
:10067000F1F700C00000CF910895CF93DF93C82F0A
:10068000D82FD295DF70611109C08091D9018E7F7A
:100690008093D9016EE40E94EC0108C08091D901D9
:1006A00081608093D9016EE40E94EC018D2F0E943D
:1006B00015038C2F0E941503DF91CF910895CF93DE
:1006C000C82F8091D90181608093D9016EE40E9486
:1006D000EC018C2F82958F700E9415038C2F0E9445
:1006E0001503CF9108951092D9010E9498018FE5CA
:1006F0009AEE0197F1F700C0000083E00E94150315
:100700008FE79EE30197F1F700C0000083E00E94AD
:1007100015038FE891E00197F1F700C0000083E036
:100720000E9415038FE99FE00197F1F700C00000D8
:1007300082E00E9415038FE99FE00197F1F700C066
:10074000000060E088E20E943D038FE99FE001978E
:10075000F1F700C0000060E08CE00E943D038FE9EB
:100760009FE00197F1F700C0000060E086E00E9482
:100770003D038FE99FE00197F1F700C000008091F1
:10078000D90188608093D9016EE40E94EC018091C8
:10079000D9018D7F8093D9016EE40E94EC01089508
:1007A00060E081E00E943D038FE89AE10197F1F754
:1007B00000C00000089590E4699F800D112460E05E
:1007C00080680E943D0308950F931F93CF93FC010F
:1007D0008081882359F08F01C0E00E945F03CF5FC2
:1007E000F801EC0FF11D80818111F7CFCF911F919E
:1007F0000F910895882329F060E08FE00E943D0367
:10080000089560E08CE00E943D030895FA01DC0148
:1008100012962C91129754E611968C9190E0529F6B
:10082000800D911D1124DB0112962C9112971196C7
:100830006C9170E0529F600D711D112442812181E5
:1008400030E0549F200D311D11248617970768F062
:100850002817390720F02833B9E03B0778F081E00A
:100860002617370770F080E008952817390740F001
:1008700081E02617370728F080E0089581E0089589
:1008800080E008950F931F93CF93DF938091C7016A
:10089000823009F414C130F4882369F0813009F4FE
:1008A00094C0C9C5843009F4FCC208F4EEC1853097
:1008B00009F45AC4C0C580910001882331F0109218
:1008C00000011092CE011092CD018091CD01909146
:1008D000CE0189359B4128F081E08093000180930F
:1008E000C7018091CA01882309F460C01092CA012F
:1008F00000E025E332E04DE252E06EE272E08FE28A
:1009000092E00E94740CEDE2F2E080811F928F93DE
:1009100081811F928F9382811F928F9386E091E055
:100920009F938F93C5EFD1E0DF93CF930E94381050
:1009300060E080E00E94DB0385E191E00E94E40337
:10094000CE010E94E40385E191E00E94E40361E0AE
:1009500080E00E94DB0387E191E00E94E403E4E28F
:10096000F2E081811F928F9382811F928F93E2E147
:10097000F2E081811F928F9382811F928F938AE18F
:1009800091E09F938F93DF93CF930E943810CE0115
:100990000E94E40387E191E00E94E4038DB79EB7D3
:1009A00046960FB6F8949EBF0FBE8DBF65E080914E
:1009B00003010E94BD0B882309F43DC581E08093AB
:1009C000000182E08093C70136C580910001882331
:1009D00009F45AC0109200011092CE011092CD017C
:1009E0000E94D0038091BF018F938091BE018F93AD
:1009F0008FE291E09F938F9385EF91E09F938F9388
:100A00000E94381060E081E00E94DB0385EF91E0F6
:100A10000E94E4036091BA017091BB018091BC0116
:100A20009091BD0105EF11E021E030E044E050E09D
:100A30000E94181061E081E00E94DB03C8010E945F
:100A4000E40380E591E00E94E4036091B6017091B7
:100A5000B7018091B8019091B90121E030E044E004
:100A600050E00E94181060E089E00E94DB03C8019A
:100A70000E94E40384E391E00E94E4030F900F904E
:100A80000F900F900F900F908091CD019091CE011B
:100A9000813A9F4028F081E0809300011092C701C5
:100AA00065E0809103010E94BD0B882309F4C3C453
:100AB00081E08093000182E08093C701BCC4C091B3
:100AC000C6010C2E000CDD0B60E080E00E94DB0311
:100AD0008FE391E00E94E40361E080E00E94DB0389
:100AE00088E191E00E94E40360E081E00E94DB0382
:100AF0008091C60121E18202C001112484589E4FD9
:100B00000E94E4038091C601811115C08091C50146
:100B1000813049F460E08CE00E94DB0387E391E0E0
:100B20000E94E40308C060E08CE00E94DB038CE3D9
:100B300091E00E94E40361E081E00E94DB03C230A7
:100B4000D10509F473C49E012F5F3F4F41E1429FDD
:100B5000C001439F900D112484589E4F0E94E403CE
:100B60002196A9F48091C501813049F461E08CE0BF
:100B70000E94DB0387E391E00E94E40308C061E088
:100B80008CE00E94DB038CE391E00E94E40363E0CD
:100B9000809103010E94BD0B882359F08091C6010A
:100BA0008F5F83301CF48093C60145C41092C60148
:100BB00042C462E0809103010E94BD0B882359F07A
:100BC0008091C60181501AF08093C60134C482E03E
:100BD0008093C60130C48091C601823069F465E01B
:100BE000809103010E94BD0B882331F01092C60151
:100BF00083E08093C7011FC48091C601813069F4EE
:100C000065E0809103010E94BD0B882331F01092B2
:100C1000C60184E08093C7010EC48091C601811192
:100C200027C065E0809103010E94BD0B882331F04D
:100C30001092C60185E08093C701FDC38091C60173
:100C4000811116C060E0809103010E94BD0B8111EB
:100C500007C061E0809103010E94BD0B882341F031
:100C600081E09091C501911180E08093C501E3C3BB
:100C700064E0809103010E94BD0B882309F4DBC36B
:100C80001092C6011092C701D6C380910201882339
:100C900009F44BC01092020189E0EDE2F2E0ACEE03
:100CA000B1E001900D928A95E1F7ECEEF1E08081E0
:100CB0001F928F9381811F928F9382811F928F93B6
:100CC00086E091E09F938F9385EF91E09F938F93C0
:100CD0000E94381085E08093C60160E080E00E94A9
:100CE000DB0381E491E00E94E40361E080E00E9484
:100CF000DB0385E191E00E94E40385EF91E00E942F
:100D0000E40385E191E00E94E40361E08091C60183
:100D10000E94DB0381E00E94FA038DB79EB70A961A
:100D20000FB6F8949EBF0FBE8DBF61E080910301A6
:100D30000E94BD0B882389F08091C6018D5F8C30A5
:100D40001CF48093C60103C08BE08093C60161E070
:100D50008091C6010E94DB036EC360E080910301B5
:100D60000E94BD0B882389F08091C6018350853095
:100D70001CF08093C60103C085E08093C60161E04A
:100D80008091C6010E94DB0356C362E0809103019B
:100D90000E94BD0B882339F18091C601853051F442
:100DA00020E046EC51E065EF71E08EEE91E00E94AC
:100DB000F80141C3883051F420E046EC51E065EF82
:100DC00071E08DEE91E00E94570235C38B3009F03F
:100DD00032C320E046EC51E065EF71E08CEE91E02B
:100DE0000E94B60228C363E0809103010E94BD0BFC
:100DF000882339F18091C601853051F421E046EC19
:100E000051E065EF71E08EEE91E00E94F80113C3AE
:100E1000883051F421E046EC51E065EF71E08DEE51
:100E200091E00E94570207C38B3009F004C321E010
:100E300046EC51E065EF71E08CEE91E00E94B60265
:100E4000FAC265E0809103010E94BD0B8823A9F0DE
:100E5000ECEEF1E000E020E04081618182810E94BF
:100E6000B20C81E0809302011092C60180E00E94E2
:100E7000FA0382E08093C701DEC264E0809103013F
:100E80000E94BD0B882309F4D6C281E08093020141
:100E90001092C60180E00E94FA0382E08093C701AD
:100EA000CAC280910101882309F459C0109201013E
:100EB00089E0E2E1F2E0ABE1B2E001900D928A95C7
:100EC000E1F789E0E4E2F2E0A9E0B2E001900D92FE
:100ED0008A95E1F783E08093C60160E080E00E949C
:100EE000DB0382E591E00E94E403E9E0F2E0818126
:100EF0001F928F9382811F928F93EBE1F2E08181A9
:100F00001F928F9382811F928F938AE191E09F932A
:100F10008F9385EF91E09F938F930E94381061E04B
:100F200080E00E94DB0387E191E00E94E40385EF0B
:100F300091E00E94E40387E191E00E94E40361E014
:100F40008091C6010E94DB0381E00E94FA038DB705
:100F50009EB70C960FB6F8949EBF0FBE8DBF61E092
:100F6000809103010E94BD0B8823C9F08091C601C6
:100F70009CEF980F933020F48AE08093C60109C05B
:100F80008D5F8E301CF48093C60103C08DE080938A
:100F9000C60161E08091C6010E94DB034CC260E0A3
:100FA000809103010E94BD0B8823C9F08091C60186
:100FB00096EF980F933020F486E08093C60109C025
:100FC000835083301CF08093C60103C083E080937C
:100FD000C60161E08091C6010E94DB032CC262E081
:100FE000809103010E94BD0B882399F18091C60175
:100FF000833051F420E046EC51E065EF71E08DE183
:1010000092E00E94F80117C2863051F420E046ECCD
:1010100051E065EF71E08CE192E00E9457020BC253
:101020008A3051F420E046EC51E065EF71E08BE04E
:1010300092E00E94F801FFC18D3009F0FCC120E070
:1010400046EC51E065EF71E08AE092E00E945702C1
:10105000F2C163E0809103010E94BD0B882399F1E6
:101060008091C601833051F421E046EC51E065EFF8
:1010700071E08DE192E00E94F801DDC1863051F40B
:1010800021E046EC51E065EF71E08CE192E00E94D6
:101090005702D1C18A3051F421E046EC51E065EFAE
:1010A00071E08BE092E00E94F801C5C18D3009F03B
:1010B000C2C121E046EC51E065EF71E08AE092E0C8
:1010C0000E945702B8C165E0809103010E94BD0BE8
:1010D0008823B1F189E0EBE1F2E0A2E1B2E0019016
:1010E0000D928A95E1F789E0E9E0F2E0A4E2B2E04E
:1010F00001900D928A95E1F7C2E1D2E06A8180E029
:1011000090E00E948E01698181E090E00E948E0152
:10111000C4E2D2E06A8182E090E00E948E0169819F
:1011200083E090E00E948E0181E0809301011092A3
:10113000C60180E00E94FA0382E08093C7017BC170
:1011400064E0809103010E94BD0B882309F473C100
:1011500081E0809301011092C60180E00E94FA03B1
:1011600082E08093C70167C180910101882309F45F
:1011700059C01092010189E0E3EEF1E0ABE1B2E089
:1011800001900D928A95E1F789E0EAEDF1E0A9E09E
:10119000B2E001900D928A95E1F783E08093C60159
:1011A00060E080E00E94DB0383E691E00E94E403BC
:1011B000E9E0F2E081811F928F9382811F928F93E9
:1011C000EBE1F2E081811F928F9382811F928F93D6
:1011D0008AE191E09F938F9385EF91E09F938F93A6
:1011E0000E94381061E080E00E94DB0387E191E01B
:1011F0000E94E40385EF91E00E94E40387E191E01F
:101200000E94E40361E08091C6010E94DB0381E05B
:101210000E94FA038DB79EB70C960FB6F8949EBF46
:101220000FBE8DBF61E0809103010E94BD0B88233A
:10123000C9F08091C6019CEF980F933020F48AE0AA
:101240008093C60109C08D5F8E301CF48093C60167
:1012500003C08DE08093C60161E08091C6010E94C9
:10126000DB03E9C060E0809103010E94BD0B88238D
:10127000C9F08091C60196EF980F933020F486E074
:101280008093C60109C0835083301CF08093C6014F
:1012900003C083E08093C60161E08091C6010E9493
:1012A000DB03C9C062E0809103010E94BD0B88236B
:1012B00099F18091C601833051F420E046EC51E071
:1012C00065EF71E08DE192E00E94F801B4C08630D4
:1012D00051F420E046EC51E065EF71E08CE192E0E2
:1012E0000E945702A8C08A3051F420E046EC51E039
:1012F00065EF71E08BE092E00E94F8019CC08D30B8
:1013000009F099C020E046EC51E065EF71E08AE019
:1013100092E00E9457028FC063E0809103010E9417
:10132000BD0B882399F18091C601833051F421E0EF
:1013300046EC51E065EF71E08DE192E00E94F8012A
:101340007AC0863051F421E046EC51E065EF71E05F
:101350008CE192E00E9457026EC08A3051F421E085
:1013600046EC51E065EF71E08BE092E00E94F801FD
:1013700062C08D3009F05FC021E046EC51E065EFBE
:1013800071E08AE092E00E94570255C065E08091CA
:1013900003010E94BD0B8823B1F189E0EBE1F2E08B
:1013A000A3EEB1E001900D928A95E1F789E0E9E0C2
:1013B000F2E0AAEDB1E001900D928A95E1F7C3EE5B
:1013C000D1E06A8184E090E00E948E01698185E02D
:1013D00090E00E948E01CAEDD1E06A8186E090E043
:1013E0000E948E01698187E090E00E948E0181E079
:1013F000809301011092C60180E00E94FA0382E00E
:101400008093C70118C064E0809103010E94BD0B66
:10141000882389F081E0809301011092C60180E069
:101420000E94FA0382E08093C70105C08CE791E037
:101430000E94E40397CBDF91CF911F910F91089504
:101440000E94E50C0E9498010E9473030E94D00044
:1014500060E271EA87E090E00E94720D0E946B0CDE
:101460000E94680B0E94870B259A249A789480E04A
:1014700090E00E948701C2E1D2E08A8381E090E09F
:101480000E948701898382E090E00E948701C4E284
:10149000D2E08A8383E090E00E948701898384E020
:1014A00090E00E948701C3EED1E08A8385E090E05E
:1014B0000E948701898386E090E00E948701CAED3F
:1014C000D1E08A8387E090E00E948701898389E0E8
:1014D000E2E1F2E0ABE1B2E001900D928A95E1F732
:1014E00089E0E4E2F2E0A9E0B2E001900D928A9591
:1014F000E1F70F2EF4E7EF2EF1E0FF2EF02DC5EF10
:10150000D1E0DD24D3940E94940B809303010E94C8
:10151000EC008091C3018F938091C2018F93FF9261
:10152000EF92DF93CF930E943810CE010E94FC0D02
:101530008091C1018F938091C0018F93FF92EF92B0
:10154000DF93CF930E943810CE010E94FC0D809152
:10155000BF018F938091BE018F93FF92EF92DF9333
:10156000CF930E943810CE010E94FC0D6091BA0109
:101570007091BB018091BC019091BD018E0121E071
:1015800030E044E050E00E941810CE010E94FC0DB3
:1015900087E191E00E94FC0D6091B6017091B70166
:1015A0008091B8019091B90121E030E044E050E031
:1015B0000E941810CE010E94FC0D87E191E00E946C
:1015C000FC0D6091B2017091B3018091B4019091D2
:1015D000B50121E030E045E050E00E941810CE0156
:1015E0000E94FC0D8AE791E00E94FC0D8091C901E8
:1015F0002DB73EB72E5E3F4F0FB6F8943EBF0FBEDD
:101600002DBF882309F461C01092C90100E025E3D1
:1016100032E04DE252E06EE272E08FE292E00E9430
:10162000740C20E030E041E655E46091B601709121
:10163000B7018091B8019091B9010E947C0E9B0185
:10164000AC016091B2017091B3018091B4019091AD
:10165000B5010E94100E6093B2017093B3018093A4
:10166000B4019093B5018091C5018130D1F44DE270
:1016700052E06AED71E083EE91E00E940604882357
:1016800029F0D092C801D092C4010DC08091C4014C
:10169000882349F01092C8011092C5011092C4012C
:1016A00002C01092C8014DE252E064E272E082E1B1
:1016B00092E00E9406049091C801892B8093C80192
:1016C000882311F02D9A01C02D980E9442041BCF4F
:1016D000E8E6F0E0808182608083ECE6F0E08081E3
:1016E000886080833B9808951F920F920FB60F92E7
:1016F00011248F93339B05C081E08093CA018093AE
:10170000C9018F910F900FBE0F901F9018958AB14D
:101710008F708AB984B18C7F84B98BB1806F8BB99B
:1017200085B1836085B908958091D401882369F0DB
:101730001092D40193B129B130E1939FC0011124DB
:10174000922F92959F70892B01C08FEF9091D501B8
:10175000992381F01092D50193B149B150E1959F41
:1017600090011124942F92959F70292B821302C00F
:1017700080930501809105010895282F30E0209580
:101780003095E62FA901062E02C0559547950A947B
:10179000E2F740FF17C09091CC01911113C091E086
:1017A0009093CC016093CB01809541E050E0062EF0
:1017B00002C0440F551F0A94E2F7842309F045C084
:1017C00081E008959091CB01E92F809541E050E0B0
:1017D000092E02C0440F551F0A94E2F7842319F121
:1017E0008EEF890F823008F5691321C080E001C0B7
:1017F00081E090910401913031F410920401109233
:10180000D0011092CF012091CF013091D001203929
:10181000314000F19091D6019923E1F01092D60168
:1018200091E08927089580E003C080E001C080E056
:1018300002C035952795EA95E2F720FD0BC010927E
:10184000CC0191E09093040108956250623080F2DF
:1018500081E0EECF0895982F92959F70990F292FD0
:10186000220F220F920F8F70890F08959DEC899F90
:10187000912D112496959695969520E1929FA00121
:101880001124990F292F220F220F920F891B8F707D
:10189000842B0895CF93C82F80ED0E949E018C2F3A
:1018A0000E94CF0181ED0E949E010E94E101CF9133
:1018B0000895CF93DF93D82FC62F80ED0E949E010D
:1018C0008D2F0E94CF018C2F0E94CF010E94C60154
:1018D000DF91CF91089560E08EE00E94590C60E0A6
:1018E0008FE00E94590C0895AF92BF92CF92DF9281
:1018F000EF92FF920F93CF93DF93EC017B016A018C
:10190000590180E00E944A0C0E942B0CF601808352
:1019100081E00E944A0C0E942B0CF7018083013069
:1019200081F482E00E944A0C85FB882780F9F5014A
:10193000808382E00E944A0C8F710E942B0C888366
:1019400007C082E00E944A0C8F730E942B0C888390
:10195000DF91CF910F91FF90EF90DF90CF90BF90EC
:10196000AF9008950F931F93CF93DF93D82FC62F77
:10197000842F122F0E94360C682F80E00E94590C91
:101980008C2F0E94360C682F81E00E94590C013088
:1019900079F4113011F0C0E401C0C0E68D2F0E942F
:1019A000360C8F71682F6C2B82E00E94590C08C096
:1019B0008D2F0E94360C682F6F7382E00E94590CA5
:1019C000DF91CF911F910F91089582E084BD93E044
:1019D00095BD99EF97BD80936E0008951F920F9269
:1019E0000FB60F9211248F939F9381E08093D701BC
:1019F0008091D3018F5F8093D3018091D1018F5F5C
:101A00008093D1018091D2018F5F8093D201809128
:101A1000CF019091D00101969093D0018093CF0196
:101A20008091CD019091CE0101969093CE0180934B
:101A3000CD018091D301843629F41092D30181E045
:101A40008093D6018091D101833029F41092D10185
:101A500081E08093D4018091D201863029F41092E4
:101A6000D20181E08093D5019F918F910F900FBE9D
:101A70000F901F9018951F920F920FB60F9211247E
:101A8000109237020F900FBE0F901F9018951F9263
:101A90000F920FB60F9211248F93EF93FF938091C3
:101AA000C600809336028091D801883098F4E09186
:101AB000D801F0E080913602E85CFD4F8083809190
:101AC000D8018F5F8093D801E091D801F0E0E85C05
:101AD000FD4F1082FF91EF918F910F900FBE0F90ED
:101AE0001F90189522E02093C00028ED2093C1009C
:101AF00026E02093C20061152CE2720721E08207E4
:101B0000910509F451C0C8F4603428E372078105D7
:101B10009105A9F130F4603875428105910541F1D4
:101B200064C061152BE472078105910579F1611597
:101B300076498105910589F158C0603221EA720722
:101B400027E082079105F1F130F46039704D834050
:101B5000910589F14AC0603422E472072FE08207C0
:101B60009105B9F1603874488E419105C9F13DC0C5
:101B70008FEC90E09093C5008093C40008958AE8AC
:101B800090E09093C5008093C400089587E690E0AC
:101B90009093C5008093C400089583E390E09093F0
:101BA000C5008093C400089589E190E09093C5003A
:101BB0008093C400089587E090E09093C5008093DF
:101BC000C400089583E090E09093C5008093C40022
:101BD000089581E090E09093C5008093C40008953B
:101BE0001092C5001092C40008958FEC90E090937D
:101BF000C5008093C4000895FC019081992371F081
:101C00003196A6ECB0E081E09C93809337029091EE
:101C100037029111FCCF91919111F6CF0895505850
:101C2000BB27AA270E94270E0C94710F0E94630FF6
:101C300038F00E946A0F20F039F49F3F19F426F41F
:101C40000C94600F0EF4E095E7FB0C945A0FE92F0B
:101C50000E94820F58F3BA1762077307840795072B
:101C600020F079F4A6F50C94A40F0EF4E0950B2E59
:101C7000BA2FA02D0B01B90190010C01CA01A001DE
:101C80001124FF27591B99F0593F50F4503E68F139
:101C90001A16F040A22F232F342F4427585FF3CF7A
:101CA000469537952795A795F0405395C9F77EF44B
:101CB0001F16BA0B620B730B840BBAF09150A1F094
:101CC000FF0FBB1F661F771F881FC2F70EC0BA0F1A
:101CD000621F731F841F48F4879577956795B795A2
:101CE000F7959E3F08F0B0CF9395880F08F099279D
:101CF000EE0F9795879508950E94900E0C94710FA2
:101D00000E946A0F58F00E94630F40F029F45F3F71
:101D100029F00C945A0F51110C94A50F0C94600FDC
:101D20000E94820F68F39923B1F3552391F3951B19
:101D3000550BBB27AA2762177307840738F09F5FEC
:101D40005F4F220F331F441FAA1FA9F335D00E2E59
:101D50003AF0E0E832D091505040E695001CCAF7C6
:101D60002BD0FE2F29D0660F771F881FBB1F261789
:101D700037074807AB07B0E809F0BB0B802DBF0160
:101D8000FF2793585F4F3AF09E3F510578F00C942F
:101D90005A0F0C94A50F5F3FE4F3983ED4F3869559
:101DA00077956795B795F7959F5FC9F7880F911D50
:101DB0009695879597F90895E1E0660F771F881F3C
:101DC000BB1F621773078407BA0720F0621B730BEF
:101DD000840BBA0BEE1F88F7E09508950E948A0FD6
:101DE00088F09F5798F0B92F9927B751B0F0E1F0DC
:101DF000660F771F881F991F1AF0BA95C9F714C08C
:101E0000B13091F00E94A40FB1E008950C94A40F9A
:101E1000672F782F8827B85F39F0B93FCCF38695C4
:101E200077956795B395D9F73EF490958095709521
:101E300061957F4F8F4F9F4F0895E89409C097FB9E
:101E40003EF490958095709561957F4F8F4F9F4F91
:101E50009923A9F0F92F96E9BB279395F6958795D5
:101E600077956795B795F111F8CFFAF4BB0F11F498
:101E700060FF1BC06F5F7F4F8F4F9F4F16C088233F
:101E800011F096E911C0772321F09EE8872F762F75
:101E900005C0662371F096E8862F70E060E02AF0B6
:101EA0009A95660F771F881FDAF7880F96958795A2
:101EB00097F9089597F99F6780E870E060E00895CA
:101EC0009FEF80EC089500240A9416161706180652
:101ED0000906089500240A9412161306140605062E
:101EE0000895092E0394000C11F4882352F0BB0FBF
:101EF00040F4BF2B11F460FF04C06F5F7F4F8F4F22
:101F00009F4F089557FD9058440F551F59F05F3F5C
:101F100071F04795880F97FB991F61F09F3F79F00B
:101F200087950895121613061406551FF2CF46958D
:101F3000F1DF08C0161617061806991FF1CF86950F
:101F40007105610508940895E894BB2766277727F3
:101F5000CB0197F908950E94BE0F0C94710F0E9457
:101F6000630F38F00E946A0F20F0952311F00C9453
:101F70005A0F0C94600F11240C94A50F0E94820F2D
:101F800070F3959FC1F3950F50E0551F629FF001CC
:101F9000729FBB27F00DB11D639FAA27F00DB11DE5
:101FA000AA1F649F6627B00DA11D661F829F22276E
:101FB000B00DA11D621F739FB00DA11D621F839FF5
:101FC000A00D611D221F749F3327A00D611D231FCB
:101FD000849F600D211D822F762F6A2F11249F5719
:101FE00050409AF0F1F088234AF0EE0FFF1FBB1F1C
:101FF000661F771F881F91505040A9F79E3F5105DB
:1020000080F00C945A0F0C94A50F5F3FE4F3983EB8
:10201000D4F3869577956795B795F795E7959F5F84
:10202000C1F7FE2B880F911D9695879597F9089516
:10203000EF920F931F93CF93DF93E80147FD02C008
:1020400034E001C034E1042E000C550B57FF03C0EF
:10205000519541955109E32E022F242FAE010E9484
:102060003B12CE01DF91CF911F910F91EF90089518
:10207000AEE0B0E0EEE3F0E10C942B150D891E8983
:1020800086E08C831A8309838FEF9FE79E838D837D
:10209000AE01475E5F4F6F89788DCE0101960E9439
:1020A0005A10EF81F885E00FF11F10822E96E4E0C0
:1020B0000C944715ABE0B0E0E0E6F0E10C941D15A0
:1020C0006C017B018A01FC0117821682838181FFEA
:1020D000CCC1CE0101963C01F6019381F70193FD3D
:1020E000859193FF81917F01882309F4BAC18532DC
:1020F00039F493FD859193FF81917F01853229F415
:10210000B60190E00E948314E7CF912C212C312C52
:10211000FFE1F315D8F08B3279F038F4803279F0A2
:102120008332A1F4232D20611DC08D3261F08033F4
:1021300069F4232D216016C0832D8260382EE32D93
:10214000E4603E2E2AC0F32DF8601DC037FC2DC080
:1021500020ED280F2A3040F08E32B9F436FC81C1D0
:10216000232D2064322E19C036FE06C08AE0989EC8
:10217000200D1124922E11C0EAE02E9E200D112474
:10218000222EF32DF0623F2E08C08C3621F4832DD1
:102190008068382E02C0883641F4F70193FD85919E
:1021A00093FF81917F018111B3CF982F9F7D95542B
:1021B000933028F40C5F1F4F9FE399830DC0833643
:1021C00031F0833771F0833509F059C021C0F8012F
:1021D000808189830E5F1F4F88248394912C530143
:1021E00013C02801F2E04F0E511CF801A080B1800D
:1021F00036FE03C0692D70E002C06FEF7FEFC501AE
:102200000E9478144C018201F32DFF773F2E16C0F7
:10221000280122E0420E511CF801A080B18036FE58
:1022200003C0692D70E002C06FEF7FEFC5010E940F
:102230006D144C01F32DF0683F2E820133FC1BC05E
:10224000822D90E088169906B0F4B60180E290E005
:102250000E9483142A94F4CFF50137FC859137FE50
:1022600081915F01B60190E00E94831421102A94AD
:1022700021E0821A91088114910471F7E8C0843634
:1022800011F0893641F5F80137FE07C06081718190
:10229000828193810C5F1F4F08C060817181072E7E
:1022A000000C880B990B0E5F1F4FF32DFF763F2E0E
:1022B00097FF09C090958095709561957F4F8F4FDE
:1022C0009F4FF0683F2E2AE030E0A3010E94BF1428
:1022D000882E861845C0853731F4232D2F7EB22EE7
:1022E0002AE030E025C0932D997FB92E8F36C1F0BA
:1022F00018F4883579F0B5C0803719F0883721F0A7
:10230000B0C0E92FE061BE2EB4FE0DC0FB2DF4601D
:10231000BF2E09C034FE0AC0292F2660B22E06C087
:1023200028E030E005C020E130E002C020E132E0EA
:10233000F801B7FE07C060817181828193810C5FD3
:102340001F4F06C06081718180E090E00E5F1F4FDB
:10235000A3010E94BF14882E8618FB2DFF773F2E05
:1023600036FE0DC0232D2E7FA22E891458F434FE84
:102370000BC032FC09C0832D8E7EA82E05C0B82C60
:10238000A32C03C0B82C01C0B92CA4FE0FC0FE01C1
:10239000E80DF11D8081803321F49A2D997EA92EBC
:1023A00009C0A2FE06C0B394B39404C08A2D8678F7
:1023B00009F0B394A3FC11C0A0FE06C0B21488F4C7
:1023C000280C922C9B180EC0B21460F4B60180E267
:1023D00090E00E948314B394F7CFB21418F42B1832
:1023E00002C0982C212CA4FE10C0B60180E390E01E
:1023F0000E948314A2FE17C0A1FC03C088E790E0EE
:1024000002C088E590E0B6010CC08A2D867859F0AC
:10241000A1FE02C08BE201C080E2A7FC8DE2B60102
:1024200090E00E948314891438F4B60180E390E0B0
:102430000E9483149A94F7CF8A94F301E80DF11D5A
:102440008081B60190E00E9483148110F5CF222094
:1024500009F442CEB60180E290E00E9483142A94EF
:10246000F6CFF6018681978102C08FEF9FEF2B9602
:10247000E2E10C943915A9E0B0E0E1E4F2E10C945A
:1024800023156A01122FB02E2BE3201720F0FF2412
:10249000F394F00E02C02CE3F22E0F2D27E0AE01D4
:1024A0004F5F5F4F0E949513BC014981842F897053
:1024B000813031F0E1FC06C0E0FE06C090E205C0CC
:1024C0009DE203C09BE201C090E05E2D507143FF8E
:1024D0003CC0911102C083E001C084E0811718F470
:1024E000212F281B01C020E051110BC0F601822FC3
:1024F00030E2882319F031938150FBCFC20ED11CFA
:1025000020E0992329F0D6019C93F60131966F01C2
:10251000C6010396E2FE0AC03EE4D6013C9341E4C4
:1025200011964C93119712963C9306C03EE6F60125
:10253000308341E641833283FC01322F40E2332372
:1025400009F442C041933150FACF42FF44C0911187
:1025500002C083E001C084E0811718F4212F281BFA
:1025600001C020E051110BC0F601822F30E2882318
:1025700019F031938150FBCFC20ED11C20E099237A
:1025800029F0D6019C93F60131966F01C60103969E
:10259000E2FE0BC039E4D6013C933EE411963C9335
:1025A000119736E412963C9307C039E6F601308362
:1025B0003EE6318336E63283FC01322F40E233239C
:1025C00019F041933150FBCFFC01E20FF11D108255
:1025D0008EEF9FEFA6C021E030E0911102C020E015
:1025E00030E0161617061CF4FB01319602C0E1E03C
:1025F000F0E02E0F3F1FBB2021F0EB2DF0E03196D5
:1026000002C0E0E0F0E02E0F3F1FE12FF0E02E17B8
:102610003F071CF4121B212F01C020E08E2D887172
:1026200059F4F601822F30E2882319F0319381505A
:10263000FBCFC20ED11C20E0992329F0D6019C9338
:10264000F60131966F0151110BC0F601822F90E314
:10265000882319F091938150FBCFC20ED11C20E04A
:102660000F2D060F9A81342F307144FF03C0913330
:1026700009F40150101624F4093018F008E001C0E4
:1026800001E0AB0177FF02C040E050E0FB01E41B3A
:10269000F50BA1E0B0E0AC0FBD1FEA0FFB1F8EE20F
:1026A000A82E4B01801A91080B2D10E01195019571
:1026B00011094F3FBFEF5B0721F4D601AC92119691
:1026C0006D01641775072CF08416950614F481814A
:1026D00001C080E3415051093196D60111967D0128
:1026E0004017510724F0D6018C936701E2CF64179D
:1026F000750739F4963320F4953319F4311101C07C
:1027000081E3F6018083F701822F90E2882319F09C
:1027100091938150FBCFF701E20FF11D108280E011
:1027200090E02996ECE00C943F15283008F027E063
:102730003327DA01990F311D87FD916000966105FD
:10274000710539F432602E5F3D9330E32A95E1F74D
:1027500008959F3F30F080387105610509F03C5FB6
:102760003C5F3D93913008F08068911DDF93CF93DB
:102770001F930F93FF92EF92192F987F9695E92F51
:1027800096959695E90FFF27EE53FF4F992733272C
:10279000EE24FF24A701E70105900894079428F48C
:1027A000360FE71EF81E491F511D660F771F881F41
:1027B000991F0694A1F70590079428F4E70EF81ED8
:1027C000491F561FC11D770F881F991F661F06944A
:1027D000A1F70590079428F4F80E491F561FC71F4C
:1027E000D11D880F991F661F771F0694A1F70590CA
:1027F000079420F4490F561FC71FD81F990F661F53
:10280000771F881F0694A9F784911095177041F0DF
:10281000D695C79557954795F794E7941A95C1F7BC
:10282000E8E6F0E0689415901591359165919591E1
:1028300005907FE27395E118F10A430B560BC90B23
:10284000D009C0F7E10CF11E431F561FC91FD01D50
:102850007EF4703311F48A95E6CFE894015030F09D
:10286000080F0AF40027021708F4202F2395022FDF
:102870007A3328F079E37D932A95E9F710C07D93A8
:102880002A9589F606949795679537951795179425
:10289000E118F10A430B560BC90BD00998F02395A8
:1028A0007E9173957A3308F070E37C932013B8F728
:1028B0007E9170617D9330F0839571E37D9370E339
:1028C0002A95E1F71124EF90FF900F911F91CF917E
:1028D000DF91992787FD90950895FC01059061503F
:1028E00070400110D8F7809590958E0F9F1F089526
:1028F000FC016150704001900110D8F780959095CF
:102900008E0F9F1F08950F931F93CF93DF93FB01AB
:10291000238121FD03C08FEF9FEF2CC022FF16C043
:1029200046815781248135814217530744F4A081A1
:10293000B1819D012F5F3F4F318320838C9326818E
:1029400037812F5F3F4F3783268314C08B01EC0103
:10295000FB010084F185E02D0995892BE1F6D80172
:1029600016968D919C911797019617969C938E932E
:102970001697CE01DF91CF911F910F910895FA0123
:10298000AA27283051F1203181F1E8946F936E7FAE
:102990006E5F7F4F8F4F9F4FAF4FB1E03ED0B4E09F
:1029A0003CD0670F781F891F9A1FA11D680F791FE0
:1029B0008A1F911DA11D6A0F711D811D911DA11DF1
:1029C00020D009F468943F912AE0269F1124301901
:1029D000305D3193DEF6CF010895462F4770405D9C
:1029E0004193B3E00FD0C9F7F6CF462F4F70405D4B
:1029F0004A3318F0495D31FD4052419302D0A9F7A6
:102A0000EACFB4E0A6959795879577956795BA959F
:102A1000C9F700976105710508959B01AC010A2E65
:102A200006945795479537952795BA95C9F7620F3C
:102A3000731F841F951FA01D08952F923F924F92E0
:102A40005F926F927F928F929F92AF92BF92CF923E
:102A5000DF92EF92FF920F931F93CF93DF93CDB747
:102A6000DEB7CA1BDB0B0FB6F894DEBF0FBECDBFBF
:102A700009942A88398848885F846E847D848C8490
:102A80009B84AA84B984C884DF80EE80FD800C8199
:102A90001B81AA81B981CE0FD11D0FB6F894DEBF7C
:0C2AA0000FBECDBFED010895F894FFCFEC
:102AAC00010101FF01FF253032643A253032643ACE
:102ABC0025303264002020202000253032643A2555
:102ACC003032642D2D253032643A253032640025A5
:102ADC00346456006B57003C4F4E3E003C4F463E14
:102AEC0000504F4445534156414E4A4520534154A2
:102AFC00410020205550414C492D2D5547415349FB
:102B0C0020200020204A45444E4F4B5241544E4FFA
:102B1C003A2020002534642020000A004A45444E07
:102B2C004F4B5241544E4F000000000000504F4498
:102B3C0045534920504552494F4420200000504FE6
:102B4C0044455349205341542020202020000000AC
:00000001FF
