S01E000074696D65725F6B77685F6D657461725F626F696C65722E73726563E8
S11300000C9434000C9451000C9451000C94510045
S11300100C9468070C9451000C9451000C945100FA
S11300200C9451000C9451000C9451000C94510008
S11300300C9451000C9451000C94E2080C9451005F
S11300400C9451000C9451000C9432090C945100FE
S11300500C9426090C9461000C9451000C945100EA
S11300600C9451000C94510011241FBECFEFD8E022
S1130070DEBFCDBF11E0A0E0B1E0E6EAF9E102C0E5
S113008005900D92AE36B107D9F721E0AEE6B1E0A6
S113009001C01D92A93DB207E1F70E94D3060C945A
S11300A0D10C0C940000579A1092640080EC809359
S11300B07C008EEE80937A0010927B0010926E0189
S11300C008951F920F920FB60F9211248F939F934E
S11300D0EF93FF9380916E01811109C080917800A4
S11300E09091790090937201809371010CC080917A
S11300F06E01813041F48091780090917900909361
S1130100700180936F01EAE7F0E080818F7780834C
S113011080916E018F5F80936E0180916E018230B9
S113012010F010926E0180916E01882319F08130D5
S113013039F00EC0ECE7F0E080818C7F808308C04A
S1130140ECE7F0E080818D7F808380818160808313
S1130150EAE7F0E08081806C8083FF91EF919F91CA
S11301608F910F900FBE0F901F901895F999FECFA5
S113017092BD81BDF89A80B50895F999FECF92BDDC
S113018081BD60BDF894FA9AF99A78940895109212
S1130190B90088E48093B8000895CF93DF93ECEB23
S11301A0F0E024EAA9EBB0E0CBEBD0E034E844E99A
S11301B0208390819923ECF79C91987F983011F0DB
S11301C09031B1F78883308390819923ECF79C9127
S11301D0987F903211F0983529F44083908194FDF2
S11301E0FDCFE6CFDF91CF91089584E98093BC00E1
S11301F0ECEBF0E0808184FDFDCF08958093BB009B
S113020084E88093BC00ECEBF0E080818823ECF779
S11302109091B900987F81E0983209F480E00895C4
S113022084E88093BC00ECEBF0E080818823ECF759
S11302308091BB000895CF93C82F862F0E94CD00D4
S11302408C2F0E94FE000E94F500CF9108950F9319
S11302501F93CF93DF93FC01062F172FEA0121117F
S113026028C0808199EE980F963018F08F5F8083B4
S113027001C0108280811F928F9384E291E09F934A
S11302808F931F930F930E94E709888161E0815047
S11302900E94FF02802F912F0E94080361E0888151
S11302A00E94FF020F900F900F900F900F900F90ED
S11302B028C0213031F5808181508A3F10F4808339
S11302C002C087E1808380811F928F9384E291E052
S11302D09F938F931F930F930E94E709888161E096
S11302E081500E94FF02802F912F0E94080361E039
S11302F088810E94FF020F900F900F900F900F9033
S11303000F90DF91CF911F910F9108950F931F9339
S1130310CF93DF93FC01062F172FEA01211128C088
S1130320808195EC980F953018F08F5F808301C021
S1130330108280811F928F9384E291E09F938F9328
S11303401F930F930E94E709888161E081500E9406
S1130350FF02802F912F0E94080361E088810E9490
S1130360FF020F900F900F900F900F900F9028C0E6
S1130370213031F5808181508A3F10F4808302C09E
S11303808BE3808380811F928F9384E291E09F931B
S11303908F931F930F930E94E709888161E0815036
S11303A00E94FF02802F912F0E94080361E0888140
S11303B00E94FF020F900F900F900F900F900F90DC
S11303C0DF91CF911F910F9108950F931F93CF93B6
S11303D0DF93FC01062F172FEA01211128C0808129
S11303E095EC980F953018F08F5F808301C01082D0
S11303F080811F928F9384E291E09F938F931F9348
S11304000F930E94E709888161E081500E94FF02F6
S1130410802F912F0E94080361E088810E94FF02CF
S11304200F900F900F900F900F900F9028C02130D5
S113043031F5808181508A3F10F4808302C08BE3C0
S1130440808380811F928F9384E291E09F938F93A6
S11304501F930F930E94E709888161E081500E94F5
S1130460FF02802F912F0E94080361E088810E947F
S1130470FF020F900F900F900F900F900F90DF914D
S1130480CF911F910F910895CF93C82F809184012C
S11304908460809384016EE40E941B0187EC90E0E9
S11304A00197F1F700C00000C295C07F80918401DC
S11304B06EE48C2B0E941B01809184018B7F8093BE
S11304C084016EE40E941B0187EC90E00197F1F730
S11304D000C00000CF910895CF93DF93C82FD82F89
S11304E0D295DF70611109C0809184018E7F809361
S11304F084016EE40E941B0108C080918401816024
S1130500809384016EE40E941B018D2F0E9444029B
S11305108C2F0E944402DF91CF910895CF93C82F6E
S1130520809184018160809384016EE40E941B01A8
S11305308C2F82958F700E9444028C2F0E9444025B
S1130540CF910895109284010E94C7008FE59AEE1E
S11305500197F1F700C0000083E00E9444028FE796
S11305609EE30197F1F700C0000083E00E9444027B
S11305708FE891E00197F1F700C0000083E00E944A
S113058044028FE99FE00197F1F700C0000082E088
S11305900E9444028FE99FE00197F1F700C0000038
S11305A060E088E20E946C028FE99FE00197F1F716
S11305B000C0000060E08CE00E946C028FE99FE0C4
S11305C00197F1F700C0000060E086E00E946C0231
S11305D08FE99FE00197F1F700C00000809184014A
S11305E08860809384016EE40E941B0180918401E1
S11305F08D7F809384016EE40E941B01089590E432
S1130600699F800D112460E080680E946C02089547
S11306100F931F93CF93FC018081882359F08F019E
S1130620C0E00E948E02CF5FF801EC0FF11D8081C3
S11306308111F7CFCF911F910F910895882329F04D
S113064060E08FE00E946C02089560E08CE00E94FC
S11306506C020895FA01DC0112962C91129754E66B
S113066011968C9190E0529F800D911D1124DB0115
S113067012962C91129711966C9170E0529F600D16
S1130680711D11244281218130E0549F200D311DC0
S113069011248617970768F02817390720F02833A4
S11306A0B9E03B0778F081E02617370770F080E067
S11306B008952817390740F081E02617370728F0F6
S11306C080E0089581E0089580E008950F93CF932A
S11306D0DF9380917401823009F47CC018F488237C
S11306E041F05DC3833009F4EDC0843009F4F6C1F0
S11306F056C380917701882309F460C01092770172
S113070000E02EEC31E046EC51E067EC71E088EC5F
S113071091E00E946808E6ECF1E080811F928F93DB
S113072081811F928F9382811F928F9385E091E044
S11307309F938F93CEE8D1E0DF93CF930E94E70994
S113074060E080E00E94FF0286E391E00E940803DB
S1130750CE010E94080386E391E00E94080361E051
S113076080E00E94FF0288E391E00E940803EDEB21
S1130770F1E081811F928F9382811F928F93EBEA24
S1130780F1E081811F928F9382811F928F9384E184
S113079091E09F938F93DF93CF930E94E709CE015B
S11307A00E94080388E391E00E9408038DB79EB776
S11307B046960FB6F8949EBF0FBE8DBF65E080913C
S11307C002010E94B107882309F4E9C282E0809300
S11307D07401E5C26091730180E00E94FF0289E226
S11307E091E00E94080361E080917301811160E04F
S11307F080E00E94FF0289E391E00E94080360E028
S113080081E00E94FF028BE291E00E94080361E014
S113081081E00E94FF028BE391E00E94080363E001
S1130820809102010E94B107882361F080917301D5
S11308308F5F82301CF480937301B1C281E0809396
S11308407301ADC262E0809102010E94B107882366
S113085051F08091730181501AF0809373019FC20B
S1130860109273019CC28091730181110DC065E0E7
S1130870809102010E94B107882331F01092730124
S113088083E0809374018BC280917301813069F499
S113089065E0809102010E94B107882331F0109233
S11308A0730184E0809374017AC264E08091020150
S11308B00E94B107882309F472C210927301109246
S11308C074016DC280910101882309F44BC0109218
S11308D0010189E0E6ECF1E0A5E8B1E001900D92B8
S11308E08A95E1F7E5E8F1E080811F928F93818199
S11308F01F928F9382811F928F9385E091E09F9343
S11309008F938EE891E09F938F930E94E70985E08F
S11309108093730160E080E00E94FF028BE491E029
S11309200E94080361E080E00E94FF0286E391E0F8
S11309300E9408038EE891E00E94080386E391E098
S11309400E94080361E0809173010E94FF0281E02C
S11309500E941E038DB79EB70A960FB6F8949EBFE9
S11309600FBE8DBF61E0809102010E94B107882310
S113097089F0809173018D5F8C301CF48093730136
S113098003C08BE08093730161E0809173010E9446
S1130990FF0205C260E0809102010E94B107882332
S11309A089F080917301835085301CF0809373012A
S11309B003C085E08093730161E0809173010E941C
S11309C0FF02EDC162E0809102010E94B107882319
S11309D039F180917301853051F420E043E751E00F
S11309E06EE871E087E891E00E942701D8C1883061
S11309F051F420E043E751E06EE871E086E891E0CD
S1130A000E948601CCC18B3009F0C9C120E043E7C4
S1130A1051E06EE871E085E891E00E94E501BFC114
S1130A2063E0809102010E94B107882339F180912B
S1130A307301853051F421E043E751E06EE871E041
S1130A4087E891E00E942701AAC1883051F421E08F
S1130A5043E751E06EE871E086E891E00E94860188
S1130A609EC18B3009F09BC121E043E751E06EE861
S1130A7071E085E891E00E94E50191C165E0809113
S1130A8002010E94B1078823A9F0E5E8F1E000E043
S1130A9020E04081618182810E94A60881E08093E8
S1130AA001011092730180E00E941E0382E0809392
S1130AB0740175C164E0809102010E94B10788232A
S1130AC009F46DC181E0809301011092730180E00B
S1130AD00E941E0382E08093740161C18091000131
S1130AE0882309F459C01092000189E0EBEAF1E08F
S1130AF0A4EBB1E001900D928A95E1F789E0EDEB6A
S1130B00F1E0A2EAB1E001900D928A95E1F783E069
S1130B108093730160E080E00E94FF028CE591E025
S1130B200E940803E2EAF1E081811F928F9382819F
S1130B301F928F93E4EBF1E081811F928F93828166
S1130B401F928F9384E191E09F938F938EE891E0BD
S1130B509F938F930E94E70961E080E00E94FF0267
S1130B6088E391E00E9408038EE891E00E94080364
S1130B7088E391E00E94080361E0809173010E9480
S1130B80FF0281E00E941E038DB79EB70C960FB63C
S1130B90F8949EBF0FBE8DBF61E0809102010E9458
S1130BA0B1078823C9F0809173019CEF980F9330AB
S1130BB020F48AE08093730109C08D5F8E301CF4A9
S1130BC08093730103C08DE08093730161E0809191
S1130BD073010E94FF02E3C060E0809102010E9461
S1130BE0B1078823C9F08091730196EF980F933071
S1130BF020F486E08093730109C0835083301CF095
S1130C008093730103C083E08093730161E080915A
S1130C1073010E94FF02C3C062E0809102010E943E
S1130C20B107882399F180917301833051F420E056
S1130C3043E751E06EE871E086EB91E00E94270102
S1130C40AEC0863051F420E043E751E06EE871E035
S1130C5085EB91E00E948601A2C08A3051F420E025
S1130C6043E751E06EE871E084EA91E00E942701D5
S1130C7096C08D3009F093C020E043E751E06EE860
S1130C8071E083EA91E00E94860189C063E080916B
S1130C9002010E94B107882399F180917301833086
S1130CA051F421E043E751E06EE871E086EB91E016
S1130CB00E94270174C0863051F421E043E751E0DB
S1130CC06EE871E085EB91E00E94860168C08A308D
S1130CD051F421E043E751E06EE871E084EA91E0E9
S1130CE00E9427015CC08D3009F059C021E043E720
S1130CF051E06EE871E083EA91E00E9486014FC002
S1130D0065E0809102010E94B1078823B1F189E076
S1130D10E4EBF1E0ABEAB1E001900D928A95E1F7E2
S1130D2089E0E2EAF1E0ADEBB1E001900D928A9541
S1130D30E1F7CBEAD1E06A8180E090E00E94BD0057
S1130D40698181E090E00E94BD00CDEBD1E06A8131
S1130D5082E090E00E94BD00698183E090E00E94FF
S1130D60BD0081E0809300011092730180E00E9435
S1130D701E0382E08093740112C064E0809102013A
S1130D800E94B107882359F081E0809300011092FA
S1130D90730180E00E941E0382E080937401DF915E
S1130DA0CF910F9108950E94D9080E94C7000E9414
S1130DB0A2020E94530060E271EA87E090E00E9480
S1130DC05D090E945F080E945C070E947B07259AC8
S1130DD0249A789480E090E00E94B600CBEAD1E0B7
S1130DE08A8381E090E00E94B600898382E090E0EB
S1130DF00E94B600CDEBD1E08A8383E090E00E94AC
S1130E00B600898389E0EBEAF1E0A4EBB1E001905C
S1130E100D928A95E1F789E0FE01A2EAB1E0019022
S1130E200D928A95E1F70F2EF5E0EF2EF1E0FF2EFB
S1130E30F02DCEE8D1E00E948807809302018091D2
S1130E4076018823B1F11092760100E02EEC31E0B6
S1130E5046EC51E067EC71E088EC91E00E94680890
S1130E60E6ECF1E080811F928F9381811F928F9332
S1130E7082811F928F93FF92EF92DF93CF930E9410
S1130E80E70946EC51E06DEB71E08BEA91E00E94DA
S1130E902A03809375012DB73EB7265F3F4F0FB6E7
S1130EA0F8943EBF0FBE2DBF882311F02D9A01C0C8
S1130EB02D980E946603BFCFE8E6F0E0808182604F
S1130EC08083ECE6F0E08081886080833B9808951D
S1130ED01F920F920FB60F9211248F93339B05C06C
S1130EE081E080937701809376018F910F900FBEFC
S1130EF00F901F9018958AB18F708AB984B18C7F36
S1130F0084B98BB1806F8BB985B1836085B908953D
S1130F1080917F01882369F010927F0193B129B1F8
S1130F2030E1939FC0011124922F92959F70892BD9
S1130F3001C08FEF90918001992381F0109280017C
S1130F4093B149B150E1959F90011124942F92954A
S1130F509F70292B821302C08093040180910401A5
S1130F600895282F30E020953095E62FA901062E0C
S1130F7002C0559547950A94E2F740FF17C0909137
S1130F807901911113C091E09093790160937801F4
S1130F90809541E050E0062E02C0440F551F0A948C
S1130FA0E2F7842309F045C081E008959091780127
S1130FB0E92F809541E050E0092E02C0440F551FEF
S1130FC00A94E2F7842319F18EEF890F823008F531
S1130FD0691321C080E001C081E090910301913048
S1130FE031F41092030110927B0110927A01209146
S1130FF07A0130917B012039314000F190918101D7
S11310009923E1F01092810191E08927089580E00D
S113101003C080E001C080E002C035952795EA95C1
S1131020E2F720FD0BC01092790191E09093030147
S113103008956250623080F281E0EECF0895982FD7
S113104092959F70990F292F220F220F920F8F7064
S1131050890F08959DEC899F912D1124969596955D
S1131060969520E1929FA0011124990F292F220F18
S1131070220F920F891B8F70842B0895CF93C82F52
S113108080ED0E94CD008C2F0E94FE0081ED0E9415
S1131090CD000E941001CF910895CF93DF93D82FF4
S11310A0C62F80ED0E94CD008D2F0E94FE008C2F54
S11310B00E94FE000E94F500DF91CF91089560E048
S11310C08EE00E944D0860E08FE00E944D08089574
S11310D0AF92BF92CF92DF92EF92FF920F93CF9392
S11310E0DF93EC017B016A01590180E00E943E0814
S11310F00E941F08F601808381E00E943E080E943E
S11311001F08F7018083013081F482E00E943E08C9
S113111085FB882780F9F501808382E00E943E08E0
S11311208F710E941F08888307C082E00E943E08D6
S11311308F730E941F088883DF91CF910F91FF90D6
S1131140EF90DF90CF90BF90AF9008950F931F93CF
S1131150CF93DF93D82FC62F842F122F0E942A08F3
S1131160682F80E00E944D088C2F0E942A08682F67
S113117081E00E944D08013079F4113011F0C0E48F
S113118001C0C0E68D2F0E942A088F71682F6C2B36
S113119082E00E944D0808C08D2F0E942A08682F03
S11311A06F7382E00E944D08DF91CF911F910F91E0
S11311B0089582E084BD93E095BD99EF97BD809337
S11311C06E0008951F920F920FB60F9211248F9301
S11311D09F9381E08093820180917E018F5F809351
S11311E07E0180917C018F5F80937C0180917D01E1
S11311F08F5F80937D0180917A0190917B010196AC
S113120090937B0180937A0180917E01843629F446
S113121010927E0181E08093810180917C01833072
S113122029F410927C0181E080937F0180917D01FB
S1131230863029F410927D0181E0809380019F9192
S11312408F910F900FBE0F901F9018951F920F92C1
S11312500FB60F9211241092D0010F900FBE0F9071
S11312601F9018951F920F920FB60F9211248F930F
S1131270EF93FF938091C6008093CF018091830107
S1131280883098F4E0918301F0E08091CF01EF522F
S1131290FE4F8083809183018F5F80938301E0916F
S11312A08301F0E0EF52FE4F1082FF91EF918F9196
S11312B00F900FBE0F901F90189522E02093C0004E
S11312C028ED2093C10026E02093C20061152CE292
S11312D0720721E08207910509F451C0C8F4603413
S11312E028E3720781059105A9F130F4603875424D
S11312F08105910541F164C061152BE472078105F4
S1131300910579F1611576498105910589F158C0F6
S1131310603221EA720727E082079105F1F130F487
S11313206039704D8340910589F14AC0603422E4EC
S113133072072FE082079105B9F1603874488E4135
S11313409105C9F13DC08FEC90E09093C500809366
S1131350C40008958AE890E09093C5008093C40087
S1131360089587E690E09093C5008093C4000895A3
S113137083E390E09093C5008093C400089589E1CD
S113138090E09093C5008093C400089587E090E0B6
S11313909093C5008093C400089583E090E09093F7
S11313A0C5008093C400089581E090E09093C50047
S11313B08093C40008951092C5001092C40008954B
S11313C08FEC90E09093C5008093C4000895AEE044
S11313D0B0E0EDEEF9E00C94A80C0D891E8986E0CE
S11313E08C831A8309838FEF9FE79E838D83AE01DD
S11313F0475E5F4F6F89788DCE0101960E94090A7E
S1131400EF81F885E00FF11F10822E96E4E00C9432
S1131410C40CABE0B0E0EFE0FAE00C949A0C6C0181
S11314207B018A01FC0117821682838181FFCCC172
S1131430CE0101963C01F6019381F70193FD85915C
S113144093FF81917F01882309F4BAC1853239F46D
S113145093FD859193FF81917F01853229F4B60133
S113146090E00E94000CE7CF912C212C312CFFE15D
S1131470F315D8F08B3279F038F4803279F0833276
S1131480A1F4232D20611DC08D3261F0803369F4F5
S1131490232D216016C0832D8260382EE32DE46055
S11314A03E2E2AC0F32DF8601DC037FC2DC020ED60
S11314B0280F2A3040F08E32B9F436FC81C1232D36
S11314C02064322E19C036FE06C08AE0989E200D94
S11314D01124922E11C0EAE02E9E200D1124222EFA
S11314E0F32DF0623F2E08C08C3621F4832D8068E2
S11314F0382E02C0883641F4F70193FD859193FF9D
S113150081917F018111B3CF982F9F7D95549330A2
S113151028F40C5F1F4F9FE399830DC0833631F08D
S1131520833771F0833509F059C021C0F8018081F7
S113153089830E5F1F4F88248394912C530113C019
S11315402801F2E04F0E511CF801A080B18036FE54
S113155003C0692D70E002C06FEF7FEFC5010E94E8
S1131560F50B4C018201F32DFF773F2E16C02801A5
S113157022E0420E511CF801A080B18036FE03C067
S1131580692D70E002C06FEF7FEFC5010E94EA0B86
S11315904C01F32DF0683F2E820133FC1BC0822DD9
S11315A090E088169906B0F4B60180E290E00E94BB
S11315B0000C2A94F4CFF50137FC859137FE819114
S11315C05F01B60190E00E94000C21102A9421E0F2
S11315D0821A91088114910471F7E8C0843611F0DD
S11315E0893641F5F80137FE07C060817181828137
S11315F093810C5F1F4F08C060817181072E000C1E
S1131600880B990B0E5F1F4FF32DFF763F2E97FF2C
S113161009C090958095709561957F4F8F4F9F4F2E
S1131620F0683F2E2AE030E0A3010E943C0C882E93
S1131630861845C0853731F4232D2F7EB22E2AE03B
S113164030E025C0932D997FB92E8F36C1F018F460
S1131650883579F0B5C0803719F0883721F0B0C0EB
S1131660E92FE061BE2EB4FE0DC0FB2DF460BF2E49
S113167009C034FE0AC0292F2660B22E06C028E015
S113168030E005C020E130E002C020E132E0F801A2
S1131690B7FE07C060817181828193810C5F1F4F07
S11316A006C06081718180E090E00E5F1F4FA3014E
S11316B00E943C0C882E8618FB2DFF773F2E36FEA9
S11316C00DC0232D2E7FA22E891458F434FE0BC096
S11316D032FC09C0832D8E7EA82E05C0B82CA32C05
S11316E003C0B82C01C0B92CA4FE0FC0FE01E80D44
S11316F0F11D8081803321F49A2D997EA92E09C091
S1131700A2FE06C0B394B39404C08A2D867809F06F
S1131710B394A3FC11C0A0FE06C0B21488F4280C34
S1131720922C9B180EC0B21460F4B60180E290E0D3
S11317300E94000CB394F7CFB21418F42B1802C013
S1131740982C212CA4FE10C0B60180E390E00E94E6
S1131750000CA2FE17C0A1FC03C088E790E002C001
S113176088E590E0B6010CC08A2D867859F0A1FE78
S113177002C08BE201C080E2A7FC8DE2B60190E0DA
S11317800E94000C891438F4B60180E390E00E94B2
S1131790000C9A94F7CF8A94F301E80DF11D80812F
S11317A0B60190E00E94000C8110F5CF222009F4CC
S11317B042CEB60180E290E00E94000C2A94F6CF5B
S11317C0F6018681978102C08FEF9FEF2B96E2E1AD
S11317D00C94B60CFC010590615070400110D8F7D0
S11317E0809590958E0F9F1F0895FC016150704065
S11317F001900110D8F7809590958E0F9F1F089542
S11318000F931F93CF93DF93FB01238121FD03C02B
S11318108FEF9FEF2CC022FF16C046815781248191
S113182035814217530744F4A081B1819D012F5F94
S11318303F4F318320838C93268137812F5F3F4F25
S11318403783268314C08B01EC01FB010084F185EE
S1131850E02D0995892BE1F6D80116968D919C917E
S11318601797019617969C938E931697CE01DF9146
S1131870CF911F910F910895FA01AA27283051F1B1
S1131880203181F1E8946F936E7F6E5F7F4F8F4FAD
S11318909F4FAF4FB1E03ED0B4E03CD0670F781F0C
S11318A0891F9A1FA11D680F791F8A1F911DA11DF1
S11318B06A0F711D811D911DA11D20D009F468942A
S11318C03F912AE0269F11243019305D3193DEF6D2
S11318D0CF010895462F4770405D4193B3E00FD088
S11318E0C9F7F6CF462F4F70405D4A3318F0495D73
S11318F031FD4052419302D0A9F7EACFB4E0A69556
S11319009795879577956795BA95C9F70097610577
S1131910710508959B01AC010A2E069457954795CD
S113192037952795BA95C9F7620F731F841F951FC2
S1131930A01D08952F923F924F925F926F927F92D3
S11319408F929F92AF92BF92CF92DF92EF92FF92CB
S11319500F931F93CF93DF93CDB7DEB7CA1BDB0B77
S11319600FB6F894DEBF0FBECDBF09942A8839881C
S113197048885F846E847D848C849B84AA84B98423
S1131980C884DF80EE80FD800C811B81AA81B9812F
S1131990CE0FD11D0FB6F894DEBF0FBECDBFED0143
S10919A00895F894FFCF46
S11319A60101FF01FF253032643A253032643A25BD
S11319B630326400253032643A253032642D2D25C8
S11319C63032643A25303264003E00504F44455369
S11319D64920534154202020202000504F44455391
S11319E64920504552494F44202000504F44455306
S11319F64156414E4A4520534154410020205550FA
S1111A06414C492D2D554741534920200000E5
S9030000FC
