S01500004275636B436F6E7665727465722E73726563D2
S11300000C9434000C9432020C9451000C94510062
S11300100C9451000C9451000C9451000C94510018
S11300200C9451000C9451000C9451000C949902BE
S11300300C9451000C9451000C94AD020C9451009A
S11300400C9451000C9451000C944F040C945100E6
S11300500C9443040C94E4000C9451000C9451004F
S11300600C9451000C94510011241FBECFEFD8E022
S1130070DEBFCDBF11E0A0E0B1E0ECE0FEE002C0E5
S113008005900D92A631B107D9F721E0A6E1B1E0C0
S113009001C01D92A435B207E1F70E9453000C94ED
S11300A004070C940000CF93DF93CDB7DEB7C65E90
S11300B0D1090FB6F894DEBF0FBECDBF0E94D400A5
S11300C00E947A040E9476020E94A40278945E013F
S11300D083E8A80EB11C0F2EF2E34F2E512C612C95
S11300E0712CF02D8E01015E1F4F780160911C016F
S11300F070911D0180911E0190911F012EEA37EC31
S11301004BE553E40E9440060E948305F701619386
S113011071937F0180911C0190911D01A0911E019A
S1130120B0911F01AE16BF0609F7C12CD12C760180
S1130130F801819191918F01C80ED91EE11CF11C27
S1130140AE16BF06A9F780914501813059F6109289
S1130150450180E191E00E948A04C701B601A30130
S113016092010E94AD06DA01C9014AE0BE016F5F47
S11301707F4F0E94CF06CE0101960E948A0480E13F
S113018091E00E948A044AE0BE016F5F7F4F87EDD1
S113019090E00E94CF06CE0101960E948A0483E17A
S11301A091E00E948A049ECF579A1092640080ECDA
S11301B080937C008EEE80937A0010927B001092E4
S11301C017011092160108951F920F920FB60F9205
S11301D011248F929F92AF92BF92CF92DF92EF92AF
S11301E0FF922F933F934F935F936F937F938F93DC
S11301F09F93AF93BF93CF93DF93EF93FF9380913C
S1130200780090E090931B0180931A01809179000B
S113021090E09093190180931801809118019091B6
S11302201901892B79F4E0911601F091170180915D
S11302301A0190911B01EE0FFF1FE85DFE4F9183A1
S1130240808341C08091180190911901019781F434
S1130250E0911601F091170180911A0190911B0110
S11302609395EE0FFF1FE85DFE4F918380832BC0B3
S11302708091180190911901029781F4E09116017F
S1130280F091170180911A0190911B019E5FEE0F6E
S1130290FF1FE85DFE4F9183808315C08091180194
S11302A090911901039779F4E0911601F0911701E7
S11302B080911A0190911B019D5FEE0FFF1FE85D75
S11302C0FE4F91838083C8E2D1E068817981072E53
S11302D0000C880B990B0E94B4052AE939E94CE417
S11302E052E40E940A0560932401709325018093CF
S11302F026019093270186E990E0909389008093EA
S113030088006C817D81072E000C880B990B0E945C
S1130310B40521E73DEF49E654E40E940A0524EAC6
S113032030E741E950E40E94400660931C01709359
S11303301D0180931E0190931F016A817B8180902F
S11303401C0190901D01A0901E01B0901F01072E6A
S1130350000C880B990B0E94B4052AE939E94CE496
S113036052E40E940A056B017C012BEE33E741E95C
S113037050E4C501B4010E940A059B01AC01C70108
S1130380B6010E949D046093200170932101809323
S1130390220190932301EAE7F0E080818F77808344
S11303A08091160190911701019690931701809303
S11303B016018091160190911701049724F0109270
S11303C01701109216018091160190911701813046
S11303D0910581F01CF4892B39F023C082309105FA
S11303E091F00397C9F01DC0ECE7F0E080818C7FA9
S11303F0808317C0ECE7F0E080818D7F808380816B
S1130400816080830EC0ECE7F0E080818E7F808382
S113041080818260808305C0ECE7F0E080818360A6
S11304208083EAE7F0E08081806C80834F9AFF91BB
S1130430EF91DF91CF91BF91AF919F918F917F9178
S11304406F915F914F913F912F91FF90EF90DF90CB
S1130450CF90BF90AF909F908F900F900FBE0F9052
S11304601F9018951F920F920FB60F9211242F937D
S11304708F939F93809130019091310101969093D5
S11304803101809330014B9B0DC081E08093320198
S113049080913301909134010196909334018093BB
S11304A033010CC082E0809332018091330190913A
S11304B03401019790933401809333018091330187
S11304C0909134018115964E28F0109234011092C7
S11304D0330104C080913301909134019F918F9135
S11304E02F910F900FBE0F901F901895209A84B1F2
S11304F0866084B980E991E09093870080938600B8
S1130500E8E8F0E0118210828081918190938B0061
S113051080938A0082E880938000E1E8F0E08081A3
S11305208861808380818160808382E080936F0012
S113053008951F920F920FB60F921124189A0F90DC
S11305400FBE0F901F90189582E084BD93E095BD77
S113055099EF97BD80936E0008951F920F920FB686
S11305600F9211248F929F92AF92BF92CF92DF92FB
S1130570EF92FF922F933F934F935F936F937F93E9
S11305808F939F93AF93BF93EF93FF9381E08093F7
S11305904601809148019091490101969093490147
S11305A08093480180914801909149010A9709F08C
S11305B051C1109249011092480181E08093450194
S11305C0609130017091310180E090E00E94B205A9
S11305D020E030E046E652E40E940A0560933501CB
S11305E070933601809337019093380180913201E2
S11305F08230D9F46091000170910101809102016F
S113060090910301209135013091360140913701D9
S1130610509138010E944006609341017093420159
S113062080934301909344011DC060910001709137
S113063001018091020190910301209135013091D3
S1130640360140913701509138010E944006DC0187
S1130650CB01B0588093410190934201A093430190
S1130660B09344011D9A60912401709125018091F9
S1130670260190912701209141013091420140913E
S11306804301509144010E949D0460933D01709385
S11306903E0180933F019093400160910801709165
S11306A0090180910A0190910B0120913D01309143
S11306B03E0140913F01509140010E94400620E0DC
S11306C030E04AE753E40E949E040E947C05609354
S11306D00C0170930D0180930E0190930F016091B2
S11306E03D0170913E0180913F0190914001209124
S11306F0390130913A0140913B0150913C010E94F3
S11307009E046093390170933A0180933B01909366
S11307103C01609104017091050180910601909162
S113072007012091390130913A0140913B015091E8
S11307303C0180900C0190900D01A0900E01B090AE
S11307400F010E9440066B017C01C501B4010E94A7
S1130750B4059B01AC01C701B6010E949E040E942E
S11307607C0560930C0170930D0180930E019093AE
S11307700F0180910C0190910D01A0910E01B09197
S11307800F01843F9140A105B1053CF184EF91E054
S1130790A0E0B0E080930C0190930D01A0930E01B2
S11307A0B0930F0120913D0130913E0140913F01F2
S11307B0509140016091390170913A0180913B015F
S11307C090913C010E949D046093390170933A0119
S11307D080933B0190933C012FC080910C01909138
S11307E00D01A0910E01B0910F01181619061A06F9
S11307F01B0614F110920C0110920D0110920E01BF
S113080010920F0120913D0130913E0140913F0132
S1130810509140016091390170913A0180913B01FE
S113082090913C010E949D046093390170933A01B8
S113083080933B0190933C018091880090918900C2
S1130840892B21F410928B0010928A0010923101AE
S113085010923001FF91EF91BF91AF919F918F91D1
S11308607F916F915F914F913F912F91FF90EF9006
S1130870DF90CF90BF90AF909F908F900F900FBE5E
S11308800F901F9018951F920F920FB60F9211247C
S113089010924B010F900FBE0F901F9018951F924E
S11308A00F920FB60F9211248F93EF93FF938091C1
S11308B0C60080934A0180914701883098F4E09102
S11308C04701F0E080914A01E45BFE4F8083809110
S11308D047018F5F80934701E0914701F0E0E45BBB
S11308E0FE4F1082FF91EF918F910F900FBE0F90EA
S11308F01F90189582E08093C00088ED8093C1001A
S113090086E08093C2008FEC90E09093C5008093C2
S1130910C4000895FC019081992371F03196A6ECEE
S1130920B0E081E09C9380934B0190914B01911135
S1130930FCCF91919111F6CF08955058BB27AA2767
S11309400E94B5040C9406060E94F80538F00E9433
S1130950FF0520F039F49F3F19F426F40C94F505B3
S11309600EF4E095E7FB0C94EF05E92F0E941706BF
S113097058F3BA17620773078407950720F079F4D0
S1130980A6F50C9439060EF4E0950B2EBA2FA02D83
S11309900B01B90190010C01CA01A0011124FF2728
S11309A0591B99F0593F50F4503E68F11A16F04023
S11309B0A22F232F342F4427585FF3CF4695379522
S11309C02795A795F0405395C9F77EF41F16BA0BE7
S11309D0620B730B840BBAF09150A1F0FF0FBB1F95
S11309E0661F771F881FC2F70EC0BA0F621F731FDE
S11309F0841F48F4879577956795B795F7959E3F3B
S1130A0008F0B0CF9395880F08F09927EE0F9795CB
S1130A10879508950E941E050C9406060E94FF0502
S1130A2058F00E94F80540F029F45F3F29F00C9437
S1130A30EF0551110C943A060C94F5050E94170623
S1130A4068F39923B1F3552391F3951B550BBB27F9
S1130A50AA2762177307840738F09F5F5F4F220F3E
S1130A60331F441FAA1FA9F335D00E2E3AF0E0E835
S1130A7032D091505040E695001CCAF72BD0FE2F7F
S1130A8029D0660F771F881FBB1F26173707480713
S1130A90AB07B0E809F0BB0B802DBF01FF279358CB
S1130AA05F4F3AF09E3F510578F00C94EF050C949B
S1130AB03A065F3FE4F3983ED4F3869577956795BD
S1130AC0B795F7959F5FC9F7880F911D9695879500
S1130AD097F90895E1E0660F771F881FBB1F62171F
S1130AE073078407BA0720F0621B730B840BBA0BDD
S1130AF0EE1F88F7E09508950E9483056894B1116C
S1130B000C943A0608950E941F0688F09F5798F0A7
S1130B10B92F9927B751B0F0E1F0660F771F881FFE
S1130B20991F1AF0BA95C9F714C0B13091F00E9418
S1130B303906B1E008950C943906672F782F882779
S1130B40B85F39F0B93FCCF3869577956795B3953F
S1130B50D9F73EF490958095709561957F4F8F4FAE
S1130B609F4F0895E89409C097FB3EF490958095B3
S1130B70709561957F4F8F4F9F4F9923A9F0F92F5F
S1130B8096E9BB279395F695879577956795B795DD
S1130B90F111F8CFFAF4BB0F11F460FF1BC06F5FC3
S1130BA07F4F8F4F9F4F16C0882311F096E911C0D5
S1130BB0772321F09EE8872F762F05C0662371F0F6
S1130BC096E8862F70E060E02AF09A95660F771F0A
S1130BD0881FDAF7880F9695879597F9089597F9FE
S1130BE09F6780E870E060E008959FEF80EC0895CF
S1130BF000240A94161617061806090608950024F8
S1130C000A9412161306140605060895092E039471
S1130C10000C11F4882352F0BB0F40F4BF2B11F4E5
S1130C2060FF04C06F5F7F4F8F4F9F4F089557FD44
S1130C309058440F551F59F05F3F71F04795880F46
S1130C4097FB991F61F09F3F79F0879508951216DD
S1130C5013061406551FF2CF4695F1DF08C0161689
S1130C6017061806991FF1CF86957105610508943A
S1130C700895E894BB2766277727CB0197F9089551
S1130C800E9453060C9406060E94F80538F00E9450
S1130C90FF0520F0952311F00C94EF050C94F50555
S1130CA011240C943A060E94170670F3959FC1F321
S1130CB0950F50E0551F629FF001729FBB27F00D06
S1130CC0B11D639FAA27F00DB11DAA1F649F66275B
S1130CD0B00DA11D661F829F2227B00DA11D621FAA
S1130CE0739FB00DA11D621F839FA00D611D221F64
S1130CF0749F3327A00D611D231F849F600D211D48
S1130D00822F762F6A2F11249F5750409AF0F1F0CA
S1130D1088234AF0EE0FFF1FBB1F661F771F881F33
S1130D2091505040A9F79E3F510580F00C94EF0577
S1130D300C943A065F3FE4F3983ED4F38695779596
S1130D406795B795F795E7959F5FC1F7FE2B880FD9
S1130D50911D9695879597F90895A1E21A2EAA1BDD
S1130D60BB1BFD010DC0AA1FBB1FEE1FFF1FA21757
S1130D70B307E407F50720F0A21BB30BE40BF50B54
S1130D80661F771F881F991F1A9469F760957095DD
S1130D90809590959B01AC01BD01CF010895BB27BF
S1130DA04A3031F4992322F4BDE2909581959F4F06
S1130DB00C94DB06BB27FB015527AA27880F991F34
S1130DC0AA1FA41710F0A41B83955051B9F7A05D76
S1130DD0AA3308F0A95DA193009779F7B111B193F3
S1130DE01192CB010C94F406DC01FC01672F719184
S1130DF07723E1F7329704C07C916D9370836291FD
S10F0E00AE17BF07C8F30895F894FFCFA5
S1130E0C295C85416F12033C0AD7233DFA0000008C
S1090E1C2020000A000082
S9030000FC
