S01500004275636B436F6E7665727465722E73726563D2
S11300000C9434000C9400030C9451000C94510093
S11300100C9451000C9451000C9451000C94510018
S11300200C9451000C9451000C9451000C945E03F8
S11300300C9451000C9451000C9473030C945100D3
S11300400C9451000C9451000C9427050C9451000D
S11300500C941B050C9480020C9451000C945100D8
S11300600C9451000C94510011241FBECFEFD8E022
S1130070DEBFCDBF11E0A0E0B1E0E2E0FFE002C0EE
S113008005900D92A631B107D9F721E0A6E1B1E0C0
S113009001C01D92A33EB207E1F70E9453000C94E5
S11300A07F070C940000CF93DF93CDB7DEB76E9734
S11300B00FB6F894DEBF0FBECDBF0E94F4000E94BD
S11300C052050E9444030E946903789482E390E0FD
S11300D020911C0130911D0120911C0130911D01C2
S11300E00197B1F782E390E00197F1F78091D40191
S11300F0813061F71092D40180E191E00E946205A1
S113010080911E0190911F014AE0BE016F5F7F4FF5
S11301100E944A07CE0101960E94620580E191E0A7
S11301200E94620580911A0190911B014AE0BE0170
S11301306F5F7F4F0E944A07CE0101960E946205BD
S113014080E191E00E94620580911C0190911D0163
S11301504AE0BE016F5F7F4F0E944A07CE010196BD
S11301600E94620580E191E00E9462052091D20123
S11301703091D301C901880F991F220F331F220F19
S1130180331F220F331F4AE0BE016F5F7F4F820F80
S1130190931F0E944A07CE0101960E94620580E1E6
S11301A091E00E9462054AE0BE016F5F7F4F80E0EC
S11301B090E00E944A07CE0101960E94620580E108
S11301C091E00E9462054AE0BE016F5F7F4F88E2C2
S11301D093E20E944A07CE0101960E94620583E1E0
S11301E091E00E94620572CF579A1092640080ECED
S11301F080937C008EEE80937A0010927B001092A4
S113020017010895CF92DF92EF92FF92CF93DF937D
S11302108091170181114DC010921F0110921E018F
S11302201092160180911601843118F544E1E09191
S11302301701809116014E9FF0011124E80FF11D62
S1130240EE0FFF1FEF5DFE4F2081318180911E0173
S113025090911F01820F931F90931F0180931E01A1
S1130260809116018F5F809316018091160184316D
S1130270F0F220911E0130911F01ADECBCEC0E9404
S11302802707929582958F7089279F708927BC01D3
S113029080E090E00E9418062DE637EE4CE951E428
S11302A00E94A6060E94E90570931F0160931E0137
S11302B0B5C080911701813009F04DC010921D0125
S11302C010921C011092160180911601843118F5C8
S11302D044E1E0911701809116014E9FF001112431
S11302E0E80FF11DEE0FFF1FEF5DFE4F20813181FE
S11302F080911C0190911D01820F931F90931D0109
S113030080931C01809116018F5F80931601809168
S113031016018431F0F220911C0130911D01ADECE5
S1130320BCEC0E942707929582958F7089279F7055
S11303308927BC0180E090E00E94180627ED33EA8B
S11303404CE950E40E94A6060E94E90570931D0141
S113035060931C0163C080911701823009F05EC074
S113036010921B0110921A0110921601809116012D
S1130370843118F544E1E0911701809116014E9FF4
S1130380F0011124E80FF11DEE0FFF1FEF5DFE4F8A
S11303908081918120911A0130911B01820F931F5A
S11303A090931B0180931A01809116018F5F8093B3
S11303B01601809116018431F0F280911A01909116
S11303C01B01C0911C01D0911D0164E170E00E94E9
S11303D01307072E000C880B990B0E941A062DE6B2
S11303E037EE4CE951E40E94A6066B017C01BE0184
S11303F080E090E00E9418062EEA37E441E65EE3CE
S11304000E94A6069B01AC01C701B6010E947505B6
S11304100E94E20570931B0160931A01DF91CF9152
S1130420FF90EF90DF90CF900895809178008093B3
S1130430190180917900809318018091180181112C
S113044014C0E0911701209120018091190190E0DE
S113045034E1E39FF0011124E20FF11DEE0FFF1FC1
S1130460EF5DFE4F91838083089580911801813060
S1130470A9F4E0911701209120018091190190E0E5
S1130480939534E1E39FF0011124E20FF11DEE0F87
S1130490FF1FEF5DFE4F91838083089580911801C3
S11304A08230A9F4E0911701209120018091190173
S11304B090E09E5F34E1E39FF0011124E20FF11D0F
S11304C0EE0FFF1FEF5DFE4F9183808308958091AF
S11304D018018330A1F4E09117012091200180914B
S11304E0190190E09D5F34E1E39FF0011124E20FD4
S11304F0F11DEE0FFF1FEF5DFE4F91838083089582
S11305001F920F920FB60F9211242F933F934F9384
S11305105F936F937F938F939F93AF93BF93EF9367
S1130520FF930E94150280911701811103C00E945C
S113053002010DC080911701813019F40E9402015B
S113054006C080911701823011F40E940201EAE78B
S1130550F0E080818F778083809117018F5F809393
S1130560170180911701833068F010921701809170
S113057020018F5F8093200180912001843110F04D
S11305801092200180911701813061F028F08230AF
S113059091F08330C9F01DC0ECE7F0E080818C7FDE
S11305A0808317C0ECE7F0E080818D7F80838081B9
S11305B0816080830EC0ECE7F0E080818E7F8083D1
S11305C080818260808305C0ECE7F0E080818360F5
S11305D08083EAE7F0E08081806C80834F9AFF910A
S11305E0EF91BF91AF919F918F917F916F915F91A7
S11305F04F913F912F910F900FBE0F901F90189520
S11306001F920F920FB60F9211242F938F939F93E3
S11306108091C1019091C20101969093C20180938F
S1130620C1014B9B0DC081E08093C3018091C40143
S11306309091C50101969093C5018093C4010CC0AB
S113064082E08093C3018091C4019091C501019718
S11306509093C5018093C4018091C4019091C50118
S11306608115964E28F01092C5011092C40104C061
S11306708091C4019091C5019F918F912F910F900A
S11306800FBE0F901F901895209A84B1866084B98C
S113069080E991E09093870080938600109289000E
S11306A01092880082E880938000E1E8F0E0808185
S11306B08861808380818160808308951F920F9276
S11306C00FB60F921124189A0F900FBE0F901F901F
S11306D0189582E084BD93E095BD99EF97BD809312
S11306E06E00259A08951F920F920FB60F9211244F
S11306F0CF92DF92EF92FF920F931F932F933F932A
S11307004F935F936F937F938F939F93AF93BF9315
S1130710CF93DF93EF93FF9381E08093D501809192
S1130720D7019091D80101969093D8018093D70175
S11307308091D7019091D8010A9741F41092D80181
S11307401092D70181E08093D4011D9A8091CE014B
S11307509091CF01A091D001B091D1018093C601B5
S11307609093C701A093C801B093C90180911E0161
S113077090911F0120911A0130911B01821B930B50
S1130780092E000CAA0BBB0B8093CE019093CF01D2
S1130790A093D001B093D1016091CE017091CF01AB
S11307A08091D0019091D101C0900C01D0900D01A5
S11307B0E0900E01F0900F010E941A06A701960125
S11307C00E94A6060E94E2057093D3016093D201B1
S11307D04091CE015091CF016091D0017091D1012F
S11307E08091CA019091CB01A091CC01B091CD012F
S11307F0840F951FA61FB71F8093CA019093CB0146
S1130800A093CC01B093CD014091CA015091CB018A
S11308106091CC017091CD01809100019091010112
S1130820A0910201B0910301481759076A077B0799
S11308308CF08091000190910101A0910201B0918E
S113084003018093CA019093CB01A093CC01B09390
S1130850CD0115C08091CA019091CB01A091CC012A
S1130860B091CD01181619061A061B0644F0109211
S1130870CA011092CB011092CC011092CD0160916B
S1130880CA017091CB018091CC019091CD01C090AF
S11308900801D0900901E0900A01F0900B01C09189
S11308A0D201D091D3010E941A06A70196010E9499
S11308B0A6066B017C01BE01DD0F880B990B0E941B
S11308C01A069B01AC01C701B6010E9476050E947D
S11308D0E2057093D3016093D2018091CE0190918F
S11308E0CF01A091D001B091D1010091C601109126
S11308F0C7012091C8013091C901C0900401D09072
S11309000501E0900601F0900701C091D201D09159
S1130910D301BC01CD01601B710B820B930B0E94B0
S11309201A06A70196010E94A6066B017C01BE016E
S1130930DD0F880B990B0E941A069B01AC01C701BD
S1130940B6010E9476050E94E2057093D30160937C
S1130950D2018091D2019091D301803991401CF150
S113096080E991E09093D3018093D2014091CE012C
S11309705091CF016091D0017091D1018091CA0151
S11309809091CB01A091CC01B091CD01841B950B2A
S1130990A60BB70B8093CA019093CB01A093CC0113
S11309A0B093CD0127C08091D2019091D301181644
S11309B0190604F11092D3011092D2014091CE0194
S11309C05091CF016091D0017091D1018091CA0101
S11309D09091CB01A091CC01B091CD01841B950BDA
S11309E0A60BB70B8093CA019093CB01A093CC01C3
S11309F0B093CD018091D2019091D301909389005D
S1130A0080938800FF91EF91DF91CF91BF91AF91D7
S1130A109F918F917F916F915F914F913F912F9112
S1130A201F910F91FF90EF90DF90CF900F900FBE2A
S1130A300F901F9018951F920F920FB60F921124CA
S1130A401092DA010F900FBE0F901F9018951F920D
S1130A500F920FB60F9211248F93EF93FF9380910F
S1130A60C6008093D9018091D601883098F4E09132
S1130A70D601F0E08091D901E552FE4F8083809148
S1130A80D6018F5F8093D601E091D601F0E0E55264
S1130A90FE4F1082FF91EF918F910F900FBE0F9038
S1130AA01F90189582E08093C00088ED8093C10068
S1130AB086E08093C2008FEC90E09093C500809311
S1130AC0C4000895FC019081992371F03196A6EC3D
S1130AD0B0E081E09C938093DA019091DA01911166
S1130AE0FCCF91919111F6CF08955058BB27AA27B6
S1130AF00E948D050C946C060E945E0638F00E94DC
S1130B00650620F039F49F3F19F426F40C945B0633
S1130B100EF4E095E7FB0C945506E92F0E947D0640
S1130B2058F3BA17620773078407950720F079F41E
S1130B30A6F50C949F060EF4E0950B2EBA2FA02D6B
S1130B400B01B90190010C01CA01A0011124FF2776
S1130B50591B99F0593F50F4503E68F11A16F04071
S1130B60A22F232F342F4427585FF3CF4695379570
S1130B702795A795F0405395C9F77EF41F16BA0B35
S1130B80620B730B840BBAF09150A1F0FF0FBB1FE3
S1130B90661F771F881FC2F70EC0BA0F621F731F2C
S1130BA0841F48F4879577956795B795F7959E3F89
S1130BB008F0B0CF9395880F08F09927EE0F97951A
S1130BC0879508950E94E9056894B1110C94A006D4
S1130BD008950E94850688F09F5798F0B92F9927A9
S1130BE0B751B0F0E1F0660F771F881F991F1AF014
S1130BF0BA95C9F714C0B13091F00E949F06B1E0D4
S1130C0008950C949F06672F782F8827B85F39F0D2
S1130C10B93FCCF3869577956795B395D9F73EF4AC
S1130C2090958095709561957F4F8F4F9F4F089554
S1130C30E89409C097FB3EF4909580957095619572
S1130C407F4F8F4F9F4F9923A9F0F92F96E9BB2728
S1130C509395F695879577956795B795F111F8CFA4
S1130C60FAF4BB0F11F460FF1BC06F5F7F4F8F4F0F
S1130C709F4F16C0882311F096E911C0772321F005
S1130C809EE8872F762F05C0662371F096E8862F9D
S1130C9070E060E02AF09A95660F771F881FDAF7F4
S1130CA0880F9695879597F9089597F99F6780E837
S1130CB070E060E008959FEF80EC089500240A94AA
S1130CC01616170618060906089500240A94121623
S1130CD01306140605060895092E0394000C11F456
S1130CE0882352F0BB0F40F4BF2B11F460FF04C003
S1130CF06F5F7F4F8F4F9F4F089557FD9058440F5C
S1130D00551F59F05F3F71F04795880F97FB991F66
S1130D1061F09F3F79F08795089512161306140623
S1130D20551FF2CF4695F1DF08C0161617061806B0
S1130D30991FF1CF86957105610508940895E8948B
S1130D40BB2766277727CB0197F908950E94B90638
S1130D500C946C060E945E0638F00E94650620F032
S1130D60952311F00C9455060C945B0611240C94F5
S1130D70A0060E947D0670F3959FC1F3950F50E085
S1130D80551F629FF001729FBB27F00DB11D639F39
S1130D90AA27F00DB11DAA1F649F6627B00DA11DDF
S1130DA0661F829F2227B00DA11D621F739FB00D85
S1130DB0A11D621F839FA00D611D221F749F3327F5
S1130DC0A00D611D231F849F600D211D822F762F8E
S1130DD06A2F11249F5750409AF0F1F088234AF06B
S1130DE0EE0FFF1FBB1F661F771F881F91505040D7
S1130DF0A9F79E3F510580F00C9455060C94A0066B
S1130E005F3FE4F3983ED4F3869577956795B7955D
S1130E10F795E7959F5FC1F7FE2B880F911D969577
S1130E20879597F9089597FB072E16F4009407D039
S1130E3077FD09D00E94360707FC05D03EF4909553
S1130E4081959F4F0895709561957F4F0895A29F56
S1130E50B001B39FC001A39F700D811D1124911D8A
S1130E60B29F700D811D1124911D0895AA1BBB1BF7
S1130E7051E107C0AA1FBB1FA617B70710F0A61B96
S1130E80B70B881F991F5A95A9F780959095BC01B7
S1130E90CD010895BB274A3031F4992322F4BDE2F1
S1130EA0909581959F4F0C945607BB27FB015527BE
S1130EB0AA27880F991FAA1FA41710F0A41B8395B3
S1130EC05051B9F7A05DAA3308F0A95DA19300972A
S1130ED079F7B111B1931192CB010C946F07DC0136
S1130EE0FC01672F71917723E1F7329704C07C915D
S1130EF06D9370836291AE17BF07C8F30895F89499
S1050F00FFCF1D
S1130F0220A107007B14AE3DA69B443B6F12033B1A
S1090F122020000A00008B
S9030000FC
