S01500004275636B436F6E7665727465722E73726563D2
S11300000C9434000C9405020C9451000C9451008F
S11300100C9451000C9451000C9451000C94510018
S11300200C9451000C9451000C9451000C946C02EB
S11300300C9451000C9451000C948B020C945100BC
S11300400C9451000C9451000C942D040C94510008
S11300500C9421040C94E0000C9451000C94510075
S11300600C9451000C94510011241FBECFEFD8E022
S1130070DEBFCDBF11E0A0E0B1E0E4E8FDE002C0E6
S113008005900D92AE32B107D9F721E0AEE2B1E0AE
S113009001C01D92AC36B207E1F70E9453000C94E4
S11300A0C0060C940000CF93DF93CDB7DEB76E97F4
S11300B00FB6F894DEBF0FBECDBF0E94D1000E94E0
S11300C058040E9449020E948202789480915D0142
S11300D08130E1F710925D0180E191E00E946804B3
S11300E060913C0170913D0180913E0190913F01EE
S11300F020E030E048EC52E40E941E060E945A05BB
S1130100DC01CB014AE0BE016F5F7F4F0E948B068A
S1130110CE0101960E94680485E191E00E94680482
S1130120609138017091390180913A0190913B01BD
S113013020E030E048EC52E40E941E060E945A057A
S1130140DC01CB014AE0BE016F5F7F4F0E948B064A
S1130150CE0101960E9468048FE191E00E94680438
S1130160609134017091350180913601909137018D
S113017020E030E048EC52E40E941E060E945A053A
S1130180DC01CB014AE0BE016F5F7F4F0E948B060A
S1130190CE0101960E9468048AE291E00E946804FC
S11301A095CF1092640080E480937C008FEE80935E
S11301B07A0010927B0010922F0110922E01089564
S11301C01F920F920FB60F9211242F933F934F93C8
S11301D05F936F937F938F939F93AF93BF93CF93CB
S11301E0DF93EF93FF938091780090E09093330135
S11301F0809332018091790090E090933101809353
S113020030018091300190913101892B79F4E09192
S11302102E01F0912F018091320190913301EE0F64
S1130220FF1FE05CFE4F9183808341C080913001C9
S113023090913101019781F4E0912E01F0912F0109
S113024080913201909133019395EE0FFF1FE05C92
S1130250FE4F918380832BC08091300190913101B6
S1130260029781F4E0912E01F0912F0180913201E7
S1130270909133019E5FEE0FFF1FE05CFE4F918370
S1130280808315C08091300190913101039779F4F6
S1130290E0912E01F0912F01809132019091330170
S11302A09D5FEE0FFF1FE05CFE4F91838083C0E4EF
S11302B0D1E068817981072E000C880B990B0E948C
S11302C092052AE939E94CE452E40E94E804609377
S11302D03C0170933D0180933E0190933F016091F6
S11302E03C0170913D0180913E0190913F0120E0DD
S11302F030E040EA51E40E941E060E9461057093BA
S11303008900609388006C817D81072E000C880B26
S1130310990B0E94920520E030E848E654E40E94DC
S1130320E8042BEE33E741E950E40E941E06609393
S113033034017093350180933601909337016A81BB
S11303407B81072E000C880B990B0E94920520E0FC
S113035030E040EA50E40E94E8046093380170936E
S1130360390180933A0190933B01EAE7F0E0808100
S11303708F77808380912E0190912F010196909325
S11303802F0180932E0180912E0190912F010497CB
S113039024F010922F0110922E0180912E01909141
S11303A02F018130910571F01CF4892B39F015C0AF
S11303B08230910559F0039769F00FC080E480936F
S11303C07C000BC081EC80937C0007C082EC80939E
S11303D07C0003C083E480937C00EAE7F0E0808142
S11303E080688083FF91EF91DF91CF91BF91AF91AE
S11303F09F918F917F916F915F914F913F912F9139
S11304000F900FBE0F901F9018951F920F920FB66A
S11304100F9211242F938F939F9380914801909171
S11304204901019690934901809348014B9B0DC06B
S113043081E080934A0180914B0190914C01019697
S113044090934C0180934B010CC082E080934A014D
S113045080914B0190914C01019790934C018093B2
S11304604B0180914B0190914C018115964E28F0DF
S113047010924C0110924B0104C080914B01909159
S11304804C019F918F912F910F900FBE0F901F9051
S11304901895209A84B1866084B980E991E090939C
S11304A0870080938600E8E8F0E011821082808162
S11304B0918190938B0080938A0080EB80938000DD
S11304C0E1E8F0E0808180618083808181608083C5
S11304D082E080936F0008951F920F920FB60F92DF
S11304E011248F93EF93FF93EAE7F0E08081806417
S11304F08083189AFF91EF918F910F900FBE0F9008
S11305001F90189582E084BD93E095BD99EF97BD47
S113051080936E0008951F920F920FB60F921124CC
S11305208F929F92AF92BF92CF92DF92EF92FF92FF
S11305302F933F934F935F936F937F938F939F93E7
S1130540AF93BF93EF93FF9381E080935E0180911B
S11305506001909161010196909361018093600123
S113056080916001909161010A9709F051C1109244
S113057061011092600181E080935D016091480106
S11305807091490180E090E00E94900520E030E005
S113059046E652E40E94E80460934D0170934E01D4
S11305A080934F019093500180914A018230D9F495
S11305B06091000170910101809102019091030109
S11305C020914D0130914E0140914F0150915001C5
S11305D00E941E066093590170935A0180935B0137
S11305E090935C011DC060910001709101018091A4
S11305F002019091030120914D0130914E014091EF
S11306004F01509150010E941E06DC01CB01B058ED
S11306108093590190935A01A0935B01B0935C01BC
S11306201D9A60913C0170913D0180913E01909131
S11306303F012091590130915A0140915B01509141
S11306405C010E947B046093550170935601809372
S113065057019093580160910801709109018091AC
S11306600A0190910B01209155013091560140915E
S11306705701509158010E941E0620E030E04AE7DD
S113068053E40E947C040E945A0560930C01709309
S11306900D0180930E0190930F01609155017091AB
S11306A05601809157019091580120915101309148
S11306B0520140915301509154010E947C04609373
S11306C051017093520180935301909354016091AE
S11306D00401709105018091060190910701209118
S11306E05101309152014091530150915401809035
S11306F00C0190900D01A0900E01B0900F010E948A
S11307001E066B017C01C501B4010E9492059B0188
S1130710AC01C701B6010E947C040E945A05609393
S11307200C0170930D0180930E0190930F01809141
S11307300C0190910D01A0910E01B0910F01843F25
S11307409140A105B1053CF184EF91E0A0E0B0E057
S113075080930C0190930D01A0930E01B0930F01AF
S11307602091550130915601409157015091580103
S11307706091510170915201809153019091540103
S11307800E947B0460935101709352018093530142
S1130790909354012FC080910C0190910D01A09170
S11307A00E01B0910F01181619061A061B0614F152
S11307B010920C0110920D0110920E0110920F0173
S11307C020915501309156014091570150915801A3
S11307D060915101709152018091530190915401A3
S11307E00E947B04609351017093520180935301E2
S11307F0909354018091880090918900892B21F471
S113080010928B0010928A001092490110924801B4
S1130810FF91EF91BF91AF919F918F917F916F91D4
S11308205F914F913F912F91FF90EF90DF90CF9088
S1130830BF90AF909F908F900F900FBE0F901F901E
S113084018951F920F920FB60F9211241092630104
S11308500F900FBE0F901F9018951F920F920FB616
S11308600F9211248F93EF93FF938091C60080938E
S1130870620180915F01883098F4E0915F01F0E0BB
S113088080916201EC59FE4F808380915F018F5FFC
S113089080935F01E0915F01F0E0EC59FE4F10821C
S11308A0FF91EF918F910F900FBE0F901F901895AD
S11308B082E08093C00088ED8093C10086E080933D
S11308C0C2008FEC90E09093C5008093C40008951B
S11308D0FC019081992371F03196A6ECB0E081E09F
S11308E09C9380936301909163019111FCCF91914A
S11308F09111F6CF08955058BB27AA270E9493045C
S11309000C94E4050E94D60538F00E94DD0520F021
S113091039F49F3F19F426F40C94D3050EF4E095B2
S1130920E7FB0C94CD05E92F0E94F50558F3BA179F
S1130930620773078407950720F079F4A6F50C94F1
S113094017060EF4E0950B2EBA2FA02D0B01B9015A
S113095090010C01CA01A0011124FF27591B99F031
S1130960593F50F4503E68F11A16F040A22F232F3D
S1130970342F4427585FF3CF469537952795A7958D
S1130980F0405395C9F77EF41F16BA0B620B730B34
S1130990840BBAF09150A1F0FF0FBB1F661F771FA5
S11309A0881FC2F70EC0BA0F621F731F841F48F45A
S11309B0879577956795B795F7959E3F08F0B0CFE3
S11309C09395880F08F09927EE0F979587950895CA
S11309D00E94FC040C94E4050E94DD0558F00E947A
S11309E0D60540F029F45F3F29F00C94CD05511150
S11309F00C9418060C94D3050E94F50568F399230A
S1130A00B1F3552391F3951B550BBB27AA27621706
S1130A107307840738F09F5F5F4F220F331F441F13
S1130A20AA1FA9F335D00E2E3AF0E0E832D0915047
S1130A305040E695001CCAF72BD0FE2F29D0660F34
S1130A40771F881FBB1F261737074807AB07B0E877
S1130A5009F0BB0B802DBF01FF2793585F4F3AF07D
S1130A609E3F510578F00C94CD050C9418065F3F19
S1130A70E4F3983ED4F3869577956795B795F79503
S1130A809F5FC9F7880F911D9695879597F90895EB
S1130A90E1E0660F771F881FBB1F62177307840787
S1130AA0BA0720F0621B730B840BBA0BEE1F88F796
S1130AB0E09508950E9461056894B1110C9418069C
S1130AC008950E94FD0588F09F5798F0B92F992743
S1130AD0B751B0F0E1F0660F771F881F991F1AF025
S1130AE0BA95C9F714C0B13091F00E941706B1E06D
S1130AF008950C941706672F782F8827B85F39F06C
S1130B00B93FCCF3869577956795B395D9F73EF4BD
S1130B1090958095709561957F4F8F4F9F4F089565
S1130B20E89409C097FB3EF4909580957095619583
S1130B307F4F8F4F9F4F9923A9F0F92F96E9BB2739
S1130B409395F695879577956795B795F111F8CFB5
S1130B50FAF4BB0F11F460FF1BC06F5F7F4F8F4F20
S1130B609F4F16C0882311F096E911C0772321F016
S1130B709EE8872F762F05C0662371F096E8862FAE
S1130B8070E060E02AF09A95660F771F881FDAF705
S1130B90880F9695879597F9089597F99F6780E848
S1130BA070E060E008959FEF80EC089500240A94BB
S1130BB01616170618060906089500240A94121634
S1130BC01306140605060895092E0394000C11F467
S1130BD0882352F0BB0F40F4BF2B11F460FF04C014
S1130BE06F5F7F4F8F4F9F4F089557FD9058440F6D
S1130BF0551F59F05F3F71F04795880F97FB991F78
S1130C0061F09F3F79F08795089512161306140634
S1130C10551FF2CF4695F1DF08C0161617061806C1
S1130C20991FF1CF86957105610508940895E8949C
S1130C30BB2766277727CB0197F908950E943106D1
S1130C400C94E4050E94D60538F00E94DD0520F0DE
S1130C50952311F00C94CD050C94D30511240C9418
S1130C6018060E94F50570F3959FC1F3950F50E0A7
S1130C70551F629FF001729FBB27F00DB11D639F4A
S1130C80AA27F00DB11DAA1F649F6627B00DA11DF0
S1130C90661F829F2227B00DA11D621F739FB00D96
S1130CA0A11D621F839FA00D611D221F749F332706
S1130CB0A00D611D231F849F600D211D822F762F9F
S1130CC06A2F11249F5750409AF0F1F088234AF07C
S1130CD0EE0FFF1FBB1F661F771F881F91505040E8
S1130CE0A9F79E3F510580F00C94CD050C9418068D
S1130CF05F3FE4F3983ED4F3869577956795B7956F
S1130D00F795E7959F5FC1F7FE2B880F911D969588
S1130D10879597F90895BB274A3031F4992322F433
S1130D20BDE2909581959F4F0C949706BB27FB01DC
S1130D305527AA27880F991FAA1FA41710F0A41BD0
S1130D4083955051B9F7A05DAA3308F0A95DA1932A
S1130D50009779F7B111B1931192CB010C94B006BD
S1130D60DC01FC01672F71917723E1F7329704C00E
S1130D707C916D9370836291AE17BF07C8F3089599
S1070D80F894FFCF11
S1130D84295C85416F12033C0AD7233DFA00000015
S1130D94706F743A005620206E61706F6E3A00567C
S1110DA42020737472756A613A00410A0000DF
S9030000FC
