:100000000C9434000C9403030C9451000C94510094
:100010000C9451000C9451000C9451000C9451001C
:100020000C9451000C9451000C9451000C946103F9
:100030000C9451000C9451000C9476030C945100D4
:100040000C9451000C9451000C94AA030C94510090
:100050000C949E030C94F5010C9451000C945100E7
:100060000C9451000C94510011241FBECFEFD8E026
:10007000DEBFCDBF11E0A0E0B1E0EAEAFBE002C0E4
:1000800005900D92A630B107D9F721E0A6E0B1E0C6
:1000900001C01D92A537B207E1F70E9453000C94EE
:1000A000D3050C940000CF93DF93CDB7DEB76E97E6
:1000B0000FB6F894DEBF0FBECDBF0E94B7000E94FE
:1000C000D5030E9447030E946C03789482E390E07A
:1000D00020910A0130910B0120910A0130910B010E
:1000E0000197B1F782E390E00197F1F78091660103
:1000F000813061F71092660180E091E00E94E50393
:1001000080910E0190910F014AE0BE016F5F7F4F19
:100110000E949E05CE0101960E94E50380E091E0D9
:100120000E94E50380910C0190910D014AE0BE010F
:100130006F5F7F4F0E949E05CE0101960E94E503EE
:1001400080E091E00E94E50380910A0190910B010B
:100150004AE0BE016F5F7F4F0E949E05CE0101966F
:100160000E94E50383E091E00E94E503AFCF579A38
:100170001092640080EC80937C008EEE80937A0075
:1001800010927B00109207010895CF92DF92EF92B8
:10019000FF92CF93DF9380910701811155C0109298
:1001A0000F0110920E0110920601809106018A3013
:1001B00058F58091070190E020910601FC01EE0FB7
:1001C000FF1F880F991F880F991F880F991FE80F2D
:1001D000F91FE20FF11DEE0FFF1FEF5EFE4F2081B2
:1001E000318180910E0190910F01820F931F9093A6
:1001F0000F0180930E01809106018F5F80930601AD
:10020000809106018A30A8F220910E0130910F01F1
:10021000ADECBCEC0E948F059695879596958795D9
:1002200096958795BC0180E090E00E94940426E6B4
:1002300036E64CE951E40E9422050E946504709361
:100240000F0160930E01CAC080910701813009F04F
:1002500055C010920B0110920A0110920601809174
:1002600006018A3058F58091070190E0209106013F
:10027000FC01EE0FFF1F880F991F880F991F880F31
:10028000991FE80FF91FE20FF11DEE0FFF1FEF5E40
:10029000FE4F2081318180910A0190910B01820FE4
:1002A000931F90930B0180930A01809106018F5F49
:1002B00080930601809106018A30A8F220910A01FC
:1002C00030910B01ADECBCEC0E948F0596958795A3
:1002D0009695879596958795BC0180E090E00E9461
:1002E00094042AE534E64BE950E40E9422050E947A
:1002F000650470930B0160930A0170C0809107013F
:10030000823009F06BC010920D0110920C01109216
:100310000601809106018A3058F58091070190E02E
:1003200020910601FC01EE0FFF1F880F991F880F17
:10033000991F880F991FE80FF91FE20FF11DEE0FAB
:10034000FF1FEF5EFE4F2081318180910C01909163
:100350000D01820F931F90930D0180930C018091EA
:1003600006018F5F80930601809106018A30A8F212
:1003700020910C0130910D01C0910A01D0910B0127
:10038000ADECBCEC0E948F05969587959695879568
:1003900096958795BC0180E090E00E94940426E643
:1003A00036E64CE951E40E9422056B017C01BE0156
:1003B00080E090E00E9494042EEA37E441E65EE398
:1003C0000E9422059B01AC01C701B6010E94F803FF
:1003D0000E94650470930D0160930C01DF91CF9131
:1003E000FF90EF90DF90CF9008951F920F920FB67D
:1003F0000F9211242F933F934F935F936F937F93AB
:100400008F939F93AF93BF93EF93FF938091780067
:1004100080930901809179008093080180910801FF
:1004200081111CC08091070190E040911001209142
:10043000090130E0FC01EE0FFF1F880F991F880FA4
:10044000991F880F991FE80FF91FE40FF11DEE0F98
:10045000FF1FEF5EFE4F3183208362C08091080151
:100460008130E9F48091070190E0409110012091E2
:10047000090130E03395FC01EE0FFF1F880F991F33
:10048000880F991F880F991FE80FF91FE40FF11DBE
:10049000EE0FFF1FEF5EFE4F3183208341C080913E
:1004A00008018230E9F48091070190E04091100149
:1004B0002091090130E03E5FFC01EE0FFF1F880F25
:1004C000991F880F991F880F991FE80FF91FE40FD4
:1004D000F11DEE0FFF1FEF5EFE4F3183208320C022
:1004E000809108018330E1F48091070190E0409110
:1004F00010012091090130E03D5FFC01EE0FFF1F6C
:10050000880F991F880F991F880F991FE80FF91FEF
:10051000E40FF11DEE0FFF1FEF5EFE4F31832083CE
:1005200080910701811103C00E94C5000DC0809118
:100530000701813019F40E94C50006C080910701AF
:10054000823011F40E94C50086E990E09093890002
:1005500080938800EAE7F0E080818F778083809144
:1005600007018F5F8093070180910701833068F056
:1005700010920701809110018F5F8093100180918C
:1005800010018A3010F01092100180910701813023
:1005900061F028F0823091F08330C9F01DC0ECE7A3
:1005A000F0E080818C7F808317C0ECE7F0E08081F1
:1005B0008D7F80838081816080830EC0ECE7F0E0D6
:1005C00080818E7F808380818260808305C0ECE79C
:1005D000F0E0808183608083EAE7F0E08081806CD6
:1005E00080834F9AFF91EF91BF91AF919F918F912F
:1005F0007F916F915F914F913F912F910F900FBE1F
:100600000F901F9018951F920F920FB60F92112402
:100610002F938F939F938091610190916201019636
:1006200090936201809361014B9B0DC081E08093A8
:100630006301809164019091650101969093650139
:10064000809364010CC082E0809363018091640117
:100650009091650101979093650180936401809169
:100660006401909165018115964E28F01092650104
:100670001092640104C080916401909165019F9182
:100680008F912F910F900FBE0F901F901895209A69
:1006900084B1866084B980E991E09093870080936B
:1006A0008600109289001092880082E88093800072
:1006B000E1E8F0E0808188618083808181608083CF
:1006C00008951F920F920FB60F921124189A0F904F
:1006D0000FBE0F901F90189582E084BD93E095BDEA
:1006E00099EF97BD80936E00259A08951F920F92FF
:1006F0000FB60F9211248F939F9381E0809367012F
:100700008091690190916A01019690936A018093AA
:1007100069018091690190916A010A9741F41092F0
:100720006A011092690181E0809366011D9A9F9190
:100730008F910F900FBE0F901F9018951F920F92E0
:100740000FB60F92112410926C010F900FBE0F90F4
:100750001F9018951F920F920FB60F9211248F932E
:10076000EF93FF938091C60080936B0180916801A5
:10077000883098F4E0916801F0E080916B01E359D2
:10078000FE4F8083809168018F5F80936801E091C4
:100790006801F0E0E359FE4F1082FF91EF918F91D5
:1007A0000F900FBE0F901F90189582E08093C000AD
:1007B00088ED8093C10086E08093C2008FEC90E0CA
:1007C0009093C5008093C4000895FC019081992303
:1007D00071F03196A6ECB0E081E09C9380936C01BF
:1007E00090916C019111FCCF91919111F6CF0895E8
:1007F0005058BB27AA270E9410040C94E8040E94BA
:10080000DA0438F00E94E10420F039F49F3F19F433
:1008100026F40C94D7040EF4E095E7FB0C94D10475
:10082000E92F0E94F90458F3BA1762077307840787
:10083000950720F079F4A6F50C941B050EF4E095CD
:100840000B2EBA2FA02D0B01B90190010C01CA018A
:10085000A0011124FF27591B99F0593F50F4503E35
:1008600068F11A16F040A22F232F342F4427585F27
:10087000F3CF469537952795A795F0405395C9F73F
:100880007EF41F16BA0B620B730B840BBAF09150F7
:10089000A1F0FF0FBB1F661F771F881FC2F70EC096
:1008A000BA0F621F731F841F48F487957795679569
:1008B000B795F7959E3F08F0B0CF9395880F08F055
:1008C0009927EE0F9795879508950E94010588F066
:1008D0009F5798F0B92F9927B751B0F0E1F0660F04
:1008E000771F881F991F1AF0BA95C9F714C0B13045
:1008F00091F00E941B05B1E008950C941B05672F31
:10090000782F8827B85F39F0B93FCCF38695779573
:100910006795B395D9F73EF490958095709561955C
:100920007F4F8F4F9F4F0895E89409C097FB3EF487
:1009300090958095709561957F4F8F4F9F4F99232C
:10094000A9F0F92F96E9BB279395F69587957795AA
:100950006795B795F111F8CFFAF4BB0F11F460FF6A
:100960001BC06F5F7F4F8F4F9F4F16C0882311F0C2
:1009700096E911C0772321F09EE8872F762F05C0D6
:10098000662371F096E8862F70E060E02AF09A9571
:10099000660F771F881FDAF7880F9695879597F966
:1009A000089597F99F6780E870E060E008959FEFF1
:1009B00080EC089500240A941616170618060906F6
:1009C000089500240A9412161306140605060895C5
:1009D000092E0394000C11F4882352F0BB0F40F44D
:1009E000BF2B11F460FF04C06F5F7F4F8F4F9F4F8D
:1009F000089557FD9058440F551F59F05F3F71F00F
:100A00004795880F97FB991F61F09F3F79F0879575
:100A10000895121613061406551FF2CF4695F1DFFE
:100A200008C0161617061806991FF1CF869571058E
:100A3000610508940895E894BB2766277727CB01C2
:100A400097F908950E9435050C94E8040E94DA0491
:100A500038F00E94E10420F0952311F00C94D104A9
:100A60000C94D70411240C941C050E94F90470F313
:100A7000959FC1F3950F50E0551F629FF001729F43
:100A8000BB27F00DB11D639FAA27F00DB11DAA1F52
:100A9000649F6627B00DA11D661F829F2227B00D9F
:100AA000A11D621F739FB00DA11D621F839FA00D2A
:100AB000611D221F749F3327A00D611D231F849F7A
:100AC000600D211D822F762F6A2F11249F575040D1
:100AD0009AF0F1F088234AF0EE0FFF1FBB1F661F4C
:100AE000771F881F91505040A9F79E3F510580F015
:100AF0000C94D1040C941C055F3FE4F3983ED4F3AE
:100B0000869577956795B795F795E7959F5FC1F7B8
:100B1000FE2B880F911D9695879597F90895A29FB2
:100B2000B001B39FC001A39F700D811D1124911DC1
:100B3000B29F700D811D1124911D0895BB274A306D
:100B400031F4992322F4BDE2909581959F4F0C9446
:100B5000AA05BB27FB015527AA27880F991FAA1FA3
:100B6000A41710F0A41B83955051B9F7A05DAA33C8
:100B700008F0A95DA193009779F7B111B193119293
:100B8000CB010C94C305DC01FC01672F7191772325
:100B9000E1F7329704C07C916D9370836291AE1738
:0A0BA000BF07C8F30895F894FFCFD3
:060BAA002020000A0000FB
:00000001FF
