:1000000018C1000032C1000030C100002EC1000044
:100010002CC100002AC1000028C1000026C1000038
:1000200024C1000022C1000020C100000C94110D69
:100030001CC100001AC1000018C1000058C7000010
:1000400014C1000012C1000010C100000C9412097C
:100050000CC100000AC1000008C1000006C1000078
:1000600004C1000002C1000000C10000FEC0000089
:10007000FCC000001C0330003000300032003000B3
:100080003000300031003200330034003500000011
:100090000000180341005600520049005300500070
:1000A00020006D006B004900490000000C03410076
:1000B00054004D0045004C000000040309040902EF
:1000C0002000010100C0320904000002FF0000000E
:1000D0000705820240000A0705020240000A1201D9
:1000E0001001FF000010EB030421000201020301D4
:1000F00004000400040005000500060006000600D8
:1001000007000700070008000900090009000A00AD
:100110000A000B000C000C000D000E000F000F0079
:100120001000110012001300140015001600170033
:10013000180019001B001C001E001F0021002200D7
:100140002400260028002A002C002E003100330055
:10015000360039003B003E004100450048004C009D
:100160004F00540058005C00610065006A00700098
:1001700075007B00810088008E0096009D00A50020
:10018000AD00B500BE00C800D200DC00E700F20000
:10019000FE000A01180125013401430153016401E5
:1001A000760188019B01AF01C501DB01F3010B0260
:1001B000250240025C027A029902BA02DC020003C4
:1001C00026034E037703A303D1030104320467041B
:1001D0009F04DA04150555059705E10528067606FE
:1001E000C7061F077A07D7073308A30809097A0942
:1001F000F609700AF70A7C0B0D0CAD0C480DF20DD8
:10020000920E410F0110D510971198128713781490
:100210007B158C16A417D018091A501BA21C0B1E94
:100220008C1F1921AF226F24372640400041014224
:10023000430011241FBECFEFD2E0DEBFCDBF11E0DF
:10024000A0E0B1E0E6EEFDE102C005900D92AA3219
:10025000B107D9F721E0AAE2B1E001C01D92AB33AA
:10026000B207E1F752D00C94F10ECACE84B7877F63
:1002700084BF0FB6F894A895809160008861809340
:100280006000109260000FBE90E080E80FB6F89416
:1002900080936100909361000FBE8AB1806F8AB92C
:1002A0008BB18F708BB90C94010D08958BB18F7049
:1002B00080638BB908958BB18F7080618BB908957D
:1002C00042E360E882E00E945E0C811102C090E18E
:1002D00001C090E28BB18F70892B8BB908958EB3DA
:1002E000843091F40E949E0A82E08093E90080911C
:1002F000E80082FF09C08BB18F7080638BB9B0D7E3
:100300008BB18F7080628BB90895B0DFA0D78BB1AD
:100310008F7080618BB97894E2DF0E94BE0EFCCFB3
:1003200001C00895292F33272230310559F0233099
:10033000310569F02130310559F582E190E02EED6B
:1003400030E02FC080E290E02EEB30E02AC0992709
:100350008130910589F050F08230910599F0039732
:10036000E1F48CE190E024E730E01BC0EAEBF0E040
:10037000849190E09F0115C0ECEAF0E0849190E058
:100380009F010FC0E2E9F0E0849190E09F0109C075
:1003900080E090E020E030E004C080E090E020E0E9
:1003A00030E0FA013183208308952F923F924F92DB
:1003B0005F926F927F928F929F92AF92BF92CF92F5
:1003C000DF92EF92FF920F931F93CF93DF93CDB7FE
:1003D000DEB7CD50D1400FB6F894DEBF0FBECDBF13
:1003E000B82E40E050E069E070E0CE0101960E9436
:1003F000250B6A8179817A836983613021E07207F4
:10040000B0F0E8EEF0E080818B77808382E080932B
:10041000E900ACEEB0E08C9181608C93A1EFB0E08C
:10042000BC9280EC8C9380818E77808385C140E084
:1004300050E0CE010A960E94250B89819A810A9686
:100440008F739927892B39F4E8EEF0E080818B7760
:1004500080830E94940CE8EEF0E080818B778083AB
:1004600082E08093E900ECEEF0E08081816080839F
:1004700033E1B31202C0A88401C0A98480912D0188
:1004800090912E01A0912F01B0913001C65FDE4FF7
:1004900088839983AA83BB83CA50D14089819A817A
:1004A000892B09F4BFC04E019AE0890E911CE12C02
:1004B000F12CC12CD12C0F2EFDE26F2EF1E07F2EFE
:1004C000F02D6894222423F833243394412C512CAA
:1004D000D4010D914D011B8180912C01882319F0CD
:1004E00004D610922C018D8190910001992329F05E
:1004F0008EBD0DB407FEFDCF01C090D580912D01BA
:1005000090912E01A0912F01B0913001892F9A2F47
:10051000AB2FBB2720910001222329F08EBD0DB403
:1005200007FEFDCF01C07AD5F301808190910001D3
:10053000992329F08EBD0DB407FEFDCF01C06ED505
:1005400080910001882329F00EBD0DB407FEFDCF78
:1005500002C0802F63D5F3E1BF1203C08D818225D5
:100560008D83C114D10409F0D0C0A01609F4CAC00B
:10057000E0FE0DC023E1B2120AC08F8188608F8334
:10058000D3018D919C9110FF0AC06C0122C08F8114
:10059000877F8F83F3018081918110FD13C00097C5
:1005A00029F413FD04C0197F126001C06C010F8192
:1005B0002C814A2DB601812FD0D5811136C0C42C93
:1005C000D52C01C06C01E0FC04C0F5E1BF121FC0D6
:1005D0009FC080912D0190912E01A0912F01B0918B
:1005E00030010196A11DB11D80932D0190932E0124
:1005F000A0932F01B093300123E1B21208C0AA27C3
:10060000BB27892B8A2B8B2B11F430922C013FEFC7
:10061000E31AF30A89819A81E816F90608F458CF9B
:1006200080E003C0C12CD12C80E09B8199230CF089
:100630005FC08E8190910001992329F08EBD0DB489
:1006400007FEFDCF01C0EAD4C65FDE4FA881B981A5
:10065000CA50D1408B2F992720910001222329F0E5
:100660008EBD0DB407FEFDCF01C0D8D4809100012E
:10067000882351F0C65FDE4FB881CA50D140BEBD5D
:100680000DB407FEFDCF06C0C65FDE4F8881CA509D
:10069000D140C4D480910001882329F01EBC0DB440
:1006A00007FEFDCF02C080E0B9D48B8185FF06C074
:1006B000C114D10419F48F7C80618B830F812C814C
:1006C0004A2DB6018B8149D5E3E1BE1211C040919C
:1006D0002D0150912E0160912F01709130016627FC
:1006E0007727452B462B472B19F491E090932C014B
:1006F000E1EFF0E0B0828083E8EEF0E080818E7779
:1007000080831AC010FF4DCF5ECF10FF50CF5BCF5C
:1007100080912D0190912E01A0912F01B091300177
:100720000196A11DB11D80932D0190932E01A093E0
:100730002F01B09330016BCFC35FDE4F0FB6F8943B
:10074000DEBF0FBECDBFDF91CF911F910F91FF9004
:10075000EF90DF90CF90BF90AF909F908F907F9061
:100760006F905F904F903F902F9008957F928F925F
:100770009F92AF92BF92CF92DF92EF92FF920F9330
:100780001F93CF93DF9300D01F92CDB7DEB7982E83
:1007900040E050E063E070E0CE01019656D78981D9
:1007A0009A8199838A83E8EEF0E080818B77808359
:1007B00082E08093E900ECEEF0E08081816080834C
:1007C000E1EFF0E09082108289819A81892B09F40F
:1007D00097C000E010E00F2EFDE2AF2EF1E0BF2E3B
:1007E000F02D0F2EF1EFCF2ED12CF02D0F2EF8EE95
:1007F000EF2EF12CF02D772473946894882483F8DD
:1008000080912C01882319F070D410922C018B81D7
:1008100090910001992329F08EBD0DB407FEFDCF04
:1008200001C0FCD380912D0190912E01A0912F0148
:10083000B0913001892F9A2FAB2FBB272091000157
:10084000222329F08EBD0DB407FEFDCF01C0E6D3F3
:10085000F501808190910001992329F08EBD0DB49E
:1008600007FEFDCF01C0DAD380910001882331F06B
:100870001EBC0DB407FEFDCF8EB502C080E0CED306
:10088000F6018083F701808185FD05C080818E7728
:1008900080830E94940CF4E19F1206C08B8188250E
:1008A0008B8300FD41C024C000FD04C026E19212EC
:1008B0001FC04EC080912D0190912E01A0912F015B
:1008C000B09130010196A11DB11D80932D0190932F
:1008D0002E01A0932F01B0933001E6E19E1641F066
:1008E000AA27BB27892B8A2B8B2B11F470922C0102
:1008F0000F5F1F4F89819A810817190708F480CF6D
:100900001092F100E8EEF0E0908180818E77808394
:1009100095FD32C00E94940CE8EEF0E080818E7765
:1009200080830E94940C28C080912D0190912E010B
:10093000A0912F01B09130010196A11DB11D8093AE
:100940002D0190932E01A0932F01B0933001C8CFB9
:1009500080912D0190912E01A0912F01B091300135
:100960000196A11DB11D80932D0190932E01A0939E
:100970002F01B0933001BCCF0F900F900F90DF91FB
:10098000CF911F910F91FF90EF90DF90CF90BF908C
:10099000AF909F908F907F900895BF92CF92DF92FB
:1009A000EF92FF920F931F93CF93DF93CDB7DEB7F4
:1009B00029970FB6F894DEBF0FBECDBFB82E40E02A
:1009C00050E065E070E0CE0101963FD6E8EEF0E041
:1009D00080818B77808382E08093E900ECEEF0E009
:1009E0008081816080838E010E5F1F4F7E0186E0D3
:1009F000E80EF11C6701F80181918F0190910001CF
:100A0000992331F08EBD0DB407FEFDCF8EB501C028
:100A100005D3F70181937F010C151D0561F7E1EF07
:100A2000F0E0B08210828981DE01A80FB11D159619
:100A30008C9180831082E8EEF0E080818E77808355
:100A400029960FB6F894DEBF0FBECDBFDF91CF91D0
:100A50001F910F91FF90EF90DF90CF90BF9008957E
:100A6000DF92EF92FF920F931F93CF93DF9300D00B
:100A700000D0CDB7DEB7D82E40E050E064E070E0A3
:100A8000CE010196E2D5E8EEF0E080818B7780839D
:100A900082E08093E900ECEEF0E080818160808369
:100AA0008E010F5F1F4F7E0185E0E80EF11CF801FB
:100AB00081918F0190910001992329F08EBD0DB491
:100AC00007FEFDCF01C0AAD20E151F0581F7E1EF89
:100AD000F0E0D08210821082E8EEF0E080818E7724
:100AE00080830F900F900F900F90DF91CF911F9107
:100AF0000F91FF90EF90DF900895BF92CF92DF9219
:100B0000EF92FF920F931F93CF93DF93CDB7DEB792
:100B1000C250D1400FB6F894DEBF0FBECDBF40E04B
:100B200050E063E070E0CE0101968FD5698170E0FE
:100B300040E050E0CE01049688D5E8EEF0E08081F8
:100B40008B77808382E08093E900ECEEF0E0808197
:100B500081608083E1EFF0E08DE1808310828B8102
:100B6000882331F110E08981181790F4E4E0F0E077
:100B7000EC0FFD1FE10FF11D808190910001992381
:100B800029F08EBD0DB407FEFDCF0DC047D20BC0BE
:100B900080910001882329F01EBC0DB407FEFDCF13
:100BA00002C080E03BD21F5F8B811817E0F201C0CA
:100BB00010E08A81882309F441C000E00F2EF1EF94
:100BC000CF2ED12CF02D0F2EF8EEEF2EF12CF02D94
:100BD00089811817C8F4BB24B394B10EE4E0F0E0A7
:100BE000EC0FFD1FE10FF11D808190910001992311
:100BF00031F08EBD0DB407FEFDCF8EB501C00ED213
:100C0000F60180831B2D0EC080910001882331F0F6
:100C10001EBC0DB407FEFDCF8EB502C080E0FED134
:100C2000F6018083F701808185FD04C080818E7785
:100C300080837AD60F5F8A81081750F21092F100F4
:100C4000E8EEF0E0908180818E77808395FD07C08B
:100C50006BD6E8EEF0E080818E77808365D6CE5F3C
:100C6000DE4F0FB6F894DEBF0FBECDBFDF91CF9140
:100C70001F910F91FF90EF90DF90CF90BF9008955C
:100C8000882381F09AB5992369F08250EFECF7E060
:100C90003197F1F700C000008F3F21F09AB58150E5
:100CA0009111F4CF0895CF92DF92EF92FF920F93BC
:100CB0001F93CF93DF93CDB7DEB72F970FB6F8947E
:100CC000DEBF0FBECDBF40E050E06BE070E0CE0174
:100CD0000196BBD4E8EEF0E080818B77808382E0E0
:100CE0008093E900ECEEF0E08081816080831092D7
:100CF0002D0110922E0110922F01109230018B8144
:100D0000BFDF62D181E0A9D18A81BADF8C819FEFF8
:100D1000980F9C83882309F444C08AB5811138C098
:100D200080EC44C08D81ACDFF80181918F019091FE
:100D30000001992331F08EBD0DB407FEFDCF8EB5B5
:100D400001C06CD1F70181937F010C151D0551F78E
:100D50008F81882351F0EBE0F0E0EC0FFD1FE80FEE
:100D6000F11D90818E81981302C080E01FC080E049
:100D700074D18A8185DF81E070D18A8181DF8C81A5
:100D80009FEF980F9C83882371F08AB5882369F0C0
:100D90008E01085F1F4F7E01FCE0EF0EF11C670122
:100DA000C1CF80EC03C080EC01C080ECE1EFF0E04B
:100DB00090E190838083E8EEF0E080818E778083FD
:100DC0002F960FB6F894DEBF0FBECDBFDF91CF9147
:100DD0001F910F91FF90EF90DF90CF9008950F93A8
:100DE0001F93CF93DF9300D0CDB7DEB740E050E044
:100DF00062E070E0CE01019628D408EE10E0F80120
:100E000080818B77808382E08093E900ECEEF0E0D4
:100E1000808181608083898133DF80E01ED1A7D00B
:100E20008A812EDFE1EFF0E081E180831082F8011A
:100E300080818E7780830F900F90DF91CF911F91EB
:100E40000F910895EF92FF920F931F93CF93DF932B
:100E500000D000D000D0CDB7DEB740E050E066E073
:100E600070E0CE010196F1D3E8EEF0E080818B775F
:100E7000808382E08093E900ECEEF0E08081816085
:100E800080838E010D5F1F4F7E0187E0E80EF11C0D
:100E9000F80181918F0190910001992329F08EBD75
:100EA0000DB407FEFDCF01C0B9D00E151F0581F7A7
:100EB0008A81811104C08981E3DE80E001C0DBD03A
:100EC000E1EFF0E092E190838083E8EEF0E0808152
:100ED0008E77808326960FB6F894DEBF0FBECDBF07
:100EE000DF91CF911F910F91FF90EF9008951F9286
:100EF0000F920FB60F9211248F93199908C0809109
:100F00002B01882314F42A9A19C02A9817C08091BB
:100F10002B01880F80932B0180912A0181508093AF
:100F20002A01811104C01092810082E086BB1B9BC4
:100F300005C080912B01816080932B01199A8F91BC
:100F40000F900FBE0F901F9018953E9A10926F0051
:100F500010928500109284001092890010928800EF
:100F600080E48093800089E08093810008958091DF
:100F70000001882349F084B1897F84B985B1867FD7
:100F800085B91CBC1DBC089584B1897F84B985B125
:100F9000867F85B9DACF089592E090936F00109222
:100FA000850010928400E82FF0E0EE0FFF1FEE5155
:100FB000FF4F8591949190938900809388001092BF
:100FC000800010928100089588E9C1D28730E0F452
:100FD00091E090930001E82FF0E0E65DFD4FE49191
:100FE000209A289A84B1866084B923982B9AE6FFC8
:100FF00004C08DB581608DBD03C08DB58E7F8DBD64
:101000002098E065ECBD08951092000194B19660BF
:1010100094B995B1996095B9BFCF089580932B018C
:1010200088E080932A0180912B01882314F42A9A66
:1010300001C02A9810928500109284008AE0809363
:10104000810080912A01882319F08AB58111F9CF96
:101050001092810080912B010895882349F0249AF1
:101060008EE975D2811102C02C9A08952C980895AA
:1010700024982C98089580910001882331F080EF06
:101080008EBD0DB407FEFDCF02C080EFC7DF80919B
:101090000001882329F01EBC0DB407FEFDCF02C05D
:1010A00080E0BCDF80910001882329F01EBC0DB4D4
:1010B00007FEFDCF02C080E0B1DF809100018823F0
:1010C00031F01EBC0DB407FEFDCF8EB502C080E02E
:1010D000A5DF80FF03C08AB58111CDCF8AB581110C
:1010E00002C081E8089580E008958091000188237E
:1010F00031F08DE48EBD0DB407FEFDCF02C08DE44E
:101100008DDF80910001882329F01EBC0DB407FEFD
:10111000FDCF02C080E082DF80912D0190912E01F1
:10112000A0912F01B0913001CD01AA27BB272091BA
:101130000001222329F08EBD0DB407FEFDCF01C0B2
:101140006DDF80910001882329F01EBC0DB407FEDD
:10115000FDCF089580E062CF08950F931F93CF9342
:10116000DF93162FD42F8E7790E08830910509F405
:101170004DC034F48230910569F0049779F048C08D
:101180008032910559F08034910509F43FC04097B1
:1011900009F03EC0822F74DD80E03DC0C72F8091F2
:1011A0000001882329F00EBD0DB407FEFDCF02C05B
:1011B000802F34DF80910001882329F0CEBD0DB44B
:1011C00007FEFDCF02C08C2F29DF8091000188230C
:1011D00029F01EBD0DB407FEFDCF02C0812F1EDF1A
:1011E00080910001882331F01EBC0DB407FEFDCFB5
:1011F0008EB502C080E012DFD81303C08AB581111A
:10120000CECF8AB5811106C080E805C034DF03C0A7
:1012100080E001C080E094E69ABDDF91CF911F91FC
:101220000F91089578941F920F920FB60F92112488
:101230008F938AB5882321F08AB581508ABD01C079
:1012400015BC8F910F900FBE0F901F9018958DE4D5
:1012500087BD82E084BD80936E0057D176CE08951D
:10126000EF92FF920F931F93CF93DF93C091F10002
:1012700084E68ABD85E085BDC33109F4D3C0D0F4CE
:10128000C63009F489C038F4C13099F160F1C43036
:1012900008F44EC028C0C03109F4C0C020F4CA30E0
:1012A00009F4A6C020C0C13109F4BAC0C23109F4A2
:1012B000C0C019C0C83109F4BEC060F4C53109F41A
:1012C000B1C008F4B3C0C63109F4B0C0C73109F4E5
:1012D000B5C009C0CD3120F4CA3108F4AFC0ABC0ED
:1012E000CD3109F4AEC08091F200803409F4ABC076
:1012F000BAC0C8EED0E088818B77888382E0809383
:10130000E900ECEEF0E0808181608083E1EFF0E0C5
:1013100081E0808310828AE0808340E050E06AE0D0
:1013200070E08FE191E034D188818E778883B0C0FE
:10133000D091F100C23009F0B6C0E1EFF0E0C08119
:10134000A8EEB0E08C918B778C9392E09093E900BB
:10135000ACEEB0E08C9181608C9390838D2FEFD0B8
:1013600081FF11C01092F1006C2F8D2FF8D00EC0AC
:1013700080FF09C001EF10E0F80110828D2FE7D047
:10138000F801808303C080EC8093F100E8EEF0E088
:1013900080818E7780837CC040E050E064E070E024
:1013A0008DE291E0AFD1E8EEF0E080818B77808331
:1013B00082E08093E900ECEEF0E080818160808340
:1013C00080912D0190912E01A0912F01B0913001BB
:1013D000BB231CF481E080932C01E1EFF0E086E078
:1013E00080831082E8EEF0E080818E77808350C0A9
:1013F000E8EEF0E080818B77808382E08093E900E3
:10140000ACEEB0E08C9181608C93A1EFB0E08AE00B
:101410008C931C9280818E7780833AC044DC38C0E4
:10142000DEDC36C08C2F0E94D50132C08C2F9ED9B5
:101430002FC008DD2DC08C2FB0DA2AC08C2F10DB16
:1014400027C05BDB25C008EE10E00F2EF2EFEF2E79
:10145000F12CF02DF80180818B77808365D2F70124
:1014600080818034B9F3E8EEF0E080818B7780836F
:1014700082E08093E900ACEEB0E08C9181608C93C7
:10148000A1EFB0E0CC9389EC8C9380818E77808340
:1014900015BC4AD282E08093E900ECEEF0E0808156
:1014A0008E7F808315C0E8EEF0E080818B778083AB
:1014B00082E08093E900ECEEF0E08081816080833F
:1014C000C093F1008D2F3BD0C33009F05CCF50CFDB
:1014D000DF91CF911F910F91FF90EF900895909120
:1014E0000101891769F0E4E0F1E09081981759F063
:1014F000339691E0EF31F907C1F780E090E008956D
:1015000081E091E00895CF010895CF93DF9381E0CA
:1015100090E04DD4D82F80E090E049D4C82FDF3F31
:1015200021F08EE9DCDFFC01D283CF3F21F088E996
:10153000D6DFFC01C283DF91CF9108950895CFDFFC
:10154000009719F0FC018181089580E00895C7DFBC
:10155000009719F0FC018281089580E00895CF93EF
:10156000DF93C82FD62FBBDF009779F0FC01D28321
:10157000CE3929F46D2F81E090E021D406C0C8391E
:1015800021F46D2F80E090E01AD4DF91CF9108957F
:101590008F929F92AF92BF92CF92DF92EF92FF9283
:1015A0000F931F93CF93DF938C01EB015A01BCD1B2
:1015B00081113EC0A114B10439F0F50180819181FF
:1015C000C81BD90B080F191F209789F1E12CF12CAA
:1015D0000F2EF8EE8F2E912CF02D0F2EF1EFCF2E37
:1015E000D12CF02DF401808185FD14C080818E778F
:1015F0008083C4D3A114B10449F0F50180819181A5
:10160000E80EF91EF182E08285E012C08DD18823B8
:1016100051F00EC0F80181918F01F601808321976E
:10162000FFEFEF1AFF0A2097E9F680E001C080E0A3
:10163000DF91CF911F910F91FF90EF90DF90CF90AE
:10164000BF90AF909F908F9008958F929F92AF928E
:10165000BF92CF92DF92EF92FF920F931F93CF939F
:10166000DF938C01EB015A015FD181113EC0A114BF
:10167000B10439F0F50180819181C81BD90B080FA5
:10168000191F209789F1E12CF12C0F2EF8EE8F2EE7
:10169000912CF02D0F2EF1EFCF2ED12CF02DF40147
:1016A000808185FD14C080818B77808367D3A114EE
:1016B000B10449F0F50180819181E80EF91EF182B3
:1016C000E08285E012C030D1882351F00EC0F601CF
:1016D0008081F80181938F012197FFEFEF1AFF0AB4
:1016E0002097E9F680E001C080E0DF91CF911F9163
:1016F0000F91FF90EF90DF90CF90BF90AF909F90B1
:101700008F9008958F929F92AF92BF92CF92DF9267
:10171000EF92FF920F931F93CF93DF938C01EB0116
:101720005A0102D1811143C0CE010197080F191F40
:10173000A114B10439F0F50180819181C81BD90B46
:10174000081B190B209791F1E12CF12C0F2EF8EECC
:101750008F2E912CF02D0F2EF1EFCF2ED12CF02DBE
:10176000F401808185FD14C080818B77808306D34E
:10177000A114B10449F0F50180819181E80EF91EB0
:10178000F182E08285E013C0CFD0882359F00FC0EA
:10179000F6018081F8018083015011092197FFEF44
:1017A000EF1AFF0A2097E1F680E001C080E0DF91A8
:1017B000CF911F910F91FF90EF90DF90CF90BF904E
:1017C000AF909F908F900895EF92FF921F93CF93C9
:1017D000DF932091390130913A012617370758F0ED
:1017E0006115710539F4E8EEF0E020812E77208351
:1017F0009B0101C09B01E82FF92F60E0A8EEB0E04B
:1018000042EF50E00F2EF1EFEF2EF12CF02D71E0B2
:1018100010E02DC08EB3882309F43FC0853009F451
:101820003EC08C9183FD3DC08C9182FD2FC08C9178
:1018300080FF1DC0EA01888190E02115310581F00B
:101840008031910568F46491E701688331962150F5
:10185000310901962115310519F08031910599F76B
:10186000672F409709F0612F8C918E778C9321150B
:10187000310581F66111CECF09C08EB3882399F06E
:10188000853099F0808183FF03C011C0E8EEF0E05D
:10189000808182FFF2CF80E00BC082E009C083E04C
:1018A00007C081E005C082E003C083E001C081E0A1
:1018B000DF91CF911F91FF90EF9008958F708093EB
:1018C000E900EBEEF0E0808181608083EDEEF0E0F6
:1018D00010826093EC0040838091EE00881F88277F
:1018E000881F08958091330188233CF0E8EEF0E0F2
:1018F00012C08EB3811103C00895E8EEF0E080813C
:1019000082FFF7CFE8EEF0E080818B778083089547
:101910008EB3882341F0808180FFFACFE8EEF0E0BB
:1019200080818E77808308950F931F93CF93DF93E9
:101930002091E4003091E50065E6ACEEB0E0E8EE21
:10194000F0E00BEE10E044EE50E001C09C019C91F1
:10195000892F817090FD1CC01FC08EB3882381F039
:10196000853081F0E801888185FD0EC0EA0188811B
:1019700099812817390759F3615041F784E00FC066
:1019800082E00DC083E00BC081E009C080E007C0A9
:10199000808180FFE2CFFACF908192FFDECFDF918E
:1019A000CF911F910F91089536D038D0E8EDF0E037
:1019B00080818F77808380818068808380818F7D24
:1019C000808319BC82E089BD09B400FEFDCF1EBA38
:1019D0001092310142E160E080E070DFE1EEF0E082
:1019E00080818E7F8083E2EEF0E080818160808361
:1019F000808188608083E0EEF0E080818E7F80834C
:101A00000895E3E6F0E080818E7F808381E080931B
:101A10003201CACF08951092E20008951092E100B9
:101A200008951F920F920FB60F9211242F933F9398
:101A30004F935F936F937F938F939F93AF93BF93D6
:101A4000EF93FF938091E10080FF15C08091E20049
:101A500080FF11C0E2EEF0E080818E7F8083808184
:101A600080618083E8EDF0E080818062808319BC32
:101A70001EBA0E945B018091E10084FF2DC080911D
:101A8000E20084FF29C019BC82E089BD09B400FED0
:101A9000FDCFE8EDF0E080818F7D8083E1EEF0E026
:101AA00080818F7E8083E2EEF0E080818F7E808374
:101AB00080818160808380913101882319F084E0E6
:101AC0008EBB08C08091E300882314F081E001C040
:101AD00083E08EBB0E9456018091E10083FF1DC010
:101AE0008091E20083FF19C0E1EEF0E08081877F02
:101AF000808382E08EBB1092310180818E7F808353
:101B0000E2EEF0E080818E7F80838081806180833F
:101B100042E160E080E0D2DE30D1FF91EF91BF91F1
:101B2000AF919F918F917F916F915F914F913F9175
:101B30002F910F900FBE0F901F9018950F931F932A
:101B4000CF93DF9300D0CDB7DEB7E3E3F1E02BE333
:101B500031E0A1EFB0E08C9181932E173F07D9F7C8
:101B60000CD18091E80083FFECC0E3E3F1E09081C9
:101B70008181853009F46EC030F4813091F168F0D4
:101B8000833079F1DEC0883009F4A7C0893009F4C8
:101B9000B4C0863009F0D5C07FC0903899F0923833
:101BA00009F0CFC0809137018F70853008F0C9C02F
:101BB000E9EEF0E080838091EB0085FB882780F9D7
:101BC000108201C080E0E8EEF0E09081977F908382
:101BD000A1EFB0E08C931C9280818E77808382DEAF
:101BE000B0C0923009F4BCC0ACC0809137018F7096
:101BF0009FEF980F943008F0A4C08093E900909173
:101C0000EB0090FF1EC090913401933031F4EBEE65
:101C1000F0E080818062808314C0EBEEF0E0908180
:101C20009061908321E030E0A90102C0440F551F6C
:101C30008A95E2F7AAEEB0E04C931C92808188600E
:101C400080831092E900E8EEF0E08081877F808356
:101C500049DE77C0911175C0109135011F77E3EE11
:101C6000F0E080818078812B8083E8EEF0E0808155
:101C7000877F808337DEE8EEF0E0808180FFFDCF54
:101C8000E3EEF0E0808180688083111102C082E081
:101C900001C083E08EBB55C09058923008F051C00F
:101CA000E3E3F1E064817581AE014F5F5F4F8281B4
:101CB00093810E949001BC01892B09F442C008EE77
:101CC00010E0F8019081977F908389819A817CDD73
:101CD000F80180818B77808334C0903891F5E8EEED
:101CE000F0E08081877F8083809131018093F100D3
:101CF00080818E778083F6DD24C0911122C080918F
:101D000035019091360199270297DCF4E8EEF0E076
:101D10008081877F80838091350180933101E2DD6E
:101D200080913101882319F084E08EBB08C0809136
:101D3000E300882314F081E001C084E08EBB0E94A0
:101D400060018091E80083FF11C0E8EEF0E080813F
:101D5000877F8083EBEEF0E080818062808306C025
:101D600080913501882309F440CF6BCF0F900F90FD
:101D7000DF91CF911F910F9108950895CF938EB366
:101D8000882399F0C091E900CF708091EC00982FE2
:101D9000917080FD90E8C92B1092E9008091E800D5
:101DA00083FDCCDECF70C093E900CF910895F999FF
:101DB000FECF92BD81BDF89A992780B50895262F50
:101DC000F999FECF92BD81BDF89A019700B4021631
:101DD00039F01FBA20BD0FB6F894FA9AF99A0FBEDF
:061DE0000895F894FFCF06
:101DE600018001008101009001009101019201181A
:101DF6009401219803069E0301A10100A40300415A
:0A1E060056524953505F4D4B320015
:00000001FF
